{
	"SocialMedia.sol": {
		"SocialMedia": {
			"abi": [
				{
					"anonymous": false,
					"inputs": [
						{
							"indexed": true,
							"internalType": "address",
							"name": "myAccount",
							"type": "address"
						},
						{
							"indexed": true,
							"internalType": "address",
							"name": "followerAddress",
							"type": "address"
						}
					],
					"name": "followerUpdated",
					"type": "event"
				},
				{
					"anonymous": false,
					"inputs": [
						{
							"indexed": true,
							"internalType": "address",
							"name": "myAccount",
							"type": "address"
						},
						{
							"indexed": true,
							"internalType": "address",
							"name": "followingAddress",
							"type": "address"
						}
					],
					"name": "followingUpdated",
					"type": "event"
				},
				{
					"anonymous": false,
					"inputs": [
						{
							"indexed": true,
							"internalType": "address",
							"name": "userAddress",
							"type": "address"
						},
						{
							"indexed": false,
							"internalType": "string",
							"name": "UserName",
							"type": "string"
						}
					],
					"name": "newUserRegister",
					"type": "event"
				},
				{
					"anonymous": false,
					"inputs": [
						{
							"indexed": true,
							"internalType": "address",
							"name": "userAddress",
							"type": "address"
						},
						{
							"indexed": false,
							"internalType": "uint256",
							"name": "_id",
							"type": "uint256"
						},
						{
							"indexed": false,
							"internalType": "string",
							"name": "content",
							"type": "string"
						}
					],
					"name": "postCreated",
					"type": "event"
				},
				{
					"inputs": [
						{
							"internalType": "address",
							"name": "postAddress",
							"type": "address"
						},
						{
							"internalType": "uint256",
							"name": "_postId",
							"type": "uint256"
						}
					],
					"name": "addLikes",
					"outputs": [],
					"stateMutability": "nonpayable",
					"type": "function"
				},
				{
					"inputs": [
						{
							"internalType": "address",
							"name": "",
							"type": "address"
						},
						{
							"internalType": "uint256",
							"name": "",
							"type": "uint256"
						}
					],
					"name": "allFollowers",
					"outputs": [
						{
							"internalType": "address",
							"name": "",
							"type": "address"
						}
					],
					"stateMutability": "view",
					"type": "function"
				},
				{
					"inputs": [
						{
							"internalType": "address",
							"name": "",
							"type": "address"
						},
						{
							"internalType": "uint256",
							"name": "",
							"type": "uint256"
						}
					],
					"name": "allFollowing",
					"outputs": [
						{
							"internalType": "address",
							"name": "",
							"type": "address"
						}
					],
					"stateMutability": "view",
					"type": "function"
				},
				{
					"inputs": [
						{
							"internalType": "string",
							"name": "_content",
							"type": "string"
						}
					],
					"name": "createPost",
					"outputs": [],
					"stateMutability": "nonpayable",
					"type": "function"
				},
				{
					"inputs": [
						{
							"internalType": "address",
							"name": "friendAddress",
							"type": "address"
						}
					],
					"name": "follow",
					"outputs": [],
					"stateMutability": "nonpayable",
					"type": "function"
				},
				{
					"inputs": [],
					"name": "getAllRegisteredUsers",
					"outputs": [
						{
							"internalType": "address[]",
							"name": "",
							"type": "address[]"
						}
					],
					"stateMutability": "view",
					"type": "function"
				},
				{
					"inputs": [
						{
							"internalType": "address",
							"name": "user",
							"type": "address"
						}
					],
					"name": "getFollowers",
					"outputs": [
						{
							"internalType": "address[]",
							"name": "",
							"type": "address[]"
						}
					],
					"stateMutability": "view",
					"type": "function"
				},
				{
					"inputs": [
						{
							"internalType": "address",
							"name": "user",
							"type": "address"
						}
					],
					"name": "getFollowing",
					"outputs": [
						{
							"internalType": "address[]",
							"name": "",
							"type": "address[]"
						}
					],
					"stateMutability": "view",
					"type": "function"
				},
				{
					"inputs": [
						{
							"internalType": "address",
							"name": "user",
							"type": "address"
						}
					],
					"name": "getUserPosts",
					"outputs": [
						{
							"components": [
								{
									"internalType": "uint256",
									"name": "postId",
									"type": "uint256"
								},
								{
									"internalType": "string",
									"name": "content",
									"type": "string"
								},
								{
									"internalType": "uint256",
									"name": "likesCount",
									"type": "uint256"
								},
								{
									"internalType": "uint256",
									"name": "commentsCount",
									"type": "uint256"
								}
							],
							"internalType": "struct SocialMedia.Post[]",
							"name": "",
							"type": "tuple[]"
						}
					],
					"stateMutability": "view",
					"type": "function"
				},
				{
					"inputs": [
						{
							"internalType": "address",
							"name": "user",
							"type": "address"
						}
					],
					"name": "getUserProfile",
					"outputs": [
						{
							"internalType": "address",
							"name": "UserAddress",
							"type": "address"
						},
						{
							"internalType": "string",
							"name": "UserName",
							"type": "string"
						},
						{
							"internalType": "string",
							"name": "bio",
							"type": "string"
						},
						{
							"internalType": "uint256",
							"name": "follower",
							"type": "uint256"
						},
						{
							"internalType": "uint256",
							"name": "following",
							"type": "uint256"
						},
						{
							"internalType": "uint256",
							"name": "totalPost",
							"type": "uint256"
						},
						{
							"internalType": "bool",
							"name": "isRegister",
							"type": "bool"
						}
					],
					"stateMutability": "view",
					"type": "function"
				},
				{
					"inputs": [
						{
							"internalType": "address",
							"name": "",
							"type": "address"
						},
						{
							"internalType": "address",
							"name": "",
							"type": "address"
						}
					],
					"name": "isFollowing",
					"outputs": [
						{
							"internalType": "bool",
							"name": "",
							"type": "bool"
						}
					],
					"stateMutability": "view",
					"type": "function"
				},
				{
					"inputs": [
						{
							"internalType": "address",
							"name": "",
							"type": "address"
						},
						{
							"internalType": "uint256",
							"name": "",
							"type": "uint256"
						}
					],
					"name": "posts",
					"outputs": [
						{
							"internalType": "uint256",
							"name": "postId",
							"type": "uint256"
						},
						{
							"internalType": "string",
							"name": "content",
							"type": "string"
						},
						{
							"internalType": "uint256",
							"name": "likesCount",
							"type": "uint256"
						},
						{
							"internalType": "uint256",
							"name": "commentsCount",
							"type": "uint256"
						}
					],
					"stateMutability": "view",
					"type": "function"
				},
				{
					"inputs": [
						{
							"internalType": "string",
							"name": "bio",
							"type": "string"
						},
						{
							"internalType": "string",
							"name": "username",
							"type": "string"
						}
					],
					"name": "register",
					"outputs": [],
					"stateMutability": "nonpayable",
					"type": "function"
				},
				{
					"inputs": [
						{
							"internalType": "uint256",
							"name": "",
							"type": "uint256"
						}
					],
					"name": "registeredUsers",
					"outputs": [
						{
							"internalType": "address",
							"name": "",
							"type": "address"
						}
					],
					"stateMutability": "view",
					"type": "function"
				},
				{
					"inputs": [
						{
							"internalType": "address",
							"name": "unfollowAddress",
							"type": "address"
						}
					],
					"name": "unfollow",
					"outputs": [],
					"stateMutability": "nonpayable",
					"type": "function"
				},
				{
					"inputs": [
						{
							"internalType": "address",
							"name": "",
							"type": "address"
						}
					],
					"name": "user_profile",
					"outputs": [
						{
							"internalType": "address",
							"name": "UserAddress",
							"type": "address"
						},
						{
							"internalType": "string",
							"name": "UserName",
							"type": "string"
						},
						{
							"internalType": "string",
							"name": "bio",
							"type": "string"
						},
						{
							"internalType": "uint256",
							"name": "follower",
							"type": "uint256"
						},
						{
							"internalType": "uint256",
							"name": "following",
							"type": "uint256"
						},
						{
							"internalType": "uint256",
							"name": "totalPost",
							"type": "uint256"
						},
						{
							"internalType": "bool",
							"name": "isRegister",
							"type": "bool"
						}
					],
					"stateMutability": "view",
					"type": "function"
				}
			],
			"devdoc": {
				"kind": "dev",
				"methods": {},
				"version": 1
			},
			"evm": {
				"assembly": "    /* \"SocialMedia.sol\":68:7525  contract SocialMedia {... */\n  mstore(0x40, 0x80)\n  callvalue\n  dup1\n  iszero\n  tag_1\n  jumpi\n  0x00\n  dup1\n  revert\ntag_1:\n  pop\n  dataSize(sub_0)\n  dup1\n  dataOffset(sub_0)\n  0x00\n  codecopy\n  0x00\n  return\nstop\n\nsub_0: assembly {\n        /* \"SocialMedia.sol\":68:7525  contract SocialMedia {... */\n      mstore(0x40, 0x80)\n      callvalue\n      dup1\n      iszero\n      tag_1\n      jumpi\n      0x00\n      dup1\n      revert\n    tag_1:\n      pop\n      jumpi(tag_2, lt(calldatasize, 0x04))\n      shr(0xe0, calldataload(0x00))\n      dup1\n      0x6ef9c5e6\n      gt\n      tag_19\n      jumpi\n      dup1\n      0x9a2194a9\n      gt\n      tag_20\n      jumpi\n      dup1\n      0x9a2194a9\n      eq\n      tag_15\n      jumpi\n      dup1\n      0xc2fe2022\n      eq\n      tag_16\n      jumpi\n      dup1\n      0xc7303c61\n      eq\n      tag_17\n      jumpi\n      dup1\n      0xd8236dff\n      eq\n      tag_18\n      jumpi\n      0x00\n      dup1\n      revert\n    tag_20:\n      dup1\n      0x6ef9c5e6\n      eq\n      tag_11\n      jumpi\n      dup1\n      0x7259e0f8\n      eq\n      tag_12\n      jumpi\n      dup1\n      0x987ee156\n      eq\n      tag_13\n      jumpi\n      dup1\n      0x99ec3a42\n      eq\n      tag_14\n      jumpi\n      0x00\n      dup1\n      revert\n    tag_19:\n      dup1\n      0x3ffbd47f\n      gt\n      tag_21\n      jumpi\n      dup1\n      0x3ffbd47f\n      eq\n      tag_7\n      jumpi\n      dup1\n      0x4dbf27cc\n      eq\n      tag_8\n      jumpi\n      dup1\n      0x5c538df3\n      eq\n      tag_9\n      jumpi\n      dup1\n      0x5d867b94\n      eq\n      tag_10\n      jumpi\n      0x00\n      dup1\n      revert\n    tag_21:\n      dup1\n      0x015a4ead\n      eq\n      tag_3\n      jumpi\n      dup1\n      0x15bf4006\n      eq\n      tag_4\n      jumpi\n      dup1\n      0x3640b59c\n      eq\n      tag_5\n      jumpi\n      dup1\n      0x397388af\n      eq\n      tag_6\n      jumpi\n    tag_2:\n      0x00\n      dup1\n      revert\n        /* \"SocialMedia.sol\":4338:6116  function unfollow(address unfollowAddress) external {... */\n    tag_3:\n      tag_22\n      tag_23\n      calldatasize\n      0x04\n      tag_24\n      jump\t// in\n    tag_23:\n      tag_25\n      jump\t// in\n    tag_22:\n      stop\n        /* \"SocialMedia.sol\":6122:6409  function addLikes(address postAddress, uint256 _postId) external {... */\n    tag_4:\n      tag_22\n      tag_27\n      calldatasize\n      0x04\n      tag_28\n      jump\t// in\n    tag_27:\n      tag_29\n      jump\t// in\n        /* \"SocialMedia.sol\":804:848  mapping(address => User) public user_profile */\n    tag_5:\n      tag_30\n      tag_31\n      calldatasize\n      0x04\n      tag_24\n      jump\t// in\n    tag_31:\n      tag_32\n      jump\t// in\n    tag_30:\n      mload(0x40)\n      tag_33\n      swap8\n      swap7\n      swap6\n      swap5\n      swap4\n      swap3\n      swap2\n      swap1\n      tag_34\n      jump\t// in\n    tag_33:\n      mload(0x40)\n      dup1\n      swap2\n      sub\n      swap1\n      return\n        /* \"SocialMedia.sol\":6415:6528  function getAllRegisteredUsers() external view returns (address[] memory) {... */\n    tag_6:\n      tag_35\n      tag_36\n      jump\t// in\n    tag_35:\n      mload(0x40)\n      tag_33\n      swap2\n      swap1\n      tag_38\n      jump\t// in\n        /* \"SocialMedia.sol\":1257:1917  function register(string memory bio, string memory username) external {... */\n    tag_7:\n      tag_22\n      tag_40\n      calldatasize\n      0x04\n      tag_41\n      jump\t// in\n    tag_40:\n      tag_42\n      jump\t// in\n        /* \"SocialMedia.sol\":3386:4283  function follow(address friendAddress) external {... */\n    tag_8:\n      tag_22\n      tag_44\n      calldatasize\n      0x04\n      tag_24\n      jump\t// in\n    tag_44:\n      tag_45\n      jump\t// in\n        /* \"SocialMedia.sol\":1003:1042  mapping(address => Post[]) public posts */\n    tag_9:\n      tag_46\n      tag_47\n      calldatasize\n      0x04\n      tag_28\n      jump\t// in\n    tag_47:\n      tag_48\n      jump\t// in\n    tag_46:\n      mload(0x40)\n      tag_33\n      swap5\n      swap4\n      swap3\n      swap2\n      swap1\n      tag_50\n      jump\t// in\n        /* \"SocialMedia.sol\":948:997  mapping(address => address[]) public allFollowers */\n    tag_10:\n      tag_51\n      tag_52\n      calldatasize\n      0x04\n      tag_28\n      jump\t// in\n    tag_52:\n      tag_53\n      jump\t// in\n    tag_51:\n      mload(0x40)\n      sub(shl(0xa0, 0x01), 0x01)\n        /* \"#utility.yul\":4525:4557   */\n      swap1\n      swap2\n      and\n        /* \"#utility.yul\":4507:4558   */\n      dup2\n      mstore\n        /* \"#utility.yul\":4495:4497   */\n      0x20\n        /* \"#utility.yul\":4480:4498   */\n      add\n        /* \"SocialMedia.sol\":948:997  mapping(address => address[]) public allFollowers */\n      tag_33\n        /* \"#utility.yul\":4361:4564   */\n      jump\n        /* \"SocialMedia.sol\":893:942  mapping(address => address[]) public allFollowing */\n    tag_11:\n      tag_51\n      tag_57\n      calldatasize\n      0x04\n      tag_28\n      jump\t// in\n    tag_57:\n      tag_58\n      jump\t// in\n        /* \"SocialMedia.sol\":854:886  address[] public registeredUsers */\n    tag_12:\n      tag_51\n      tag_61\n      calldatasize\n      0x04\n      tag_62\n      jump\t// in\n    tag_61:\n      tag_63\n      jump\t// in\n        /* \"SocialMedia.sol\":6955:7523  function getUserProfile(address user)... */\n    tag_13:\n      tag_30\n      tag_66\n      calldatasize\n      0x04\n      tag_24\n      jump\t// in\n    tag_66:\n      tag_67\n      jump\t// in\n        /* \"SocialMedia.sol\":1048:1111  mapping(address => mapping(address => bool)) public isFollowing */\n    tag_14:\n      tag_69\n      tag_70\n      calldatasize\n      0x04\n      tag_71\n      jump\t// in\n    tag_70:\n      0x05\n      0x20\n      swap1\n      dup2\n      mstore\n      0x00\n      swap3\n      dup4\n      mstore\n      0x40\n      dup1\n      dup5\n      keccak256\n      swap1\n      swap2\n      mstore\n      swap1\n      dup3\n      mstore\n      swap1\n      keccak256\n      sload\n      0xff\n      and\n      dup2\n      jump\n    tag_69:\n      mload(0x40)\n        /* \"#utility.yul\":5184:5198   */\n      swap1\n      iszero\n        /* \"#utility.yul\":5177:5199   */\n      iszero\n        /* \"#utility.yul\":5159:5200   */\n      dup2\n      mstore\n        /* \"#utility.yul\":5147:5149   */\n      0x20\n        /* \"#utility.yul\":5132:5150   */\n      add\n        /* \"SocialMedia.sol\":1048:1111  mapping(address => mapping(address => bool)) public isFollowing */\n      tag_33\n        /* \"#utility.yul\":5019:5206   */\n      jump\n        /* \"SocialMedia.sol\":6534:6643  function getUserPosts(address user) external view returns (Post[] memory) {... */\n    tag_15:\n      tag_75\n      tag_76\n      calldatasize\n      0x04\n      tag_24\n      jump\t// in\n    tag_76:\n      tag_77\n      jump\t// in\n    tag_75:\n      mload(0x40)\n      tag_33\n      swap2\n      swap1\n      tag_79\n      jump\t// in\n        /* \"SocialMedia.sol\":6802:6949  function getFollowers(address user)... */\n    tag_16:\n      tag_35\n      tag_81\n      calldatasize\n      0x04\n      tag_24\n      jump\t// in\n    tag_81:\n      tag_82\n      jump\t// in\n        /* \"SocialMedia.sol\":2380:3194  function createPost(string memory _content) external {... */\n    tag_17:\n      tag_22\n      tag_85\n      calldatasize\n      0x04\n      tag_86\n      jump\t// in\n    tag_85:\n      tag_87\n      jump\t// in\n        /* \"SocialMedia.sol\":6649:6796  function getFollowing(address user)... */\n    tag_18:\n      tag_35\n      tag_89\n      calldatasize\n      0x04\n      tag_24\n      jump\t// in\n    tag_89:\n      tag_90\n      jump\t// in\n        /* \"SocialMedia.sol\":4338:6116  function unfollow(address unfollowAddress) external {... */\n    tag_25:\n        /* \"SocialMedia.sol\":4421:4431  msg.sender */\n      caller\n        /* \"SocialMedia.sol\":4408:4420  user_profile */\n      0x00\n        /* \"SocialMedia.sol\":4408:4432  user_profile[msg.sender] */\n      swap1\n      dup2\n      mstore\n      0x20\n      dup2\n      swap1\n      mstore\n      0x40\n      swap1\n      keccak256\n        /* \"SocialMedia.sol\":4408:4443  user_profile[msg.sender].isRegister */\n      0x06\n      add\n      sload\n      0xff\n      and\n        /* \"SocialMedia.sol\":4400:4444  require(user_profile[msg.sender].isRegister) */\n      tag_93\n      jumpi\n      0x00\n      dup1\n      revert\n    tag_93:\n      sub(shl(0xa0, 0x01), 0x01)\n        /* \"SocialMedia.sol\":4475:4504  user_profile[unfollowAddress] */\n      dup2\n      and\n        /* \"SocialMedia.sol\":4475:4487  user_profile */\n      0x00\n        /* \"SocialMedia.sol\":4475:4504  user_profile[unfollowAddress] */\n      swap1\n      dup2\n      mstore\n      0x20\n      dup2\n      swap1\n      mstore\n      0x40\n      swap1\n      keccak256\n        /* \"SocialMedia.sol\":4475:4515  user_profile[unfollowAddress].isRegister */\n      0x06\n      add\n      sload\n      0xff\n      and\n      dup1\n        /* \"SocialMedia.sol\":4475:4564  user_profile[unfollowAddress].isRegister ||... */\n      tag_94\n      jumpi\n      pop\n      sub(shl(0xa0, 0x01), 0x01)\n        /* \"SocialMedia.sol\":4535:4564  unfollowAddress != address(0) */\n      dup2\n      and\n      iszero\n      iszero\n        /* \"SocialMedia.sol\":4475:4564  user_profile[unfollowAddress].isRegister ||... */\n    tag_94:\n        /* \"SocialMedia.sol\":4454:4574  require(... */\n      tag_95\n      jumpi\n      0x00\n      dup1\n      revert\n    tag_95:\n        /* \"SocialMedia.sol\":4617:4627  msg.sender */\n      caller\n        /* \"SocialMedia.sol\":4605:4628  isFollowing[msg.sender] */\n      0x00\n      swap1\n      dup2\n      mstore\n        /* \"SocialMedia.sol\":4605:4616  isFollowing */\n      0x05\n        /* \"SocialMedia.sol\":4605:4628  isFollowing[msg.sender] */\n      0x20\n      swap1\n      dup2\n      mstore\n      0x40\n      dup1\n      dup4\n      keccak256\n      sub(shl(0xa0, 0x01), 0x01)\n        /* \"SocialMedia.sol\":4605:4645  isFollowing[msg.sender][unfollowAddress] */\n      dup6\n      and\n      dup5\n      mstore\n      swap1\n      swap2\n      mstore\n      swap1\n      keccak256\n      sload\n      0xff\n      and\n        /* \"SocialMedia.sol\":4605:4653  isFollowing[msg.sender][unfollowAddress] == true */\n      iszero\n      iszero\n        /* \"SocialMedia.sol\":4605:4645  isFollowing[msg.sender][unfollowAddress] */\n      0x01\n        /* \"SocialMedia.sol\":4605:4653  isFollowing[msg.sender][unfollowAddress] == true */\n      eq\n        /* \"SocialMedia.sol\":4584:4710  require(... */\n      tag_96\n      jumpi\n      mload(0x40)\n      shl(0xe5, 0x461bcd)\n      dup2\n      mstore\n        /* \"#utility.yul\":6961:6963   */\n      0x20\n        /* \"SocialMedia.sol\":4584:4710  require(... */\n      0x04\n      dup3\n      add\n        /* \"#utility.yul\":6943:6964   */\n      mstore\n        /* \"#utility.yul\":7000:7002   */\n      0x1f\n        /* \"#utility.yul\":6980:6998   */\n      0x24\n      dup3\n      add\n        /* \"#utility.yul\":6973:7003   */\n      mstore\n        /* \"#utility.yul\":7039:7072   */\n      0x796f7520617265206e6f7420666f6c6c6f77696e672074686973207573657200\n        /* \"#utility.yul\":7019:7037   */\n      0x44\n      dup3\n      add\n        /* \"#utility.yul\":7012:7073   */\n      mstore\n        /* \"#utility.yul\":7090:7108   */\n      0x64\n      add\n        /* \"SocialMedia.sol\":4584:4710  require(... */\n    tag_97:\n      mload(0x40)\n      dup1\n      swap2\n      sub\n      swap1\n      revert\n    tag_96:\n        /* \"SocialMedia.sol\":4734:4744  msg.sender */\n      caller\n        /* \"SocialMedia.sol\":4721:4733  user_profile */\n      0x00\n        /* \"SocialMedia.sol\":4721:4745  user_profile[msg.sender] */\n      swap1\n      dup2\n      mstore\n      0x20\n      dup2\n      swap1\n      mstore\n      0x40\n      dup2\n      keccak256\n        /* \"SocialMedia.sol\":4721:4755  user_profile[msg.sender].following */\n      0x04\n      add\n        /* \"SocialMedia.sol\":4721:4757  user_profile[msg.sender].following-- */\n      dup1\n      sload\n      swap2\n      tag_99\n      dup4\n      tag_100\n      jump\t// in\n    tag_99:\n      swap1\n      swap2\n      sstore\n      pop\n      pop\n      sub(shl(0xa0, 0x01), 0x01)\n        /* \"SocialMedia.sol\":4767:4796  user_profile[unfollowAddress] */\n      dup2\n      and\n        /* \"SocialMedia.sol\":4767:4779  user_profile */\n      0x00\n        /* \"SocialMedia.sol\":4767:4796  user_profile[unfollowAddress] */\n      swap1\n      dup2\n      mstore\n      0x20\n      dup2\n      swap1\n      mstore\n      0x40\n      dup2\n      keccak256\n        /* \"SocialMedia.sol\":4767:4805  user_profile[unfollowAddress].follower */\n      0x03\n      add\n        /* \"SocialMedia.sol\":4767:4807  user_profile[unfollowAddress].follower-- */\n      dup1\n      sload\n      swap2\n      tag_101\n      dup4\n      tag_100\n      jump\t// in\n    tag_101:\n      swap1\n      swap2\n      sstore\n      pop\n      pop\n        /* \"SocialMedia.sol\":4830:4840  msg.sender */\n      caller\n        /* \"SocialMedia.sol\":4861:4866  false */\n      0x00\n        /* \"SocialMedia.sol\":4818:4841  isFollowing[msg.sender] */\n      swap1\n      dup2\n      mstore\n        /* \"SocialMedia.sol\":4818:4829  isFollowing */\n      0x05\n        /* \"SocialMedia.sol\":4818:4841  isFollowing[msg.sender] */\n      0x20\n      swap1\n      dup2\n      mstore\n      0x40\n      dup1\n      dup4\n      keccak256\n      sub(shl(0xa0, 0x01), 0x01)\n        /* \"SocialMedia.sol\":4818:4858  isFollowing[msg.sender][unfollowAddress] */\n      dup6\n      and\n      dup5\n      mstore\n      swap1\n      swap2\n      mstore\n      dup2\n      keccak256\n        /* \"SocialMedia.sol\":4818:4866  isFollowing[msg.sender][unfollowAddress] = false */\n      dup1\n      sload\n      not(0xff)\n      and\n      swap1\n      sstore\n        /* \"SocialMedia.sol\":5000:5520  for (uint256 i = 0; i < allFollowing[msg.sender].length; i++) {... */\n    tag_102:\n        /* \"SocialMedia.sol\":5037:5047  msg.sender */\n      caller\n        /* \"SocialMedia.sol\":5024:5048  allFollowing[msg.sender] */\n      0x00\n      swap1\n      dup2\n      mstore\n        /* \"SocialMedia.sol\":5024:5036  allFollowing */\n      0x02\n        /* \"SocialMedia.sol\":5024:5048  allFollowing[msg.sender] */\n      0x20\n      mstore\n      0x40\n      swap1\n      keccak256\n        /* \"SocialMedia.sol\":5024:5055  allFollowing[msg.sender].length */\n      sload\n        /* \"SocialMedia.sol\":5020:5055  i < allFollowing[msg.sender].length */\n      dup2\n      lt\n        /* \"SocialMedia.sol\":5000:5520  for (uint256 i = 0; i < allFollowing[msg.sender].length; i++) {... */\n      iszero\n      tag_103\n      jumpi\n        /* \"SocialMedia.sol\":5093:5103  msg.sender */\n      caller\n        /* \"SocialMedia.sol\":5080:5104  allFollowing[msg.sender] */\n      0x00\n      swap1\n      dup2\n      mstore\n        /* \"SocialMedia.sol\":5080:5092  allFollowing */\n      0x02\n        /* \"SocialMedia.sol\":5080:5104  allFollowing[msg.sender] */\n      0x20\n      mstore\n      0x40\n      swap1\n      keccak256\n        /* \"SocialMedia.sol\":5080:5107  allFollowing[msg.sender][i] */\n      dup1\n      sload\n      sub(shl(0xa0, 0x01), 0x01)\n        /* \"SocialMedia.sol\":5080:5126  allFollowing[msg.sender][i] == unfollowAddress */\n      dup5\n      and\n      swap2\n        /* \"SocialMedia.sol\":5080:5104  allFollowing[msg.sender] */\n      swap1\n        /* \"SocialMedia.sol\":5105:5106  i */\n      dup4\n      swap1\n        /* \"SocialMedia.sol\":5080:5107  allFollowing[msg.sender][i] */\n      dup2\n      lt\n      tag_106\n      jumpi\n      tag_106\n      tag_107\n      jump\t// in\n    tag_106:\n      0x00\n      swap2\n      dup3\n      mstore\n      0x20\n      swap1\n      swap2\n      keccak256\n      add\n      sload\n      sub(shl(0xa0, 0x01), 0x01)\n      and\n        /* \"SocialMedia.sol\":5080:5126  allFollowing[msg.sender][i] == unfollowAddress */\n      sub\n        /* \"SocialMedia.sol\":5076:5510  if (allFollowing[msg.sender][i] == unfollowAddress) {... */\n      tag_109\n      jumpi\n        /* \"SocialMedia.sol\":5303:5313  msg.sender */\n      caller\n        /* \"SocialMedia.sol\":5290:5314  allFollowing[msg.sender] */\n      0x00\n      swap1\n      dup2\n      mstore\n        /* \"SocialMedia.sol\":5290:5302  allFollowing */\n      0x02\n        /* \"SocialMedia.sol\":5290:5314  allFollowing[msg.sender] */\n      0x20\n      mstore\n      0x40\n      swap1\n      keccak256\n        /* \"SocialMedia.sol\":5336:5367  allFollowing[msg.sender].length */\n      dup1\n      sload\n        /* \"SocialMedia.sol\":5336:5371  allFollowing[msg.sender].length - 1 */\n      tag_110\n      swap1\n        /* \"SocialMedia.sol\":5370:5371  1 */\n      0x01\n      swap1\n        /* \"SocialMedia.sol\":5336:5371  allFollowing[msg.sender].length - 1 */\n      tag_111\n      jump\t// in\n    tag_110:\n        /* \"SocialMedia.sol\":5290:5389  allFollowing[msg.sender][... */\n      dup2\n      sload\n      dup2\n      lt\n      tag_113\n      jumpi\n      tag_113\n      tag_107\n      jump\t// in\n    tag_113:\n      0x00\n      swap2\n      dup3\n      mstore\n      0x20\n      dup1\n      dup4\n      keccak256\n      swap1\n      swap2\n      add\n      sload\n        /* \"SocialMedia.sol\":5273:5283  msg.sender */\n      caller\n        /* \"SocialMedia.sol\":5260:5284  allFollowing[msg.sender] */\n      dup4\n      mstore\n        /* \"SocialMedia.sol\":5260:5272  allFollowing */\n      0x02\n        /* \"SocialMedia.sol\":5260:5284  allFollowing[msg.sender] */\n      swap1\n      swap2\n      mstore\n      0x40\n      swap1\n      swap2\n      keccak256\n        /* \"SocialMedia.sol\":5260:5287  allFollowing[msg.sender][i] */\n      dup1\n      sload\n      sub(shl(0xa0, 0x01), 0x01)\n        /* \"SocialMedia.sol\":5290:5389  allFollowing[msg.sender][... */\n      swap1\n      swap3\n      and\n      swap2\n        /* \"SocialMedia.sol\":5285:5286  i */\n      dup4\n      swap1\n        /* \"SocialMedia.sol\":5260:5287  allFollowing[msg.sender][i] */\n      dup2\n      lt\n      tag_116\n      jumpi\n      tag_116\n      tag_107\n      jump\t// in\n    tag_116:\n      0x00\n      swap2\n      dup3\n      mstore\n      0x20\n      dup1\n      dup4\n      keccak256\n      swap2\n      swap1\n      swap2\n      add\n        /* \"SocialMedia.sol\":5260:5389  allFollowing[msg.sender][i] = allFollowing[msg.sender][... */\n      dup1\n      sload\n      not(sub(shl(0xa0, 0x01), 0x01))\n      and\n      sub(shl(0xa0, 0x01), 0x01)\n      swap5\n      swap1\n      swap5\n      and\n      swap4\n      swap1\n      swap4\n      or\n      swap1\n      swap3\n      sstore\n        /* \"SocialMedia.sol\":5454:5464  msg.sender */\n      caller\n        /* \"SocialMedia.sol\":5441:5465  allFollowing[msg.sender] */\n      dup2\n      mstore\n        /* \"SocialMedia.sol\":5441:5453  allFollowing */\n      0x02\n        /* \"SocialMedia.sol\":5441:5465  allFollowing[msg.sender] */\n      swap1\n      swap2\n      mstore\n      0x40\n      swap1\n      keccak256\n        /* \"SocialMedia.sol\":5441:5471  allFollowing[msg.sender].pop() */\n      dup1\n      sload\n      dup1\n      tag_119\n      jumpi\n      tag_119\n      tag_120\n      jump\t// in\n    tag_119:\n      0x00\n      dup3\n      dup2\n      mstore\n      0x20\n      swap1\n      keccak256\n      dup2\n      add\n      not(0x00)\n      swap1\n      dup2\n      add\n      dup1\n      sload\n      not(sub(shl(0xa0, 0x01), 0x01))\n      and\n      swap1\n      sstore\n      add\n      swap1\n      sstore\n        /* \"SocialMedia.sol\":5490:5495  break */\n      jump(tag_103)\n        /* \"SocialMedia.sol\":5076:5510  if (allFollowing[msg.sender][i] == unfollowAddress) {... */\n    tag_109:\n        /* \"SocialMedia.sol\":5057:5060  i++ */\n      0x01\n      add\n        /* \"SocialMedia.sol\":5000:5520  for (uint256 i = 0; i < allFollowing[msg.sender].length; i++) {... */\n      jump(tag_102)\n    tag_103:\n      pop\n        /* \"SocialMedia.sol\":5602:5611  uint256 i */\n      0x00\n        /* \"SocialMedia.sol\":5597:5990  for (uint256 i = 0; i < allFollowers[unfollowAddress].length; i++) {... */\n    tag_122:\n      sub(shl(0xa0, 0x01), 0x01)\n        /* \"SocialMedia.sol\":5621:5650  allFollowers[unfollowAddress] */\n      dup3\n      and\n      0x00\n      swap1\n      dup2\n      mstore\n        /* \"SocialMedia.sol\":5621:5633  allFollowers */\n      0x03\n        /* \"SocialMedia.sol\":5621:5650  allFollowers[unfollowAddress] */\n      0x20\n      mstore\n      0x40\n      swap1\n      keccak256\n        /* \"SocialMedia.sol\":5621:5657  allFollowers[unfollowAddress].length */\n      sload\n        /* \"SocialMedia.sol\":5617:5657  i < allFollowers[unfollowAddress].length */\n      dup2\n      lt\n        /* \"SocialMedia.sol\":5597:5990  for (uint256 i = 0; i < allFollowers[unfollowAddress].length; i++) {... */\n      iszero\n      tag_123\n      jumpi\n      sub(shl(0xa0, 0x01), 0x01)\n        /* \"SocialMedia.sol\":5682:5711  allFollowers[unfollowAddress] */\n      dup3\n      and\n      0x00\n      swap1\n      dup2\n      mstore\n        /* \"SocialMedia.sol\":5682:5694  allFollowers */\n      0x03\n        /* \"SocialMedia.sol\":5682:5711  allFollowers[unfollowAddress] */\n      0x20\n      mstore\n      0x40\n      swap1\n      keccak256\n        /* \"SocialMedia.sol\":5682:5714  allFollowers[unfollowAddress][i] */\n      dup1\n      sload\n        /* \"SocialMedia.sol\":5718:5728  msg.sender */\n      caller\n      swap2\n        /* \"SocialMedia.sol\":5682:5711  allFollowers[unfollowAddress] */\n      swap1\n        /* \"SocialMedia.sol\":5712:5713  i */\n      dup4\n      swap1\n        /* \"SocialMedia.sol\":5682:5714  allFollowers[unfollowAddress][i] */\n      dup2\n      lt\n      tag_126\n      jumpi\n      tag_126\n      tag_107\n      jump\t// in\n    tag_126:\n      0x00\n      swap2\n      dup3\n      mstore\n      0x20\n      swap1\n      swap2\n      keccak256\n      add\n      sload\n      sub(shl(0xa0, 0x01), 0x01)\n      and\n        /* \"SocialMedia.sol\":5682:5728  allFollowers[unfollowAddress][i] == msg.sender */\n      sub\n        /* \"SocialMedia.sol\":5678:5980  if (allFollowers[unfollowAddress][i] == msg.sender) {... */\n      tag_128\n      jumpi\n      sub(shl(0xa0, 0x01), 0x01)\n        /* \"SocialMedia.sol\":5783:5850  allFollowers[... */\n      dup3\n      and\n      0x00\n      swap1\n      dup2\n      mstore\n        /* \"SocialMedia.sol\":5783:5795  allFollowers */\n      0x03\n        /* \"SocialMedia.sol\":5783:5850  allFollowers[... */\n      0x20\n      mstore\n      0x40\n      swap1\n      keccak256\n        /* \"SocialMedia.sol\":5851:5887  allFollowers[unfollowAddress].length */\n      dup1\n      sload\n        /* \"SocialMedia.sol\":5851:5891  allFollowers[unfollowAddress].length - 1 */\n      tag_129\n      swap1\n        /* \"SocialMedia.sol\":5890:5891  1 */\n      0x01\n      swap1\n        /* \"SocialMedia.sol\":5851:5891  allFollowers[unfollowAddress].length - 1 */\n      tag_111\n      jump\t// in\n    tag_129:\n        /* \"SocialMedia.sol\":5783:5892  allFollowers[... */\n      dup2\n      sload\n      dup2\n      lt\n      tag_131\n      jumpi\n      tag_131\n      tag_107\n      jump\t// in\n    tag_131:\n      0x00\n      swap2\n      dup3\n      mstore\n      0x20\n      dup1\n      dup4\n      keccak256\n      swap1\n      swap2\n      add\n      sload\n      sub(shl(0xa0, 0x01), 0x01)\n        /* \"SocialMedia.sol\":5748:5777  allFollowers[unfollowAddress] */\n      dup6\n      dup2\n      and\n      dup5\n      mstore\n        /* \"SocialMedia.sol\":5748:5760  allFollowers */\n      0x03\n        /* \"SocialMedia.sol\":5748:5777  allFollowers[unfollowAddress] */\n      swap1\n      swap3\n      mstore\n      0x40\n      swap1\n      swap3\n      keccak256\n        /* \"SocialMedia.sol\":5748:5780  allFollowers[unfollowAddress][i] */\n      dup1\n      sload\n        /* \"SocialMedia.sol\":5783:5892  allFollowers[... */\n      swap2\n      swap1\n      swap3\n      and\n      swap2\n        /* \"SocialMedia.sol\":5748:5777  allFollowers[unfollowAddress] */\n      swap1\n        /* \"SocialMedia.sol\":5778:5779  i */\n      dup4\n      swap1\n        /* \"SocialMedia.sol\":5748:5780  allFollowers[unfollowAddress][i] */\n      dup2\n      lt\n      tag_134\n      jumpi\n      tag_134\n      tag_107\n      jump\t// in\n    tag_134:\n      0x00\n      swap2\n      dup3\n      mstore\n      0x20\n      dup1\n      dup4\n      keccak256\n      swap2\n      swap1\n      swap2\n      add\n        /* \"SocialMedia.sol\":5748:5892  allFollowers[unfollowAddress][i] = allFollowers[... */\n      dup1\n      sload\n      not(sub(shl(0xa0, 0x01), 0x01))\n      and\n      sub(shl(0xa0, 0x01), 0x01)\n      swap5\n      swap1\n      swap5\n      and\n      swap4\n      swap1\n      swap4\n      or\n      swap1\n      swap3\n      sstore\n        /* \"SocialMedia.sol\":5924:5934  msg.sender */\n      caller\n        /* \"SocialMedia.sol\":5911:5935  allFollowers[msg.sender] */\n      dup2\n      mstore\n        /* \"SocialMedia.sol\":5911:5923  allFollowers */\n      0x03\n        /* \"SocialMedia.sol\":5911:5935  allFollowers[msg.sender] */\n      swap1\n      swap2\n      mstore\n      0x40\n      swap1\n      keccak256\n        /* \"SocialMedia.sol\":5911:5941  allFollowers[msg.sender].pop() */\n      dup1\n      sload\n      dup1\n      tag_137\n      jumpi\n      tag_137\n      tag_120\n      jump\t// in\n    tag_137:\n      0x00\n      dup3\n      dup2\n      mstore\n      0x20\n      swap1\n      keccak256\n      dup2\n      add\n      not(0x00)\n      swap1\n      dup2\n      add\n      dup1\n      sload\n      not(sub(shl(0xa0, 0x01), 0x01))\n      and\n      swap1\n      sstore\n      add\n      swap1\n      sstore\n        /* \"SocialMedia.sol\":5960:5965  break */\n      jump(tag_123)\n        /* \"SocialMedia.sol\":5678:5980  if (allFollowers[unfollowAddress][i] == msg.sender) {... */\n    tag_128:\n        /* \"SocialMedia.sol\":5659:5662  i++ */\n      0x01\n      add\n        /* \"SocialMedia.sol\":5597:5990  for (uint256 i = 0; i < allFollowers[unfollowAddress].length; i++) {... */\n      jump(tag_122)\n    tag_123:\n      pop\n        /* \"SocialMedia.sol\":6005:6050  followingUpdated(msg.sender, unfollowAddress) */\n      mload(0x40)\n      sub(shl(0xa0, 0x01), 0x01)\n      dup3\n      and\n      swap1\n        /* \"SocialMedia.sol\":6022:6032  msg.sender */\n      caller\n      swap1\n        /* \"SocialMedia.sol\":6005:6050  followingUpdated(msg.sender, unfollowAddress) */\n      0xc4fcf85d2922021be4b25fb2740aac325249759a5495c3cc208c7b263c0d78e1\n      swap1\n      0x00\n      swap1\n      log3\n        /* \"SocialMedia.sol\":6065:6109  followerUpdated(unfollowAddress, msg.sender) */\n      mload(0x40)\n        /* \"SocialMedia.sol\":6098:6108  msg.sender */\n      caller\n      swap1\n      sub(shl(0xa0, 0x01), 0x01)\n        /* \"SocialMedia.sol\":6065:6109  followerUpdated(unfollowAddress, msg.sender) */\n      dup4\n      and\n      swap1\n      0xfeb001297b1ccaccd4da3c424a5e14e436657829595d94fb7e24dd770af35fe3\n      swap1\n      0x00\n      swap1\n      log3\n        /* \"SocialMedia.sol\":4338:6116  function unfollow(address unfollowAddress) external {... */\n      pop\n      jump\t// out\n        /* \"SocialMedia.sol\":6122:6409  function addLikes(address postAddress, uint256 _postId) external {... */\n    tag_29:\n        /* \"SocialMedia.sol\":6218:6228  msg.sender */\n      caller\n        /* \"SocialMedia.sol\":6205:6217  user_profile */\n      0x00\n        /* \"SocialMedia.sol\":6205:6229  user_profile[msg.sender] */\n      swap1\n      dup2\n      mstore\n      0x20\n      dup2\n      swap1\n      mstore\n      0x40\n      swap1\n      keccak256\n        /* \"SocialMedia.sol\":6205:6240  user_profile[msg.sender].isRegister */\n      0x06\n      add\n      sload\n      0xff\n      and\n        /* \"SocialMedia.sol\":6197:6241  require(user_profile[msg.sender].isRegister) */\n      tag_140\n      jumpi\n      0x00\n      dup1\n      revert\n    tag_140:\n      sub(shl(0xa0, 0x01), 0x01)\n        /* \"SocialMedia.sol\":6260:6278  posts[postAddress] */\n      dup3\n      and\n        /* \"SocialMedia.sol\":6288:6289  0 */\n      0x00\n        /* \"SocialMedia.sol\":6260:6278  posts[postAddress] */\n      swap1\n      dup2\n      mstore\n        /* \"SocialMedia.sol\":6260:6265  posts */\n      0x04\n        /* \"SocialMedia.sol\":6260:6278  posts[postAddress] */\n      0x20\n      mstore\n      0x40\n      swap1\n      keccak256\n        /* \"SocialMedia.sol\":6260:6285  posts[postAddress].length */\n      sload\n        /* \"SocialMedia.sol\":6252:6322  require(posts[postAddress].length > 0, \"you have not posted anything\") */\n      tag_141\n      jumpi\n      mload(0x40)\n      shl(0xe5, 0x461bcd)\n      dup2\n      mstore\n        /* \"#utility.yul\":7991:7993   */\n      0x20\n        /* \"SocialMedia.sol\":6252:6322  require(posts[postAddress].length > 0, \"you have not posted anything\") */\n      0x04\n      dup3\n      add\n        /* \"#utility.yul\":7973:7994   */\n      mstore\n        /* \"#utility.yul\":8030:8032   */\n      0x1c\n        /* \"#utility.yul\":8010:8028   */\n      0x24\n      dup3\n      add\n        /* \"#utility.yul\":8003:8033   */\n      mstore\n        /* \"#utility.yul\":8069:8099   */\n      0x796f752068617665206e6f7420706f7374656420616e797468696e6700000000\n        /* \"#utility.yul\":8049:8067   */\n      0x44\n      dup3\n      add\n        /* \"#utility.yul\":8042:8100   */\n      mstore\n        /* \"#utility.yul\":8117:8135   */\n      0x64\n      add\n        /* \"SocialMedia.sol\":6252:6322  require(posts[postAddress].length > 0, \"you have not posted anything\") */\n      tag_97\n        /* \"#utility.yul\":7789:8141   */\n      jump\n        /* \"SocialMedia.sol\":6252:6322  require(posts[postAddress].length > 0, \"you have not posted anything\") */\n    tag_141:\n      sub(shl(0xa0, 0x01), 0x01)\n        /* \"SocialMedia.sol\":6351:6369  posts[postAddress] */\n      dup3\n      and\n        /* \"SocialMedia.sol\":6332:6348  Post[] storage p */\n      0x00\n        /* \"SocialMedia.sol\":6351:6369  posts[postAddress] */\n      swap1\n      dup2\n      mstore\n        /* \"SocialMedia.sol\":6351:6356  posts */\n      0x04\n        /* \"SocialMedia.sol\":6351:6369  posts[postAddress] */\n      0x20\n      mstore\n      0x40\n      swap1\n      keccak256\n        /* \"SocialMedia.sol\":6379:6389  p[_postId] */\n      dup1\n      sload\n        /* \"SocialMedia.sol\":6351:6369  posts[postAddress] */\n      dup2\n      swap1\n        /* \"SocialMedia.sol\":6381:6388  _postId */\n      dup4\n      swap1\n        /* \"SocialMedia.sol\":6379:6389  p[_postId] */\n      dup2\n      lt\n      tag_145\n      jumpi\n      tag_145\n      tag_107\n      jump\t// in\n    tag_145:\n      0x00\n      swap2\n      dup3\n      mstore\n      0x20\n      dup3\n      keccak256\n        /* \"SocialMedia.sol\":6379:6400  p[_postId].likesCount */\n      0x02\n        /* \"SocialMedia.sol\":6379:6389  p[_postId] */\n      0x04\n      swap1\n      swap3\n      mul\n      add\n        /* \"SocialMedia.sol\":6379:6400  p[_postId].likesCount */\n      add\n        /* \"SocialMedia.sol\":6379:6402  p[_postId].likesCount++ */\n      dup1\n      sload\n      swap2\n      tag_147\n      dup4\n      tag_148\n      jump\t// in\n    tag_147:\n      swap2\n      swap1\n      pop\n      sstore\n      pop\n        /* \"SocialMedia.sol\":6187:6409  {... */\n      pop\n        /* \"SocialMedia.sol\":6122:6409  function addLikes(address postAddress, uint256 _postId) external {... */\n      pop\n      pop\n      jump\t// out\n        /* \"SocialMedia.sol\":804:848  mapping(address => User) public user_profile */\n    tag_32:\n      0x00\n      0x20\n      dup2\n      swap1\n      mstore\n      swap1\n      dup2\n      mstore\n      0x40\n      swap1\n      keccak256\n      dup1\n      sload\n      0x01\n      dup3\n      add\n      dup1\n      sload\n      sub(shl(0xa0, 0x01), 0x01)\n      swap1\n      swap3\n      and\n      swap3\n      swap2\n      tag_149\n      swap1\n      tag_150\n      jump\t// in\n    tag_149:\n      dup1\n      0x1f\n      add\n      0x20\n      dup1\n      swap2\n      div\n      mul\n      0x20\n      add\n      mload(0x40)\n      swap1\n      dup2\n      add\n      0x40\n      mstore\n      dup1\n      swap3\n      swap2\n      swap1\n      dup2\n      dup2\n      mstore\n      0x20\n      add\n      dup3\n      dup1\n      sload\n      tag_151\n      swap1\n      tag_150\n      jump\t// in\n    tag_151:\n      dup1\n      iszero\n      tag_152\n      jumpi\n      dup1\n      0x1f\n      lt\n      tag_153\n      jumpi\n      0x0100\n      dup1\n      dup4\n      sload\n      div\n      mul\n      dup4\n      mstore\n      swap2\n      0x20\n      add\n      swap2\n      jump(tag_152)\n    tag_153:\n      dup3\n      add\n      swap2\n      swap1\n      0x00\n      mstore\n      keccak256(0x00, 0x20)\n      swap1\n    tag_154:\n      dup2\n      sload\n      dup2\n      mstore\n      swap1\n      0x01\n      add\n      swap1\n      0x20\n      add\n      dup1\n      dup4\n      gt\n      tag_154\n      jumpi\n      dup3\n      swap1\n      sub\n      0x1f\n      and\n      dup3\n      add\n      swap2\n    tag_152:\n      pop\n      pop\n      pop\n      pop\n      pop\n      swap1\n      dup1\n      0x02\n      add\n      dup1\n      sload\n      tag_155\n      swap1\n      tag_150\n      jump\t// in\n    tag_155:\n      dup1\n      0x1f\n      add\n      0x20\n      dup1\n      swap2\n      div\n      mul\n      0x20\n      add\n      mload(0x40)\n      swap1\n      dup2\n      add\n      0x40\n      mstore\n      dup1\n      swap3\n      swap2\n      swap1\n      dup2\n      dup2\n      mstore\n      0x20\n      add\n      dup3\n      dup1\n      sload\n      tag_156\n      swap1\n      tag_150\n      jump\t// in\n    tag_156:\n      dup1\n      iszero\n      tag_157\n      jumpi\n      dup1\n      0x1f\n      lt\n      tag_158\n      jumpi\n      0x0100\n      dup1\n      dup4\n      sload\n      div\n      mul\n      dup4\n      mstore\n      swap2\n      0x20\n      add\n      swap2\n      jump(tag_157)\n    tag_158:\n      dup3\n      add\n      swap2\n      swap1\n      0x00\n      mstore\n      keccak256(0x00, 0x20)\n      swap1\n    tag_159:\n      dup2\n      sload\n      dup2\n      mstore\n      swap1\n      0x01\n      add\n      swap1\n      0x20\n      add\n      dup1\n      dup4\n      gt\n      tag_159\n      jumpi\n      dup3\n      swap1\n      sub\n      0x1f\n      and\n      dup3\n      add\n      swap2\n    tag_157:\n      pop\n      pop\n      pop\n      pop\n      0x03\n      dup4\n      add\n      sload\n      0x04\n      dup5\n      add\n      sload\n      0x05\n      dup6\n      add\n      sload\n      0x06\n      swap1\n      swap6\n      add\n      sload\n      swap4\n      swap5\n      swap2\n      swap4\n      swap1\n      swap3\n      pop\n      0xff\n      and\n      dup8\n      jump\t// out\n        /* \"SocialMedia.sol\":6415:6528  function getAllRegisteredUsers() external view returns (address[] memory) {... */\n    tag_36:\n        /* \"SocialMedia.sol\":6471:6487  address[] memory */\n      0x60\n        /* \"SocialMedia.sol\":6506:6521  registeredUsers */\n      0x01\n        /* \"SocialMedia.sol\":6499:6521  return registeredUsers */\n      dup1\n      sload\n      dup1\n      0x20\n      mul\n      0x20\n      add\n      mload(0x40)\n      swap1\n      dup2\n      add\n      0x40\n      mstore\n      dup1\n      swap3\n      swap2\n      swap1\n      dup2\n      dup2\n      mstore\n      0x20\n      add\n      dup3\n      dup1\n      sload\n      dup1\n      iszero\n      tag_161\n      jumpi\n      0x20\n      mul\n      dup3\n      add\n      swap2\n      swap1\n      0x00\n      mstore\n      keccak256(0x00, 0x20)\n      swap1\n    tag_162:\n      dup2\n      sload\n      sub(shl(0xa0, 0x01), 0x01)\n      and\n      dup2\n      mstore\n      0x01\n      swap1\n      swap2\n      add\n      swap1\n      0x20\n      add\n      dup1\n      dup4\n      gt\n      tag_162\n      jumpi\n    tag_161:\n      pop\n      pop\n      pop\n      pop\n      pop\n      swap1\n      pop\n        /* \"SocialMedia.sol\":6415:6528  function getAllRegisteredUsers() external view returns (address[] memory) {... */\n      swap1\n      jump\t// out\n        /* \"SocialMedia.sol\":1257:1917  function register(string memory bio, string memory username) external {... */\n    tag_42:\n        /* \"SocialMedia.sol\":1418:1428  msg.sender */\n      caller\n        /* \"SocialMedia.sol\":1405:1417  user_profile */\n      0x00\n        /* \"SocialMedia.sol\":1405:1429  user_profile[msg.sender] */\n      swap1\n      dup2\n      mstore\n      0x20\n      dup2\n      swap1\n      mstore\n      0x40\n      swap1\n      keccak256\n        /* \"SocialMedia.sol\":1405:1440  user_profile[msg.sender].isRegister */\n      0x06\n      add\n      sload\n      0xff\n      and\n        /* \"SocialMedia.sol\":1404:1440  !user_profile[msg.sender].isRegister */\n      iszero\n        /* \"SocialMedia.sol\":1383:1490  require(... */\n      tag_164\n      jumpi\n      mload(0x40)\n      shl(0xe5, 0x461bcd)\n      dup2\n      mstore\n        /* \"#utility.yul\":8873:8875   */\n      0x20\n        /* \"SocialMedia.sol\":1383:1490  require(... */\n      0x04\n      dup3\n      add\n        /* \"#utility.yul\":8855:8876   */\n      mstore\n        /* \"#utility.yul\":8912:8914   */\n      0x18\n        /* \"#utility.yul\":8892:8910   */\n      0x24\n      dup3\n      add\n        /* \"#utility.yul\":8885:8915   */\n      mstore\n        /* \"#utility.yul\":8951:8977   */\n      0x5573657220697320416c72656164792052656769737465720000000000000000\n        /* \"#utility.yul\":8931:8949   */\n      0x44\n      dup3\n      add\n        /* \"#utility.yul\":8924:8978   */\n      mstore\n        /* \"#utility.yul\":8995:9013   */\n      0x64\n      add\n        /* \"SocialMedia.sol\":1383:1490  require(... */\n      tag_97\n        /* \"#utility.yul\":8671:9019   */\n      jump\n        /* \"SocialMedia.sol\":1383:1490  require(... */\n    tag_164:\n        /* \"SocialMedia.sol\":1533:1534  0 */\n      0x00\n        /* \"SocialMedia.sol\":1514:1522  username */\n      dup2\n        /* \"SocialMedia.sol\":1508:1530  bytes(username).length */\n      mload\n        /* \"SocialMedia.sol\":1508:1534  bytes(username).length > 0 */\n      gt\n        /* \"SocialMedia.sol\":1500:1564  require(bytes(username).length > 0, \"username can not be empty\") */\n      tag_167\n      jumpi\n      mload(0x40)\n      shl(0xe5, 0x461bcd)\n      dup2\n      mstore\n        /* \"#utility.yul\":9226:9228   */\n      0x20\n        /* \"SocialMedia.sol\":1500:1564  require(bytes(username).length > 0, \"username can not be empty\") */\n      0x04\n      dup3\n      add\n        /* \"#utility.yul\":9208:9229   */\n      mstore\n        /* \"#utility.yul\":9265:9267   */\n      0x19\n        /* \"#utility.yul\":9245:9263   */\n      0x24\n      dup3\n      add\n        /* \"#utility.yul\":9238:9268   */\n      mstore\n        /* \"#utility.yul\":9304:9331   */\n      0x757365726e616d652063616e206e6f7420626520656d70747900000000000000\n        /* \"#utility.yul\":9284:9302   */\n      0x44\n      dup3\n      add\n        /* \"#utility.yul\":9277:9332   */\n      mstore\n        /* \"#utility.yul\":9349:9367   */\n      0x64\n      add\n        /* \"SocialMedia.sol\":1500:1564  require(bytes(username).length > 0, \"username can not be empty\") */\n      tag_97\n        /* \"#utility.yul\":9024:9373   */\n      jump\n        /* \"SocialMedia.sol\":1500:1564  require(bytes(username).length > 0, \"username can not be empty\") */\n    tag_167:\n        /* \"SocialMedia.sol\":1602:1816  User({... */\n      0x40\n      dup1\n      mload\n      0xe0\n      dup2\n      add\n      dup3\n      mstore\n        /* \"SocialMedia.sol\":1634:1644  msg.sender */\n      caller\n        /* \"SocialMedia.sol\":1602:1816  User({... */\n      dup1\n      dup3\n      mstore\n      0x20\n      dup1\n      dup4\n      add\n      dup6\n      dup2\n      mstore\n      dup4\n      dup6\n      add\n      dup8\n      swap1\n      mstore\n      0x00\n      0x60\n      dup6\n      add\n      dup2\n      swap1\n      mstore\n      0x80\n      dup6\n      add\n      dup2\n      swap1\n      mstore\n      0xa0\n      dup6\n      add\n      dup2\n      swap1\n      mstore\n        /* \"SocialMedia.sol\":1801:1805  true */\n      0x01\n        /* \"SocialMedia.sol\":1602:1816  User({... */\n      0xc0\n      dup7\n      add\n      dup2\n      swap1\n      mstore\n        /* \"SocialMedia.sol\":1575:1599  user_profile[msg.sender] */\n      swap4\n      dup2\n      mstore\n      swap2\n      dup3\n      swap1\n      mstore\n      swap4\n      swap1\n      keccak256\n        /* \"SocialMedia.sol\":1575:1816  user_profile[msg.sender] = User({... */\n      dup3\n      mload\n      dup2\n      sload\n      not(sub(shl(0xa0, 0x01), 0x01))\n      and\n      sub(shl(0xa0, 0x01), 0x01)\n      swap1\n      swap2\n      and\n      or\n      dup2\n      sstore\n      swap3\n      mload\n        /* \"SocialMedia.sol\":1602:1816  User({... */\n      swap2\n      swap3\n        /* \"SocialMedia.sol\":1575:1599  user_profile[msg.sender] */\n      swap2\n        /* \"SocialMedia.sol\":1575:1816  user_profile[msg.sender] = User({... */\n      swap1\n      dup3\n      add\n      swap1\n      tag_170\n      swap1\n      dup3\n      tag_171\n      jump\t// in\n    tag_170:\n      pop\n      0x40\n      dup3\n      add\n      mload\n      0x02\n      dup3\n      add\n      swap1\n      tag_172\n      swap1\n      dup3\n      tag_171\n      jump\t// in\n    tag_172:\n      pop\n      0x60\n      dup3\n      add\n      mload\n      0x03\n      dup3\n      add\n      sstore\n      0x80\n      dup3\n      add\n      mload\n      0x04\n      dup3\n      add\n      sstore\n      0xa0\n      dup3\n      add\n      mload\n      0x05\n      dup3\n      add\n      sstore\n      0xc0\n      swap1\n      swap2\n      add\n      mload\n      0x06\n      swap1\n      swap2\n      add\n      dup1\n      sload\n      not(0xff)\n      and\n      swap2\n      iszero\n      iszero\n      swap2\n      swap1\n      swap2\n      or\n      swap1\n      sstore\n      0x01\n        /* \"SocialMedia.sol\":1826:1858  registeredUsers.push(msg.sender) */\n      dup1\n      sload\n      dup1\n      dup3\n      add\n      dup3\n      sstore\n      0x00\n      swap2\n      swap1\n      swap2\n      mstore\n      0xb10e2d527612073b26eecdfd717e6a320cf44b4afac2b0732d9fcbe2b7fa0cf6\n      add\n      dup1\n      sload\n        /* \"SocialMedia.sol\":1847:1857  msg.sender */\n      caller\n      not(sub(shl(0xa0, 0x01), 0x01))\n        /* \"SocialMedia.sol\":1826:1858  registeredUsers.push(msg.sender) */\n      swap1\n      swap2\n      and\n      dup2\n      or\n      swap1\n      swap2\n      sstore\n        /* \"SocialMedia.sol\":1873:1910  newUserRegister(msg.sender, username) */\n      mload(0x40)\n      0xb9e8b87f353953f556f9fe29e669e0cb209df2b1ad6dbd89eec993e0e60b5dea\n      swap1\n      tag_174\n      swap1\n        /* \"SocialMedia.sol\":1901:1909  username */\n      dup5\n      swap1\n        /* \"SocialMedia.sol\":1873:1910  newUserRegister(msg.sender, username) */\n      tag_175\n      jump\t// in\n    tag_174:\n      mload(0x40)\n      dup1\n      swap2\n      sub\n      swap1\n      log2\n        /* \"SocialMedia.sol\":1257:1917  function register(string memory bio, string memory username) external {... */\n      pop\n      pop\n      jump\t// out\n        /* \"SocialMedia.sol\":3386:4283  function follow(address friendAddress) external {... */\n    tag_45:\n        /* \"SocialMedia.sol\":3465:3475  msg.sender */\n      caller\n        /* \"SocialMedia.sol\":3452:3464  user_profile */\n      0x00\n        /* \"SocialMedia.sol\":3452:3476  user_profile[msg.sender] */\n      swap1\n      dup2\n      mstore\n      0x20\n      dup2\n      swap1\n      mstore\n      0x40\n      swap1\n      keccak256\n        /* \"SocialMedia.sol\":3452:3487  user_profile[msg.sender].isRegister */\n      0x06\n      add\n      sload\n      0xff\n      and\n        /* \"SocialMedia.sol\":3444:3514  require(user_profile[msg.sender].isRegister, \"you are not registerer\") */\n      tag_177\n      jumpi\n      mload(0x40)\n      shl(0xe5, 0x461bcd)\n      dup2\n      mstore\n        /* \"#utility.yul\":11975:11977   */\n      0x20\n        /* \"SocialMedia.sol\":3444:3514  require(user_profile[msg.sender].isRegister, \"you are not registerer\") */\n      0x04\n      dup3\n      add\n        /* \"#utility.yul\":11957:11978   */\n      mstore\n        /* \"#utility.yul\":12014:12016   */\n      0x16\n        /* \"#utility.yul\":11994:12012   */\n      0x24\n      dup3\n      add\n        /* \"#utility.yul\":11987:12017   */\n      mstore\n      shl(0x51, 0x3cb7ba9030b932903737ba103932b3b4b9ba32b932b9)\n        /* \"#utility.yul\":12033:12051   */\n      0x44\n      dup3\n      add\n        /* \"#utility.yul\":12026:12078   */\n      mstore\n        /* \"#utility.yul\":12095:12113   */\n      0x64\n      add\n        /* \"SocialMedia.sol\":3444:3514  require(user_profile[msg.sender].isRegister, \"you are not registerer\") */\n      tag_97\n        /* \"#utility.yul\":11773:12119   */\n      jump\n        /* \"SocialMedia.sol\":3444:3514  require(user_profile[msg.sender].isRegister, \"you are not registerer\") */\n    tag_177:\n      sub(shl(0xa0, 0x01), 0x01)\n        /* \"SocialMedia.sol\":3545:3572  user_profile[friendAddress] */\n      dup2\n      and\n        /* \"SocialMedia.sol\":3545:3557  user_profile */\n      0x00\n        /* \"SocialMedia.sol\":3545:3572  user_profile[friendAddress] */\n      swap1\n      dup2\n      mstore\n      0x20\n      dup2\n      swap1\n      mstore\n      0x40\n      swap1\n      keccak256\n        /* \"SocialMedia.sol\":3545:3583  user_profile[friendAddress].isRegister */\n      0x06\n      add\n      sload\n      0xff\n      and\n      dup1\n        /* \"SocialMedia.sol\":3545:3630  user_profile[friendAddress].isRegister ||... */\n      tag_180\n      jumpi\n      pop\n      sub(shl(0xa0, 0x01), 0x01)\n        /* \"SocialMedia.sol\":3603:3630  friendAddress != address(0) */\n      dup2\n      and\n      iszero\n      iszero\n        /* \"SocialMedia.sol\":3545:3630  user_profile[friendAddress].isRegister ||... */\n    tag_180:\n        /* \"SocialMedia.sol\":3524:3687  require(... */\n      tag_181\n      jumpi\n      mload(0x40)\n      shl(0xe5, 0x461bcd)\n      dup2\n      mstore\n        /* \"#utility.yul\":12326:12328   */\n      0x20\n        /* \"SocialMedia.sol\":3524:3687  require(... */\n      0x04\n      dup3\n      add\n        /* \"#utility.yul\":12308:12329   */\n      mstore\n        /* \"#utility.yul\":12365:12367   */\n      0x1f\n        /* \"#utility.yul\":12345:12363   */\n      0x24\n      dup3\n      add\n        /* \"#utility.yul\":12338:12368   */\n      mstore\n        /* \"#utility.yul\":12404:12437   */\n      0x596f7520667269656e642061646472657373206973206e6f742076616c696400\n        /* \"#utility.yul\":12384:12402   */\n      0x44\n      dup3\n      add\n        /* \"#utility.yul\":12377:12438   */\n      mstore\n        /* \"#utility.yul\":12455:12473   */\n      0x64\n      add\n        /* \"SocialMedia.sol\":3524:3687  require(... */\n      tag_97\n        /* \"#utility.yul\":12124:12479   */\n      jump\n        /* \"SocialMedia.sol\":3524:3687  require(... */\n    tag_181:\n        /* \"SocialMedia.sol\":3723:3733  msg.sender */\n      caller\n      sub(shl(0xa0, 0x01), 0x01)\n        /* \"SocialMedia.sol\":3706:3733  friendAddress != msg.sender */\n      dup3\n      and\n      sub\n        /* \"SocialMedia.sol\":3698:3762  require(friendAddress != msg.sender, \"you cant follow yourself\") */\n      tag_184\n      jumpi\n      mload(0x40)\n      shl(0xe5, 0x461bcd)\n      dup2\n      mstore\n        /* \"#utility.yul\":12686:12688   */\n      0x20\n        /* \"SocialMedia.sol\":3698:3762  require(friendAddress != msg.sender, \"you cant follow yourself\") */\n      0x04\n      dup3\n      add\n        /* \"#utility.yul\":12668:12689   */\n      mstore\n        /* \"#utility.yul\":12725:12727   */\n      0x18\n        /* \"#utility.yul\":12705:12723   */\n      0x24\n      dup3\n      add\n        /* \"#utility.yul\":12698:12728   */\n      mstore\n        /* \"#utility.yul\":12764:12790   */\n      0x796f752063616e7420666f6c6c6f7720796f757273656c660000000000000000\n        /* \"#utility.yul\":12744:12762   */\n      0x44\n      dup3\n      add\n        /* \"#utility.yul\":12737:12791   */\n      mstore\n        /* \"#utility.yul\":12808:12826   */\n      0x64\n      add\n        /* \"SocialMedia.sol\":3698:3762  require(friendAddress != msg.sender, \"you cant follow yourself\") */\n      tag_97\n        /* \"#utility.yul\":12484:12832   */\n      jump\n        /* \"SocialMedia.sol\":3698:3762  require(friendAddress != msg.sender, \"you cant follow yourself\") */\n    tag_184:\n        /* \"SocialMedia.sol\":3805:3815  msg.sender */\n      caller\n        /* \"SocialMedia.sol\":3793:3816  isFollowing[msg.sender] */\n      0x00\n      swap1\n      dup2\n      mstore\n        /* \"SocialMedia.sol\":3793:3804  isFollowing */\n      0x05\n        /* \"SocialMedia.sol\":3793:3816  isFollowing[msg.sender] */\n      0x20\n      swap1\n      dup2\n      mstore\n      0x40\n      dup1\n      dup4\n      keccak256\n      sub(shl(0xa0, 0x01), 0x01)\n        /* \"SocialMedia.sol\":3793:3831  isFollowing[msg.sender][friendAddress] */\n      dup6\n      and\n      dup5\n      mstore\n      swap1\n      swap2\n      mstore\n      swap1\n      keccak256\n      sload\n      0xff\n      and\n        /* \"SocialMedia.sol\":3793:3840  isFollowing[msg.sender][friendAddress] == false */\n      iszero\n        /* \"SocialMedia.sol\":3772:3901  require(... */\n      tag_187\n      jumpi\n      mload(0x40)\n      shl(0xe5, 0x461bcd)\n      dup2\n      mstore\n        /* \"#utility.yul\":13039:13041   */\n      0x20\n        /* \"SocialMedia.sol\":3772:3901  require(... */\n      0x04\n      dup3\n      add\n        /* \"#utility.yul\":13021:13042   */\n      mstore\n        /* \"#utility.yul\":13078:13080   */\n      0x23\n        /* \"#utility.yul\":13058:13076   */\n      0x24\n      dup3\n      add\n        /* \"#utility.yul\":13051:13081   */\n      mstore\n        /* \"#utility.yul\":13117:13151   */\n      0x796f752061726520616c726561647920666f6c6c6f77696e6720746869732075\n        /* \"#utility.yul\":13097:13115   */\n      0x44\n      dup3\n      add\n        /* \"#utility.yul\":13090:13152   */\n      mstore\n      shl(0xe9, 0x39b2b9)\n        /* \"#utility.yul\":13168:13186   */\n      0x64\n      dup3\n      add\n        /* \"#utility.yul\":13161:13194   */\n      mstore\n        /* \"#utility.yul\":13211:13230   */\n      0x84\n      add\n        /* \"SocialMedia.sol\":3772:3901  require(... */\n      tag_97\n        /* \"#utility.yul\":12837:13236   */\n      jump\n        /* \"SocialMedia.sol\":3772:3901  require(... */\n    tag_187:\n      sub(shl(0xa0, 0x01), 0x01)\n        /* \"SocialMedia.sol\":3912:3939  user_profile[friendAddress] */\n      dup2\n      and\n        /* \"SocialMedia.sol\":3912:3924  user_profile */\n      0x00\n        /* \"SocialMedia.sol\":3912:3939  user_profile[friendAddress] */\n      swap1\n      dup2\n      mstore\n      0x20\n      dup2\n      swap1\n      mstore\n      0x40\n      dup2\n      keccak256\n        /* \"SocialMedia.sol\":3912:3948  user_profile[friendAddress].follower */\n      0x03\n      add\n        /* \"SocialMedia.sol\":3912:3950  user_profile[friendAddress].follower++ */\n      dup1\n      sload\n      swap2\n      tag_190\n      dup4\n      tag_148\n      jump\t// in\n    tag_190:\n      swap1\n      swap2\n      sstore\n      pop\n      pop\n        /* \"SocialMedia.sol\":3973:3983  msg.sender */\n      caller\n        /* \"SocialMedia.sol\":3960:3972  user_profile */\n      0x00\n        /* \"SocialMedia.sol\":3960:3984  user_profile[msg.sender] */\n      swap1\n      dup2\n      mstore\n      0x20\n      dup2\n      swap1\n      mstore\n      0x40\n      dup2\n      keccak256\n        /* \"SocialMedia.sol\":3960:3994  user_profile[msg.sender].following */\n      0x04\n      add\n        /* \"SocialMedia.sol\":3960:3996  user_profile[msg.sender].following++ */\n      dup1\n      sload\n      swap2\n      tag_191\n      dup4\n      tag_148\n      jump\t// in\n    tag_191:\n      swap1\n      swap2\n      sstore\n      pop\n      pop\n        /* \"SocialMedia.sol\":4019:4029  msg.sender */\n      caller\n        /* \"SocialMedia.sol\":4006:4030  allFollowing[msg.sender] */\n      0x00\n      dup2\n      dup2\n      mstore\n        /* \"SocialMedia.sol\":4006:4018  allFollowing */\n      0x02\n        /* \"SocialMedia.sol\":4006:4030  allFollowing[msg.sender] */\n      0x20\n      swap1\n      dup2\n      mstore\n      0x40\n      dup1\n      dup4\n      keccak256\n        /* \"SocialMedia.sol\":4006:4050  allFollowing[msg.sender].push(friendAddress) */\n      dup1\n      sload\n      0x01\n      dup2\n      dup2\n      add\n      dup4\n      sstore\n      swap2\n      dup6\n      mstore\n      dup4\n      dup6\n      keccak256\n      add\n      dup1\n      sload\n      sub(shl(0xa0, 0x01), 0x01)\n      dup9\n      and\n      not(sub(shl(0xa0, 0x01), 0x01))\n      swap2\n      dup3\n      and\n      dup2\n      or\n      swap1\n      swap3\n      sstore\n        /* \"SocialMedia.sol\":4060:4087  allFollowers[friendAddress] */\n      dup2\n      dup7\n      mstore\n        /* \"SocialMedia.sol\":4060:4072  allFollowers */\n      0x03\n        /* \"SocialMedia.sol\":4060:4087  allFollowers[friendAddress] */\n      dup6\n      mstore\n      dup4\n      dup7\n      keccak256\n        /* \"SocialMedia.sol\":4060:4104  allFollowers[friendAddress].push(msg.sender) */\n      dup1\n      sload\n      dup1\n      dup6\n      add\n      dup3\n      sstore\n      swap1\n      dup8\n      mstore\n      dup6\n      dup8\n      keccak256\n      add\n      dup1\n      sload\n      swap1\n      swap2\n      and\n      dup8\n      or\n      swap1\n      sstore\n        /* \"SocialMedia.sol\":4115:4138  isFollowing[msg.sender] */\n      dup6\n      dup6\n      mstore\n        /* \"SocialMedia.sol\":4115:4126  isFollowing */\n      0x05\n        /* \"SocialMedia.sol\":4115:4138  isFollowing[msg.sender] */\n      dup5\n      mstore\n      dup3\n      dup6\n      keccak256\n        /* \"SocialMedia.sol\":4115:4153  isFollowing[msg.sender][friendAddress] */\n      dup2\n      dup7\n      mstore\n      swap1\n      swap4\n      mstore\n      dup2\n      dup5\n      keccak256\n        /* \"SocialMedia.sol\":4115:4160  isFollowing[msg.sender][friendAddress] = true */\n      dup1\n      sload\n      not(0xff)\n      and\n      swap1\n      swap2\n      or\n      swap1\n      sstore\n        /* \"SocialMedia.sol\":4176:4219  followingUpdated(msg.sender, friendAddress) */\n      mload\n        /* \"SocialMedia.sol\":4006:4050  allFollowing[msg.sender].push(friendAddress) */\n      swap1\n      swap3\n        /* \"SocialMedia.sol\":4019:4029  msg.sender */\n      swap2\n        /* \"SocialMedia.sol\":4176:4219  followingUpdated(msg.sender, friendAddress) */\n      0xc4fcf85d2922021be4b25fb2740aac325249759a5495c3cc208c7b263c0d78e1\n      swap2\n      log3\n        /* \"SocialMedia.sol\":4234:4276  followerUpdated(friendAddress, msg.sender) */\n      mload(0x40)\n        /* \"SocialMedia.sol\":4265:4275  msg.sender */\n      caller\n      swap1\n      sub(shl(0xa0, 0x01), 0x01)\n        /* \"SocialMedia.sol\":4234:4276  followerUpdated(friendAddress, msg.sender) */\n      dup4\n      and\n      swap1\n      0xfeb001297b1ccaccd4da3c424a5e14e436657829595d94fb7e24dd770af35fe3\n      swap1\n      0x00\n      swap1\n      log3\n        /* \"SocialMedia.sol\":3386:4283  function follow(address friendAddress) external {... */\n      pop\n      jump\t// out\n        /* \"SocialMedia.sol\":1003:1042  mapping(address => Post[]) public posts */\n    tag_48:\n      mstore(0x20, 0x04)\n      dup2\n      0x00\n      mstore\n      keccak256(0x00, 0x40)\n      dup2\n      dup2\n      sload\n      dup2\n      lt\n      tag_194\n      jumpi\n      0x00\n      dup1\n      revert\n    tag_194:\n      swap1\n      0x00\n      mstore\n      keccak256(0x00, 0x20)\n      swap1\n      0x04\n      mul\n      add\n      0x00\n      swap2\n      pop\n      swap2\n      pop\n      pop\n      dup1\n      0x00\n      add\n      sload\n      swap1\n      dup1\n      0x01\n      add\n      dup1\n      sload\n      tag_196\n      swap1\n      tag_150\n      jump\t// in\n    tag_196:\n      dup1\n      0x1f\n      add\n      0x20\n      dup1\n      swap2\n      div\n      mul\n      0x20\n      add\n      mload(0x40)\n      swap1\n      dup2\n      add\n      0x40\n      mstore\n      dup1\n      swap3\n      swap2\n      swap1\n      dup2\n      dup2\n      mstore\n      0x20\n      add\n      dup3\n      dup1\n      sload\n      tag_197\n      swap1\n      tag_150\n      jump\t// in\n    tag_197:\n      dup1\n      iszero\n      tag_198\n      jumpi\n      dup1\n      0x1f\n      lt\n      tag_199\n      jumpi\n      0x0100\n      dup1\n      dup4\n      sload\n      div\n      mul\n      dup4\n      mstore\n      swap2\n      0x20\n      add\n      swap2\n      jump(tag_198)\n    tag_199:\n      dup3\n      add\n      swap2\n      swap1\n      0x00\n      mstore\n      keccak256(0x00, 0x20)\n      swap1\n    tag_200:\n      dup2\n      sload\n      dup2\n      mstore\n      swap1\n      0x01\n      add\n      swap1\n      0x20\n      add\n      dup1\n      dup4\n      gt\n      tag_200\n      jumpi\n      dup3\n      swap1\n      sub\n      0x1f\n      and\n      dup3\n      add\n      swap2\n    tag_198:\n      pop\n      pop\n      pop\n      pop\n      pop\n      swap1\n      dup1\n      0x02\n      add\n      sload\n      swap1\n      dup1\n      0x03\n      add\n      sload\n      swap1\n      pop\n      dup5\n      jump\t// out\n        /* \"SocialMedia.sol\":948:997  mapping(address => address[]) public allFollowers */\n    tag_53:\n      mstore(0x20, 0x03)\n      dup2\n      0x00\n      mstore\n      keccak256(0x00, 0x40)\n      dup2\n      dup2\n      sload\n      dup2\n      lt\n      tag_201\n      jumpi\n      0x00\n      dup1\n      revert\n    tag_201:\n      0x00\n      swap2\n      dup3\n      mstore\n      0x20\n      swap1\n      swap2\n      keccak256\n      add\n      sload\n      sub(shl(0xa0, 0x01), 0x01)\n      and\n      swap2\n      pop\n      dup3\n      swap1\n      pop\n      jump\t// out\n        /* \"SocialMedia.sol\":893:942  mapping(address => address[]) public allFollowing */\n    tag_58:\n      mstore(0x20, 0x02)\n      dup2\n      0x00\n      mstore\n      keccak256(0x00, 0x40)\n      dup2\n      dup2\n      sload\n      dup2\n      lt\n      tag_201\n      jumpi\n      0x00\n      dup1\n      revert\n        /* \"SocialMedia.sol\":854:886  address[] public registeredUsers */\n    tag_63:\n      0x01\n      dup2\n      dup2\n      sload\n      dup2\n      lt\n      tag_205\n      jumpi\n      0x00\n      dup1\n      revert\n    tag_205:\n      0x00\n      swap2\n      dup3\n      mstore\n      0x20\n      swap1\n      swap2\n      keccak256\n      add\n      sload\n      sub(shl(0xa0, 0x01), 0x01)\n      and\n      swap1\n      pop\n      dup2\n      jump\t// out\n        /* \"SocialMedia.sol\":6955:7523  function getUserProfile(address user)... */\n    tag_67:\n      sub(shl(0xa0, 0x01), 0x01)\n        /* \"SocialMedia.sol\":7301:7319  user_profile[user] */\n      dup1\n      dup3\n      and\n        /* \"SocialMedia.sol\":7053:7072  address UserAddress */\n      0x00\n        /* \"SocialMedia.sol\":7301:7319  user_profile[user] */\n      swap1\n      dup2\n      mstore\n      0x20\n      dup2\n      dup2\n      mstore\n      0x40\n      dup1\n      dup4\n      keccak256\n        /* \"SocialMedia.sol\":7285:7319  User memory u = user_profile[user] */\n      dup2\n      mload\n      0xe0\n      dup2\n      add\n      swap1\n      swap3\n      mstore\n      dup1\n      sload\n      swap1\n      swap5\n      and\n      dup2\n      mstore\n      0x01\n      dup5\n      add\n      dup1\n      sload\n        /* \"SocialMedia.sol\":7053:7072  address UserAddress */\n      swap4\n      swap5\n        /* \"SocialMedia.sol\":7086:7108  string memory UserName */\n      0x60\n      swap5\n      dup6\n      swap5\n        /* \"SocialMedia.sol\":7053:7072  address UserAddress */\n      dup8\n      swap5\n      dup6\n      swap5\n      dup6\n      swap5\n      dup6\n      swap5\n      dup6\n      swap5\n        /* \"SocialMedia.sol\":7301:7319  user_profile[user] */\n      swap2\n      swap3\n        /* \"SocialMedia.sol\":7285:7319  User memory u = user_profile[user] */\n      swap2\n      dup5\n      add\n      swap2\n      swap1\n      tag_208\n      swap1\n      tag_150\n      jump\t// in\n    tag_208:\n      dup1\n      0x1f\n      add\n      0x20\n      dup1\n      swap2\n      div\n      mul\n      0x20\n      add\n      mload(0x40)\n      swap1\n      dup2\n      add\n      0x40\n      mstore\n      dup1\n      swap3\n      swap2\n      swap1\n      dup2\n      dup2\n      mstore\n      0x20\n      add\n      dup3\n      dup1\n      sload\n      tag_209\n      swap1\n      tag_150\n      jump\t// in\n    tag_209:\n      dup1\n      iszero\n      tag_210\n      jumpi\n      dup1\n      0x1f\n      lt\n      tag_211\n      jumpi\n      0x0100\n      dup1\n      dup4\n      sload\n      div\n      mul\n      dup4\n      mstore\n      swap2\n      0x20\n      add\n      swap2\n      jump(tag_210)\n    tag_211:\n      dup3\n      add\n      swap2\n      swap1\n      0x00\n      mstore\n      keccak256(0x00, 0x20)\n      swap1\n    tag_212:\n      dup2\n      sload\n      dup2\n      mstore\n      swap1\n      0x01\n      add\n      swap1\n      0x20\n      add\n      dup1\n      dup4\n      gt\n      tag_212\n      jumpi\n      dup3\n      swap1\n      sub\n      0x1f\n      and\n      dup3\n      add\n      swap2\n    tag_210:\n      pop\n      pop\n      pop\n      pop\n      pop\n      dup2\n      mstore\n      0x20\n      add\n      0x02\n      dup3\n      add\n      dup1\n      sload\n      tag_213\n      swap1\n      tag_150\n      jump\t// in\n    tag_213:\n      dup1\n      0x1f\n      add\n      0x20\n      dup1\n      swap2\n      div\n      mul\n      0x20\n      add\n      mload(0x40)\n      swap1\n      dup2\n      add\n      0x40\n      mstore\n      dup1\n      swap3\n      swap2\n      swap1\n      dup2\n      dup2\n      mstore\n      0x20\n      add\n      dup3\n      dup1\n      sload\n      tag_214\n      swap1\n      tag_150\n      jump\t// in\n    tag_214:\n      dup1\n      iszero\n      tag_215\n      jumpi\n      dup1\n      0x1f\n      lt\n      tag_216\n      jumpi\n      0x0100\n      dup1\n      dup4\n      sload\n      div\n      mul\n      dup4\n      mstore\n      swap2\n      0x20\n      add\n      swap2\n      jump(tag_215)\n    tag_216:\n      dup3\n      add\n      swap2\n      swap1\n      0x00\n      mstore\n      keccak256(0x00, 0x20)\n      swap1\n    tag_217:\n      dup2\n      sload\n      dup2\n      mstore\n      swap1\n      0x01\n      add\n      swap1\n      0x20\n      add\n      dup1\n      dup4\n      gt\n      tag_217\n      jumpi\n      dup3\n      swap1\n      sub\n      0x1f\n      and\n      dup3\n      add\n      swap2\n    tag_215:\n      pop\n      pop\n      pop\n      pop\n      pop\n      dup2\n      mstore\n      0x20\n      add\n      0x03\n      dup3\n      add\n      sload\n      dup2\n      mstore\n      0x20\n      add\n      0x04\n      dup3\n      add\n      sload\n      dup2\n      mstore\n      0x20\n      add\n      0x05\n      dup3\n      add\n      sload\n      dup2\n      mstore\n      0x20\n      add\n      0x06\n      dup3\n      add\n      0x00\n      swap1\n      sload\n      swap1\n      0x0100\n      exp\n      swap1\n      div\n      0xff\n      and\n      iszero\n      iszero\n      iszero\n      iszero\n      dup2\n      mstore\n      pop\n      pop\n      swap1\n      pop\n        /* \"SocialMedia.sol\":7350:7351  u */\n      dup1\n        /* \"SocialMedia.sol\":7350:7363  u.UserAddress */\n      0x00\n      add\n      mload\n        /* \"SocialMedia.sol\":7377:7378  u */\n      dup2\n        /* \"SocialMedia.sol\":7377:7387  u.UserName */\n      0x20\n      add\n      mload\n        /* \"SocialMedia.sol\":7401:7402  u */\n      dup3\n        /* \"SocialMedia.sol\":7401:7406  u.bio */\n      0x40\n      add\n      mload\n        /* \"SocialMedia.sol\":7420:7421  u */\n      dup4\n        /* \"SocialMedia.sol\":7420:7430  u.follower */\n      0x60\n      add\n      mload\n        /* \"SocialMedia.sol\":7444:7445  u */\n      dup5\n        /* \"SocialMedia.sol\":7444:7455  u.following */\n      0x80\n      add\n      mload\n        /* \"SocialMedia.sol\":7469:7470  u */\n      dup6\n        /* \"SocialMedia.sol\":7469:7480  u.totalPost */\n      0xa0\n      add\n      mload\n        /* \"SocialMedia.sol\":7494:7495  u */\n      dup7\n        /* \"SocialMedia.sol\":7494:7506  u.isRegister */\n      0xc0\n      add\n      mload\n        /* \"SocialMedia.sol\":7329:7516  return (... */\n      swap8\n      pop\n      swap8\n      pop\n      swap8\n      pop\n      swap8\n      pop\n      swap8\n      pop\n      swap8\n      pop\n      swap8\n      pop\n      pop\n        /* \"SocialMedia.sol\":6955:7523  function getUserProfile(address user)... */\n      swap2\n      swap4\n      swap6\n      swap8\n      swap1\n      swap3\n      swap5\n      swap7\n      pop\n      jump\t// out\n        /* \"SocialMedia.sol\":6534:6643  function getUserPosts(address user) external view returns (Post[] memory) {... */\n    tag_77:\n      sub(shl(0xa0, 0x01), 0x01)\n        /* \"SocialMedia.sol\":6625:6636  posts[user] */\n      dup2\n      and\n      0x00\n      swap1\n      dup2\n      mstore\n        /* \"SocialMedia.sol\":6625:6630  posts */\n      0x04\n        /* \"SocialMedia.sol\":6625:6636  posts[user] */\n      0x20\n      swap1\n      dup2\n      mstore\n      0x40\n      dup1\n      dup4\n      keccak256\n        /* \"SocialMedia.sol\":6618:6636  return posts[user] */\n      dup1\n      sload\n      dup3\n      mload\n      dup2\n      dup6\n      mul\n      dup2\n      add\n      dup6\n      add\n      swap1\n      swap4\n      mstore\n      dup1\n      dup4\n      mstore\n        /* \"SocialMedia.sol\":6593:6606  Post[] memory */\n      0x60\n      swap5\n        /* \"SocialMedia.sol\":6618:6636  return posts[user] */\n      swap3\n      swap4\n        /* \"SocialMedia.sol\":6625:6636  posts[user] */\n      swap2\n      swap3\n        /* \"SocialMedia.sol\":6618:6636  return posts[user] */\n      swap1\n      swap2\n      dup5\n      add\n    tag_219:\n      dup3\n      dup3\n      lt\n      iszero\n      tag_220\n      jumpi\n      dup4\n      dup3\n      swap1\n      0x00\n      mstore\n      keccak256(0x00, 0x20)\n      swap1\n      0x04\n      mul\n      add\n      mload(0x40)\n      dup1\n      0x80\n      add\n      0x40\n      mstore\n      swap1\n      dup2\n      0x00\n      dup3\n      add\n      sload\n      dup2\n      mstore\n      0x20\n      add\n      0x01\n      dup3\n      add\n      dup1\n      sload\n      tag_222\n      swap1\n      tag_150\n      jump\t// in\n    tag_222:\n      dup1\n      0x1f\n      add\n      0x20\n      dup1\n      swap2\n      div\n      mul\n      0x20\n      add\n      mload(0x40)\n      swap1\n      dup2\n      add\n      0x40\n      mstore\n      dup1\n      swap3\n      swap2\n      swap1\n      dup2\n      dup2\n      mstore\n      0x20\n      add\n      dup3\n      dup1\n      sload\n      tag_223\n      swap1\n      tag_150\n      jump\t// in\n    tag_223:\n      dup1\n      iszero\n      tag_224\n      jumpi\n      dup1\n      0x1f\n      lt\n      tag_225\n      jumpi\n      0x0100\n      dup1\n      dup4\n      sload\n      div\n      mul\n      dup4\n      mstore\n      swap2\n      0x20\n      add\n      swap2\n      jump(tag_224)\n    tag_225:\n      dup3\n      add\n      swap2\n      swap1\n      0x00\n      mstore\n      keccak256(0x00, 0x20)\n      swap1\n    tag_226:\n      dup2\n      sload\n      dup2\n      mstore\n      swap1\n      0x01\n      add\n      swap1\n      0x20\n      add\n      dup1\n      dup4\n      gt\n      tag_226\n      jumpi\n      dup3\n      swap1\n      sub\n      0x1f\n      and\n      dup3\n      add\n      swap2\n    tag_224:\n      pop\n      pop\n      pop\n      pop\n      pop\n      dup2\n      mstore\n      0x20\n      add\n      0x02\n      dup3\n      add\n      sload\n      dup2\n      mstore\n      0x20\n      add\n      0x03\n      dup3\n      add\n      sload\n      dup2\n      mstore\n      pop\n      pop\n      dup2\n      mstore\n      0x20\n      add\n      swap1\n      0x01\n      add\n      swap1\n      jump(tag_219)\n    tag_220:\n      pop\n      pop\n      pop\n      pop\n      swap1\n      pop\n        /* \"SocialMedia.sol\":6534:6643  function getUserPosts(address user) external view returns (Post[] memory) {... */\n      swap2\n      swap1\n      pop\n      jump\t// out\n        /* \"SocialMedia.sol\":6802:6949  function getFollowers(address user)... */\n    tag_82:\n      sub(shl(0xa0, 0x01), 0x01)\n        /* \"SocialMedia.sol\":6924:6942  allFollowers[user] */\n      dup2\n      and\n      0x00\n      swap1\n      dup2\n      mstore\n        /* \"SocialMedia.sol\":6924:6936  allFollowers */\n      0x03\n        /* \"SocialMedia.sol\":6924:6942  allFollowers[user] */\n      0x20\n      swap1\n      dup2\n      mstore\n      0x40\n      swap2\n      dup3\n      swap1\n      keccak256\n        /* \"SocialMedia.sol\":6917:6942  return allFollowers[user] */\n      dup1\n      sload\n      dup4\n      mload\n      dup2\n      dup5\n      mul\n      dup2\n      add\n      dup5\n      add\n      swap1\n      swap5\n      mstore\n      dup1\n      dup5\n      mstore\n        /* \"SocialMedia.sol\":6885:6901  address[] memory */\n      0x60\n      swap4\n        /* \"SocialMedia.sol\":6917:6942  return allFollowers[user] */\n      swap3\n      dup4\n      add\n        /* \"SocialMedia.sol\":6924:6942  allFollowers[user] */\n      dup3\n        /* \"SocialMedia.sol\":6917:6942  return allFollowers[user] */\n      dup3\n      dup1\n      iszero\n      tag_228\n      jumpi\n      0x20\n      mul\n      dup3\n      add\n      swap2\n      swap1\n      0x00\n      mstore\n      keccak256(0x00, 0x20)\n      swap1\n    tag_229:\n      dup2\n      sload\n      sub(shl(0xa0, 0x01), 0x01)\n      and\n      dup2\n      mstore\n      0x01\n      swap1\n      swap2\n      add\n      swap1\n      0x20\n      add\n      dup1\n      dup4\n      gt\n      tag_229\n      jumpi\n    tag_228:\n      pop\n      pop\n      pop\n      pop\n      pop\n      swap1\n      pop\n        /* \"SocialMedia.sol\":6802:6949  function getFollowers(address user)... */\n      swap2\n      swap1\n      pop\n      jump\t// out\n        /* \"SocialMedia.sol\":2380:3194  function createPost(string memory _content) external {... */\n    tag_87:\n        /* \"SocialMedia.sol\":2477:2487  msg.sender */\n      caller\n        /* \"SocialMedia.sol\":2464:2476  user_profile */\n      0x00\n        /* \"SocialMedia.sol\":2464:2488  user_profile[msg.sender] */\n      swap1\n      dup2\n      mstore\n      0x20\n      dup2\n      swap1\n      mstore\n      0x40\n      swap1\n      keccak256\n        /* \"SocialMedia.sol\":2464:2499  user_profile[msg.sender].isRegister */\n      0x06\n      add\n      sload\n      0xff\n      and\n        /* \"SocialMedia.sol\":2443:2558  require(... */\n      tag_231\n      jumpi\n      mload(0x40)\n      shl(0xe5, 0x461bcd)\n      dup2\n      mstore\n        /* \"#utility.yul\":13443:13445   */\n      0x20\n        /* \"SocialMedia.sol\":2443:2558  require(... */\n      0x04\n      dup3\n      add\n        /* \"#utility.yul\":13425:13446   */\n      mstore\n        /* \"#utility.yul\":13482:13484   */\n      0x21\n        /* \"#utility.yul\":13462:13480   */\n      0x24\n      dup3\n      add\n        /* \"#utility.yul\":13455:13485   */\n      mstore\n        /* \"#utility.yul\":13521:13555   */\n      0x596f75206172656e277420646f696e6720616e7920726567697374726174696f\n        /* \"#utility.yul\":13501:13519   */\n      0x44\n      dup3\n      add\n        /* \"#utility.yul\":13494:13556   */\n      mstore\n      shl(0xf9, 0x37)\n        /* \"#utility.yul\":13572:13590   */\n      0x64\n      dup3\n      add\n        /* \"#utility.yul\":13565:13596   */\n      mstore\n        /* \"#utility.yul\":13613:13632   */\n      0x84\n      add\n        /* \"SocialMedia.sol\":2443:2558  require(... */\n      tag_97\n        /* \"#utility.yul\":13241:13638   */\n      jump\n        /* \"SocialMedia.sol\":2443:2558  require(... */\n    tag_231:\n        /* \"SocialMedia.sol\":2614:2615  0 */\n      0x00\n        /* \"SocialMedia.sol\":2595:2603  _content */\n      dup2\n        /* \"SocialMedia.sol\":2589:2611  bytes(_content).length */\n      mload\n        /* \"SocialMedia.sol\":2589:2615  bytes(_content).length > 0 */\n      gt\n        /* \"SocialMedia.sol\":2568:2676  require(... */\n      tag_234\n      jumpi\n      mload(0x40)\n      shl(0xe5, 0x461bcd)\n      dup2\n      mstore\n        /* \"#utility.yul\":13845:13847   */\n      0x20\n        /* \"SocialMedia.sol\":2568:2676  require(... */\n      0x04\n      dup3\n      add\n        /* \"#utility.yul\":13827:13848   */\n      mstore\n        /* \"#utility.yul\":13884:13886   */\n      0x23\n        /* \"#utility.yul\":13864:13882   */\n      0x24\n      dup3\n      add\n        /* \"#utility.yul\":13857:13887   */\n      mstore\n        /* \"#utility.yul\":13923:13957   */\n      0x63616e206e6f742061646420656d70747920737472696e6720696e20636f6e74\n        /* \"#utility.yul\":13903:13921   */\n      0x44\n      dup3\n      add\n        /* \"#utility.yul\":13896:13958   */\n      mstore\n      shl(0xea, 0x195b9d)\n        /* \"#utility.yul\":13974:13992   */\n      0x64\n      dup3\n      add\n        /* \"#utility.yul\":13967:14000   */\n      mstore\n        /* \"#utility.yul\":14017:14036   */\n      0x84\n      add\n        /* \"SocialMedia.sol\":2568:2676  require(... */\n      tag_97\n        /* \"#utility.yul\":13643:14042   */\n      jump\n        /* \"SocialMedia.sol\":2568:2676  require(... */\n    tag_234:\n        /* \"SocialMedia.sol\":2713:2723  msg.sender */\n      caller\n        /* \"SocialMedia.sol\":2707:2724  posts[msg.sender] */\n      0x00\n      swap1\n      dup2\n      mstore\n        /* \"SocialMedia.sol\":2707:2712  posts */\n      0x04\n        /* \"SocialMedia.sol\":2707:2724  posts[msg.sender] */\n      0x20\n      mstore\n      0x40\n      swap1\n      keccak256\n        /* \"SocialMedia.sol\":2707:2731  posts[msg.sender].length */\n      sload\n        /* \"SocialMedia.sol\":2734:2736  10 */\n      0x0a\n      gt\n        /* \"SocialMedia.sol\":2686:2792  require(... */\n      tag_237\n      jumpi\n      mload(0x40)\n      shl(0xe5, 0x461bcd)\n      dup2\n      mstore\n        /* \"#utility.yul\":14249:14251   */\n      0x20\n        /* \"SocialMedia.sol\":2686:2792  require(... */\n      0x04\n      dup3\n      add\n        /* \"#utility.yul\":14231:14252   */\n      mstore\n        /* \"#utility.yul\":14288:14290   */\n      0x1e\n        /* \"#utility.yul\":14268:14286   */\n      0x24\n      dup3\n      add\n        /* \"#utility.yul\":14261:14291   */\n      mstore\n        /* \"#utility.yul\":14327:14359   */\n      0x796f752063616e20616464207570746f20313020706f737473206f6e6c790000\n        /* \"#utility.yul\":14307:14325   */\n      0x44\n      dup3\n      add\n        /* \"#utility.yul\":14300:14360   */\n      mstore\n        /* \"#utility.yul\":14377:14395   */\n      0x64\n      add\n        /* \"SocialMedia.sol\":2686:2792  require(... */\n      tag_97\n        /* \"#utility.yul\":14047:14401   */\n      jump\n        /* \"SocialMedia.sol\":2686:2792  require(... */\n    tag_237:\n        /* \"SocialMedia.sol\":2827:2837  msg.sender */\n      caller\n        /* \"SocialMedia.sol\":2803:2818  uint256 _postId */\n      0x00\n        /* \"SocialMedia.sol\":2821:2838  posts[msg.sender] */\n      swap1\n      dup2\n      mstore\n        /* \"SocialMedia.sol\":2821:2826  posts */\n      0x04\n        /* \"SocialMedia.sol\":2821:2838  posts[msg.sender] */\n      0x20\n      dup2\n      dup2\n      mstore\n      0x40\n      dup1\n      dup5\n      keccak256\n        /* \"SocialMedia.sol\":2821:2845  posts[msg.sender].length */\n      dup1\n      sload\n        /* \"SocialMedia.sol\":2892:3045  Post({... */\n      dup3\n      mload\n      0x80\n      dup2\n      add\n      dup5\n      mstore\n      dup2\n      dup2\n      mstore\n      dup1\n      dup6\n      add\n      dup9\n      dup2\n      mstore\n      swap4\n      dup2\n      add\n      dup8\n      swap1\n      mstore\n      0x60\n      dup2\n      add\n      dup8\n      swap1\n      mstore\n        /* \"SocialMedia.sol\":2856:3055  posts[msg.sender].push(... */\n      0x01\n      dup1\n      dup4\n      add\n      dup5\n      sstore\n      swap3\n      dup8\n      mstore\n      swap4\n      swap1\n      swap6\n      keccak256\n      dup4\n      mload\n      swap5\n      dup7\n      mul\n      add\n      swap4\n      dup5\n      sstore\n      swap1\n      mload\n        /* \"SocialMedia.sol\":2892:3045  Post({... */\n      swap2\n      swap3\n        /* \"SocialMedia.sol\":2856:3055  posts[msg.sender].push(... */\n      swap2\n      swap1\n      dup3\n      add\n      swap1\n      tag_241\n      swap1\n      dup3\n      tag_171\n      jump\t// in\n    tag_241:\n      pop\n      0x40\n      dup3\n      dup2\n      add\n      mload\n      0x02\n      dup4\n      add\n      sstore\n      0x60\n      swap1\n      swap3\n      add\n      mload\n      0x03\n      swap1\n      swap2\n      add\n      sstore\n        /* \"SocialMedia.sol\":3107:3117  msg.sender */\n      caller\n      0x00\n        /* \"SocialMedia.sol\":3094:3118  user_profile[msg.sender] */\n      swap1\n      dup2\n      mstore\n      0x20\n      dup2\n      swap1\n      mstore\n      swap1\n      dup2\n      keccak256\n        /* \"SocialMedia.sol\":3094:3128  user_profile[msg.sender].totalPost */\n      0x05\n      add\n        /* \"SocialMedia.sol\":3094:3130  user_profile[msg.sender].totalPost++ */\n      dup1\n      sload\n      swap2\n      tag_242\n      dup4\n      tag_148\n      jump\t// in\n    tag_242:\n      swap2\n      swap1\n      pop\n      sstore\n      pop\n        /* \"SocialMedia.sol\":3157:3167  msg.sender */\n      caller\n      sub(shl(0xa0, 0x01), 0x01)\n        /* \"SocialMedia.sol\":3145:3187  postCreated(msg.sender, _postId, _content) */\n      and\n      0x354162fec6ca098a4253de2bce4a416b45366427605190696f216e3db712298c\n        /* \"SocialMedia.sol\":3169:3176  _postId */\n      dup3\n        /* \"SocialMedia.sol\":3178:3186  _content */\n      dup5\n        /* \"SocialMedia.sol\":3145:3187  postCreated(msg.sender, _postId, _content) */\n      mload(0x40)\n      tag_174\n      swap3\n      swap2\n      swap1\n      tag_244\n      jump\t// in\n        /* \"SocialMedia.sol\":6649:6796  function getFollowing(address user)... */\n    tag_90:\n      sub(shl(0xa0, 0x01), 0x01)\n        /* \"SocialMedia.sol\":6771:6789  allFollowing[user] */\n      dup2\n      and\n      0x00\n      swap1\n      dup2\n      mstore\n        /* \"SocialMedia.sol\":6771:6783  allFollowing */\n      0x02\n        /* \"SocialMedia.sol\":6771:6789  allFollowing[user] */\n      0x20\n      swap1\n      dup2\n      mstore\n      0x40\n      swap2\n      dup3\n      swap1\n      keccak256\n        /* \"SocialMedia.sol\":6764:6789  return allFollowing[user] */\n      dup1\n      sload\n      dup4\n      mload\n      dup2\n      dup5\n      mul\n      dup2\n      add\n      dup5\n      add\n      swap1\n      swap5\n      mstore\n      dup1\n      dup5\n      mstore\n        /* \"SocialMedia.sol\":6732:6748  address[] memory */\n      0x60\n      swap4\n        /* \"SocialMedia.sol\":6764:6789  return allFollowing[user] */\n      swap3\n      dup4\n      add\n        /* \"SocialMedia.sol\":6771:6789  allFollowing[user] */\n      dup3\n        /* \"SocialMedia.sol\":6764:6789  return allFollowing[user] */\n      dup3\n      dup1\n      iszero\n      tag_228\n      jumpi\n      0x20\n      mul\n      dup3\n      add\n      swap2\n      swap1\n      0x00\n      mstore\n      keccak256(0x00, 0x20)\n      swap1\n      dup2\n      sload\n      sub(shl(0xa0, 0x01), 0x01)\n      and\n      dup2\n      mstore\n      0x01\n      swap1\n      swap2\n      add\n      swap1\n      0x20\n      add\n      dup1\n      dup4\n      gt\n      tag_229\n      jumpi\n      pop\n      pop\n      pop\n      pop\n      pop\n      swap1\n      pop\n        /* \"SocialMedia.sol\":6649:6796  function getFollowing(address user)... */\n      swap2\n      swap1\n      pop\n      jump\t// out\n        /* \"#utility.yul\":14:187   */\n    tag_248:\n        /* \"#utility.yul\":82:102   */\n      dup1\n      calldataload\n      sub(shl(0xa0, 0x01), 0x01)\n        /* \"#utility.yul\":131:162   */\n      dup2\n      and\n        /* \"#utility.yul\":121:163   */\n      dup2\n      eq\n        /* \"#utility.yul\":111:181   */\n      tag_258\n      jumpi\n        /* \"#utility.yul\":177:178   */\n      0x00\n        /* \"#utility.yul\":174:175   */\n      dup1\n        /* \"#utility.yul\":167:179   */\n      revert\n        /* \"#utility.yul\":111:181   */\n    tag_258:\n        /* \"#utility.yul\":14:187   */\n      swap2\n      swap1\n      pop\n      jump\t// out\n        /* \"#utility.yul\":192:378   */\n    tag_24:\n        /* \"#utility.yul\":251:257   */\n      0x00\n        /* \"#utility.yul\":304:306   */\n      0x20\n        /* \"#utility.yul\":292:301   */\n      dup3\n        /* \"#utility.yul\":283:290   */\n      dup5\n        /* \"#utility.yul\":279:302   */\n      sub\n        /* \"#utility.yul\":275:307   */\n      slt\n        /* \"#utility.yul\":272:324   */\n      iszero\n      tag_260\n      jumpi\n        /* \"#utility.yul\":320:321   */\n      0x00\n        /* \"#utility.yul\":317:318   */\n      dup1\n        /* \"#utility.yul\":310:322   */\n      revert\n        /* \"#utility.yul\":272:324   */\n    tag_260:\n        /* \"#utility.yul\":343:372   */\n      tag_261\n        /* \"#utility.yul\":362:371   */\n      dup3\n        /* \"#utility.yul\":343:372   */\n      tag_248\n      jump\t// in\n    tag_261:\n        /* \"#utility.yul\":333:372   */\n      swap4\n        /* \"#utility.yul\":192:378   */\n      swap3\n      pop\n      pop\n      pop\n      jump\t// out\n        /* \"#utility.yul\":383:637   */\n    tag_28:\n        /* \"#utility.yul\":451:457   */\n      0x00\n        /* \"#utility.yul\":459:465   */\n      dup1\n        /* \"#utility.yul\":512:514   */\n      0x40\n        /* \"#utility.yul\":500:509   */\n      dup4\n        /* \"#utility.yul\":491:498   */\n      dup6\n        /* \"#utility.yul\":487:510   */\n      sub\n        /* \"#utility.yul\":483:515   */\n      slt\n        /* \"#utility.yul\":480:532   */\n      iszero\n      tag_263\n      jumpi\n        /* \"#utility.yul\":528:529   */\n      0x00\n        /* \"#utility.yul\":525:526   */\n      dup1\n        /* \"#utility.yul\":518:530   */\n      revert\n        /* \"#utility.yul\":480:532   */\n    tag_263:\n        /* \"#utility.yul\":551:580   */\n      tag_264\n        /* \"#utility.yul\":570:579   */\n      dup4\n        /* \"#utility.yul\":551:580   */\n      tag_248\n      jump\t// in\n    tag_264:\n        /* \"#utility.yul\":541:580   */\n      swap5\n        /* \"#utility.yul\":627:629   */\n      0x20\n        /* \"#utility.yul\":612:630   */\n      swap4\n      swap1\n      swap4\n      add\n        /* \"#utility.yul\":599:631   */\n      calldataload\n      swap4\n      pop\n      pop\n      pop\n        /* \"#utility.yul\":383:637   */\n      jump\t// out\n        /* \"#utility.yul\":642:1065   */\n    tag_249:\n        /* \"#utility.yul\":684:687   */\n      0x00\n        /* \"#utility.yul\":722:727   */\n      dup2\n        /* \"#utility.yul\":716:728   */\n      mload\n        /* \"#utility.yul\":749:755   */\n      dup1\n        /* \"#utility.yul\":744:747   */\n      dup5\n        /* \"#utility.yul\":737:756   */\n      mstore\n        /* \"#utility.yul\":774:775   */\n      0x00\n        /* \"#utility.yul\":784:946   */\n    tag_266:\n        /* \"#utility.yul\":798:804   */\n      dup2\n        /* \"#utility.yul\":795:796   */\n      dup2\n        /* \"#utility.yul\":792:805   */\n      lt\n        /* \"#utility.yul\":784:946   */\n      iszero\n      tag_268\n      jumpi\n        /* \"#utility.yul\":860:864   */\n      0x20\n        /* \"#utility.yul\":916:929   */\n      dup2\n      dup6\n      add\n        /* \"#utility.yul\":912:934   */\n      dup2\n      add\n        /* \"#utility.yul\":906:935   */\n      mload\n        /* \"#utility.yul\":888:899   */\n      dup7\n      dup4\n      add\n        /* \"#utility.yul\":884:904   */\n      dup3\n      add\n        /* \"#utility.yul\":877:936   */\n      mstore\n        /* \"#utility.yul\":813:825   */\n      add\n        /* \"#utility.yul\":784:946   */\n      jump(tag_266)\n    tag_268:\n        /* \"#utility.yul\":788:791   */\n      pop\n        /* \"#utility.yul\":991:992   */\n      0x00\n        /* \"#utility.yul\":984:988   */\n      0x20\n        /* \"#utility.yul\":975:981   */\n      dup3\n        /* \"#utility.yul\":970:973   */\n      dup7\n        /* \"#utility.yul\":966:982   */\n      add\n        /* \"#utility.yul\":962:989   */\n      add\n        /* \"#utility.yul\":955:993   */\n      mstore\n        /* \"#utility.yul\":1054:1058   */\n      0x20\n        /* \"#utility.yul\":1047:1049   */\n      0x1f\n        /* \"#utility.yul\":1043:1050   */\n      not\n        /* \"#utility.yul\":1038:1040   */\n      0x1f\n        /* \"#utility.yul\":1030:1036   */\n      dup4\n        /* \"#utility.yul\":1026:1041   */\n      add\n        /* \"#utility.yul\":1022:1051   */\n      and\n        /* \"#utility.yul\":1017:1020   */\n      dup6\n        /* \"#utility.yul\":1013:1052   */\n      add\n        /* \"#utility.yul\":1009:1059   */\n      add\n        /* \"#utility.yul\":1002:1059   */\n      swap2\n      pop\n      pop\n        /* \"#utility.yul\":642:1065   */\n      swap3\n      swap2\n      pop\n      pop\n      jump\t// out\n        /* \"#utility.yul\":1070:1849   */\n    tag_34:\n      sub(shl(0xa0, 0x01), 0x01)\n        /* \"#utility.yul\":1401:1433   */\n      dup9\n      and\n        /* \"#utility.yul\":1383:1434   */\n      dup2\n      mstore\n        /* \"#utility.yul\":1470:1473   */\n      0xe0\n        /* \"#utility.yul\":1465:1467   */\n      0x20\n        /* \"#utility.yul\":1450:1468   */\n      dup3\n      add\n        /* \"#utility.yul\":1443:1474   */\n      dup2\n      swap1\n      mstore\n      0x00\n      swap1\n        /* \"#utility.yul\":1497:1543   */\n      tag_270\n      swap1\n        /* \"#utility.yul\":1523:1542   */\n      dup4\n      add\n        /* \"#utility.yul\":1515:1521   */\n      dup10\n        /* \"#utility.yul\":1497:1543   */\n      tag_249\n      jump\t// in\n    tag_270:\n        /* \"#utility.yul\":1591:1600   */\n      dup3\n        /* \"#utility.yul\":1583:1589   */\n      dup2\n        /* \"#utility.yul\":1579:1601   */\n      sub\n        /* \"#utility.yul\":1574:1576   */\n      0x40\n        /* \"#utility.yul\":1563:1572   */\n      dup5\n        /* \"#utility.yul\":1559:1577   */\n      add\n        /* \"#utility.yul\":1552:1602   */\n      mstore\n        /* \"#utility.yul\":1619:1652   */\n      tag_271\n        /* \"#utility.yul\":1645:1651   */\n      dup2\n        /* \"#utility.yul\":1637:1643   */\n      dup10\n        /* \"#utility.yul\":1619:1652   */\n      tag_249\n      jump\t// in\n    tag_271:\n        /* \"#utility.yul\":1611:1652   */\n      swap2\n      pop\n      pop\n        /* \"#utility.yul\":1688:1694   */\n      dup6\n        /* \"#utility.yul\":1683:1685   */\n      0x60\n        /* \"#utility.yul\":1672:1681   */\n      dup4\n        /* \"#utility.yul\":1668:1686   */\n      add\n        /* \"#utility.yul\":1661:1695   */\n      mstore\n        /* \"#utility.yul\":1732:1738   */\n      dup5\n        /* \"#utility.yul\":1726:1729   */\n      0x80\n        /* \"#utility.yul\":1715:1724   */\n      dup4\n        /* \"#utility.yul\":1711:1730   */\n      add\n        /* \"#utility.yul\":1704:1739   */\n      mstore\n        /* \"#utility.yul\":1776:1782   */\n      dup4\n        /* \"#utility.yul\":1770:1773   */\n      0xa0\n        /* \"#utility.yul\":1759:1768   */\n      dup4\n        /* \"#utility.yul\":1755:1774   */\n      add\n        /* \"#utility.yul\":1748:1783   */\n      mstore\n        /* \"#utility.yul\":1834:1840   */\n      dup3\n        /* \"#utility.yul\":1827:1841   */\n      iszero\n        /* \"#utility.yul\":1820:1842   */\n      iszero\n        /* \"#utility.yul\":1814:1817   */\n      0xc0\n        /* \"#utility.yul\":1803:1812   */\n      dup4\n        /* \"#utility.yul\":1799:1818   */\n      add\n        /* \"#utility.yul\":1792:1843   */\n      mstore\n        /* \"#utility.yul\":1070:1849   */\n      swap9\n      swap8\n      pop\n      pop\n      pop\n      pop\n      pop\n      pop\n      pop\n      pop\n      jump\t// out\n        /* \"#utility.yul\":1854:2512   */\n    tag_38:\n        /* \"#utility.yul\":2025:2027   */\n      0x20\n        /* \"#utility.yul\":2077:2098   */\n      dup1\n      dup3\n      mstore\n        /* \"#utility.yul\":2147:2160   */\n      dup3\n      mload\n        /* \"#utility.yul\":2050:2068   */\n      dup3\n      dup3\n      add\n        /* \"#utility.yul\":2169:2191   */\n      dup2\n      swap1\n      mstore\n        /* \"#utility.yul\":1996:2000   */\n      0x00\n      swap2\n        /* \"#utility.yul\":2025:2027   */\n      swap1\n        /* \"#utility.yul\":2248:2263   */\n      dup5\n      dup3\n      add\n      swap1\n        /* \"#utility.yul\":2222:2224   */\n      0x40\n        /* \"#utility.yul\":2207:2225   */\n      dup6\n      add\n      swap1\n        /* \"#utility.yul\":1996:2000   */\n      dup5\n        /* \"#utility.yul\":2291:2486   */\n    tag_273:\n        /* \"#utility.yul\":2305:2311   */\n      dup2\n        /* \"#utility.yul\":2302:2303   */\n      dup2\n        /* \"#utility.yul\":2299:2312   */\n      lt\n        /* \"#utility.yul\":2291:2486   */\n      iszero\n      tag_275\n      jumpi\n        /* \"#utility.yul\":2370:2383   */\n      dup4\n      mload\n      sub(shl(0xa0, 0x01), 0x01)\n        /* \"#utility.yul\":2366:2405   */\n      and\n        /* \"#utility.yul\":2354:2406   */\n      dup4\n      mstore\n        /* \"#utility.yul\":2461:2476   */\n      swap3\n      dup5\n      add\n      swap3\n        /* \"#utility.yul\":2426:2438   */\n      swap2\n      dup5\n      add\n      swap2\n        /* \"#utility.yul\":2402:2403   */\n      0x01\n        /* \"#utility.yul\":2320:2329   */\n      add\n        /* \"#utility.yul\":2291:2486   */\n      jump(tag_273)\n    tag_275:\n      pop\n        /* \"#utility.yul\":2503:2506   */\n      swap1\n      swap7\n        /* \"#utility.yul\":1854:2512   */\n      swap6\n      pop\n      pop\n      pop\n      pop\n      pop\n      pop\n      jump\t// out\n        /* \"#utility.yul\":2517:2644   */\n    tag_250:\n        /* \"#utility.yul\":2578:2588   */\n      0x4e487b71\n        /* \"#utility.yul\":2573:2576   */\n      0xe0\n        /* \"#utility.yul\":2569:2589   */\n      shl\n        /* \"#utility.yul\":2566:2567   */\n      0x00\n        /* \"#utility.yul\":2559:2590   */\n      mstore\n        /* \"#utility.yul\":2609:2613   */\n      0x41\n        /* \"#utility.yul\":2606:2607   */\n      0x04\n        /* \"#utility.yul\":2599:2614   */\n      mstore\n        /* \"#utility.yul\":2633:2637   */\n      0x24\n        /* \"#utility.yul\":2630:2631   */\n      0x00\n        /* \"#utility.yul\":2623:2638   */\n      revert\n        /* \"#utility.yul\":2649:3368   */\n    tag_251:\n        /* \"#utility.yul\":2692:2697   */\n      0x00\n        /* \"#utility.yul\":2745:2748   */\n      dup3\n        /* \"#utility.yul\":2738:2742   */\n      0x1f\n        /* \"#utility.yul\":2730:2736   */\n      dup4\n        /* \"#utility.yul\":2726:2743   */\n      add\n        /* \"#utility.yul\":2722:2749   */\n      slt\n        /* \"#utility.yul\":2712:2767   */\n      tag_278\n      jumpi\n        /* \"#utility.yul\":2763:2764   */\n      0x00\n        /* \"#utility.yul\":2760:2761   */\n      dup1\n        /* \"#utility.yul\":2753:2765   */\n      revert\n        /* \"#utility.yul\":2712:2767   */\n    tag_278:\n        /* \"#utility.yul\":2799:2805   */\n      dup2\n        /* \"#utility.yul\":2786:2806   */\n      calldataload\n        /* \"#utility.yul\":2825:2843   */\n      0xffffffffffffffff\n        /* \"#utility.yul\":2862:2864   */\n      dup1\n        /* \"#utility.yul\":2858:2860   */\n      dup3\n        /* \"#utility.yul\":2855:2865   */\n      gt\n        /* \"#utility.yul\":2852:2888   */\n      iszero\n      tag_280\n      jumpi\n        /* \"#utility.yul\":2868:2886   */\n      tag_280\n      tag_250\n      jump\t// in\n    tag_280:\n        /* \"#utility.yul\":2943:2945   */\n      0x40\n        /* \"#utility.yul\":2937:2946   */\n      mload\n        /* \"#utility.yul\":2911:2913   */\n      0x1f\n        /* \"#utility.yul\":2997:3010   */\n      dup4\n      add\n      not(0x1f)\n        /* \"#utility.yul\":2993:3015   */\n      swap1\n      dup2\n      and\n        /* \"#utility.yul\":3017:3019   */\n      0x3f\n        /* \"#utility.yul\":2989:3020   */\n      add\n        /* \"#utility.yul\":2985:3025   */\n      and\n        /* \"#utility.yul\":2973:3026   */\n      dup2\n      add\n      swap1\n        /* \"#utility.yul\":3041:3059   */\n      dup3\n      dup3\n      gt\n        /* \"#utility.yul\":3061:3083   */\n      dup2\n      dup4\n      lt\n        /* \"#utility.yul\":3038:3084   */\n      or\n        /* \"#utility.yul\":3035:3107   */\n      iszero\n      tag_282\n      jumpi\n        /* \"#utility.yul\":3087:3105   */\n      tag_282\n      tag_250\n      jump\t// in\n    tag_282:\n        /* \"#utility.yul\":3127:3137   */\n      dup2\n        /* \"#utility.yul\":3123:3125   */\n      0x40\n        /* \"#utility.yul\":3116:3138   */\n      mstore\n        /* \"#utility.yul\":3162:3164   */\n      dup4\n        /* \"#utility.yul\":3154:3160   */\n      dup2\n        /* \"#utility.yul\":3147:3165   */\n      mstore\n        /* \"#utility.yul\":3208:3211   */\n      dup7\n        /* \"#utility.yul\":3201:3205   */\n      0x20\n        /* \"#utility.yul\":3196:3198   */\n      dup6\n        /* \"#utility.yul\":3188:3194   */\n      dup9\n        /* \"#utility.yul\":3184:3199   */\n      add\n        /* \"#utility.yul\":3180:3206   */\n      add\n        /* \"#utility.yul\":3177:3212   */\n      gt\n        /* \"#utility.yul\":3174:3229   */\n      iszero\n      tag_283\n      jumpi\n        /* \"#utility.yul\":3225:3226   */\n      0x00\n        /* \"#utility.yul\":3222:3223   */\n      dup1\n        /* \"#utility.yul\":3215:3227   */\n      revert\n        /* \"#utility.yul\":3174:3229   */\n    tag_283:\n        /* \"#utility.yul\":3289:3291   */\n      dup4\n        /* \"#utility.yul\":3282:3286   */\n      0x20\n        /* \"#utility.yul\":3274:3280   */\n      dup8\n        /* \"#utility.yul\":3270:3287   */\n      add\n        /* \"#utility.yul\":3263:3267   */\n      0x20\n        /* \"#utility.yul\":3255:3261   */\n      dup4\n        /* \"#utility.yul\":3251:3268   */\n      add\n        /* \"#utility.yul\":3238:3292   */\n      calldatacopy\n        /* \"#utility.yul\":3336:3337   */\n      0x00\n        /* \"#utility.yul\":3329:3333   */\n      0x20\n        /* \"#utility.yul\":3324:3326   */\n      dup6\n        /* \"#utility.yul\":3316:3322   */\n      dup4\n        /* \"#utility.yul\":3312:3327   */\n      add\n        /* \"#utility.yul\":3308:3334   */\n      add\n        /* \"#utility.yul\":3301:3338   */\n      mstore\n        /* \"#utility.yul\":3356:3362   */\n      dup1\n        /* \"#utility.yul\":3347:3362   */\n      swap5\n      pop\n      pop\n      pop\n      pop\n      pop\n        /* \"#utility.yul\":2649:3368   */\n      swap3\n      swap2\n      pop\n      pop\n      jump\t// out\n        /* \"#utility.yul\":3373:3916   */\n    tag_41:\n        /* \"#utility.yul\":3461:3467   */\n      0x00\n        /* \"#utility.yul\":3469:3475   */\n      dup1\n        /* \"#utility.yul\":3522:3524   */\n      0x40\n        /* \"#utility.yul\":3510:3519   */\n      dup4\n        /* \"#utility.yul\":3501:3508   */\n      dup6\n        /* \"#utility.yul\":3497:3520   */\n      sub\n        /* \"#utility.yul\":3493:3525   */\n      slt\n        /* \"#utility.yul\":3490:3542   */\n      iszero\n      tag_285\n      jumpi\n        /* \"#utility.yul\":3538:3539   */\n      0x00\n        /* \"#utility.yul\":3535:3536   */\n      dup1\n        /* \"#utility.yul\":3528:3540   */\n      revert\n        /* \"#utility.yul\":3490:3542   */\n    tag_285:\n        /* \"#utility.yul\":3578:3587   */\n      dup3\n        /* \"#utility.yul\":3565:3588   */\n      calldataload\n        /* \"#utility.yul\":3607:3625   */\n      0xffffffffffffffff\n        /* \"#utility.yul\":3648:3650   */\n      dup1\n        /* \"#utility.yul\":3640:3646   */\n      dup3\n        /* \"#utility.yul\":3637:3651   */\n      gt\n        /* \"#utility.yul\":3634:3668   */\n      iszero\n      tag_286\n      jumpi\n        /* \"#utility.yul\":3664:3665   */\n      0x00\n        /* \"#utility.yul\":3661:3662   */\n      dup1\n        /* \"#utility.yul\":3654:3666   */\n      revert\n        /* \"#utility.yul\":3634:3668   */\n    tag_286:\n        /* \"#utility.yul\":3687:3737   */\n      tag_287\n        /* \"#utility.yul\":3729:3736   */\n      dup7\n        /* \"#utility.yul\":3720:3726   */\n      dup4\n        /* \"#utility.yul\":3709:3718   */\n      dup8\n        /* \"#utility.yul\":3705:3727   */\n      add\n        /* \"#utility.yul\":3687:3737   */\n      tag_251\n      jump\t// in\n    tag_287:\n        /* \"#utility.yul\":3677:3737   */\n      swap4\n      pop\n        /* \"#utility.yul\":3790:3792   */\n      0x20\n        /* \"#utility.yul\":3779:3788   */\n      dup6\n        /* \"#utility.yul\":3775:3793   */\n      add\n        /* \"#utility.yul\":3762:3794   */\n      calldataload\n        /* \"#utility.yul\":3746:3794   */\n      swap2\n      pop\n        /* \"#utility.yul\":3819:3821   */\n      dup1\n        /* \"#utility.yul\":3809:3817   */\n      dup3\n        /* \"#utility.yul\":3806:3822   */\n      gt\n        /* \"#utility.yul\":3803:3839   */\n      iszero\n      tag_288\n      jumpi\n        /* \"#utility.yul\":3835:3836   */\n      0x00\n        /* \"#utility.yul\":3832:3833   */\n      dup1\n        /* \"#utility.yul\":3825:3837   */\n      revert\n        /* \"#utility.yul\":3803:3839   */\n    tag_288:\n      pop\n        /* \"#utility.yul\":3858:3910   */\n      tag_289\n        /* \"#utility.yul\":3902:3909   */\n      dup6\n        /* \"#utility.yul\":3891:3899   */\n      dup3\n        /* \"#utility.yul\":3880:3889   */\n      dup7\n        /* \"#utility.yul\":3876:3900   */\n      add\n        /* \"#utility.yul\":3858:3910   */\n      tag_251\n      jump\t// in\n    tag_289:\n        /* \"#utility.yul\":3848:3910   */\n      swap2\n      pop\n      pop\n        /* \"#utility.yul\":3373:3916   */\n      swap3\n      pop\n      swap3\n      swap1\n      pop\n      jump\t// out\n        /* \"#utility.yul\":3921:4356   */\n    tag_50:\n        /* \"#utility.yul\":4154:4160   */\n      dup5\n        /* \"#utility.yul\":4143:4152   */\n      dup2\n        /* \"#utility.yul\":4136:4161   */\n      mstore\n        /* \"#utility.yul\":4197:4200   */\n      0x80\n        /* \"#utility.yul\":4192:4194   */\n      0x20\n        /* \"#utility.yul\":4181:4190   */\n      dup3\n        /* \"#utility.yul\":4177:4195   */\n      add\n        /* \"#utility.yul\":4170:4201   */\n      mstore\n        /* \"#utility.yul\":4117:4121   */\n      0x00\n        /* \"#utility.yul\":4218:4264   */\n      tag_291\n        /* \"#utility.yul\":4259:4262   */\n      0x80\n        /* \"#utility.yul\":4248:4257   */\n      dup4\n        /* \"#utility.yul\":4244:4263   */\n      add\n        /* \"#utility.yul\":4236:4242   */\n      dup7\n        /* \"#utility.yul\":4218:4264   */\n      tag_249\n      jump\t// in\n    tag_291:\n        /* \"#utility.yul\":4295:4297   */\n      0x40\n        /* \"#utility.yul\":4280:4298   */\n      dup4\n      add\n        /* \"#utility.yul\":4273:4307   */\n      swap5\n      swap1\n      swap5\n      mstore\n      pop\n        /* \"#utility.yul\":4338:4340   */\n      0x60\n        /* \"#utility.yul\":4323:4341   */\n      add\n        /* \"#utility.yul\":4316:4350   */\n      mstore\n        /* \"#utility.yul\":4210:4264   */\n      swap3\n        /* \"#utility.yul\":3921:4356   */\n      swap2\n      pop\n      pop\n      jump\t// out\n        /* \"#utility.yul\":4569:4749   */\n    tag_62:\n        /* \"#utility.yul\":4628:4634   */\n      0x00\n        /* \"#utility.yul\":4681:4683   */\n      0x20\n        /* \"#utility.yul\":4669:4678   */\n      dup3\n        /* \"#utility.yul\":4660:4667   */\n      dup5\n        /* \"#utility.yul\":4656:4679   */\n      sub\n        /* \"#utility.yul\":4652:4684   */\n      slt\n        /* \"#utility.yul\":4649:4701   */\n      iszero\n      tag_294\n      jumpi\n        /* \"#utility.yul\":4697:4698   */\n      0x00\n        /* \"#utility.yul\":4694:4695   */\n      dup1\n        /* \"#utility.yul\":4687:4699   */\n      revert\n        /* \"#utility.yul\":4649:4701   */\n    tag_294:\n      pop\n        /* \"#utility.yul\":4720:4743   */\n      calldataload\n      swap2\n        /* \"#utility.yul\":4569:4749   */\n      swap1\n      pop\n      jump\t// out\n        /* \"#utility.yul\":4754:5014   */\n    tag_71:\n        /* \"#utility.yul\":4822:4828   */\n      0x00\n        /* \"#utility.yul\":4830:4836   */\n      dup1\n        /* \"#utility.yul\":4883:4885   */\n      0x40\n        /* \"#utility.yul\":4871:4880   */\n      dup4\n        /* \"#utility.yul\":4862:4869   */\n      dup6\n        /* \"#utility.yul\":4858:4881   */\n      sub\n        /* \"#utility.yul\":4854:4886   */\n      slt\n        /* \"#utility.yul\":4851:4903   */\n      iszero\n      tag_296\n      jumpi\n        /* \"#utility.yul\":4899:4900   */\n      0x00\n        /* \"#utility.yul\":4896:4897   */\n      dup1\n        /* \"#utility.yul\":4889:4901   */\n      revert\n        /* \"#utility.yul\":4851:4903   */\n    tag_296:\n        /* \"#utility.yul\":4922:4951   */\n      tag_297\n        /* \"#utility.yul\":4941:4950   */\n      dup4\n        /* \"#utility.yul\":4922:4951   */\n      tag_248\n      jump\t// in\n    tag_297:\n        /* \"#utility.yul\":4912:4951   */\n      swap2\n      pop\n        /* \"#utility.yul\":4970:5008   */\n      tag_298\n        /* \"#utility.yul\":5004:5006   */\n      0x20\n        /* \"#utility.yul\":4993:5002   */\n      dup5\n        /* \"#utility.yul\":4989:5007   */\n      add\n        /* \"#utility.yul\":4970:5008   */\n      tag_248\n      jump\t// in\n    tag_298:\n        /* \"#utility.yul\":4960:5008   */\n      swap1\n      pop\n        /* \"#utility.yul\":4754:5014   */\n      swap3\n      pop\n      swap3\n      swap1\n      pop\n      jump\t// out\n        /* \"#utility.yul\":5211:6427   */\n    tag_79:\n        /* \"#utility.yul\":5393:5397   */\n      0x00\n        /* \"#utility.yul\":5422:5424   */\n      0x20\n        /* \"#utility.yul\":5462:5464   */\n      dup1\n        /* \"#utility.yul\":5451:5460   */\n      dup4\n        /* \"#utility.yul\":5447:5465   */\n      add\n        /* \"#utility.yul\":5492:5494   */\n      dup2\n        /* \"#utility.yul\":5481:5490   */\n      dup5\n        /* \"#utility.yul\":5474:5495   */\n      mstore\n        /* \"#utility.yul\":5515:5521   */\n      dup1\n        /* \"#utility.yul\":5550:5556   */\n      dup6\n        /* \"#utility.yul\":5544:5557   */\n      mload\n        /* \"#utility.yul\":5581:5587   */\n      dup1\n        /* \"#utility.yul\":5573:5579   */\n      dup4\n        /* \"#utility.yul\":5566:5588   */\n      mstore\n        /* \"#utility.yul\":5607:5609   */\n      0x40\n        /* \"#utility.yul\":5597:5609   */\n      swap3\n      pop\n        /* \"#utility.yul\":5640:5642   */\n      0x40\n        /* \"#utility.yul\":5629:5638   */\n      dup7\n        /* \"#utility.yul\":5625:5643   */\n      add\n        /* \"#utility.yul\":5618:5643   */\n      swap2\n      pop\n        /* \"#utility.yul\":5702:5704   */\n      0x40\n        /* \"#utility.yul\":5692:5698   */\n      dup2\n        /* \"#utility.yul\":5689:5690   */\n      0x05\n        /* \"#utility.yul\":5685:5699   */\n      shl\n        /* \"#utility.yul\":5674:5683   */\n      dup8\n        /* \"#utility.yul\":5670:5700   */\n      add\n        /* \"#utility.yul\":5666:5705   */\n      add\n        /* \"#utility.yul\":5740:5742   */\n      dup5\n        /* \"#utility.yul\":5732:5738   */\n      dup9\n        /* \"#utility.yul\":5728:5743   */\n      add\n        /* \"#utility.yul\":5761:5762   */\n      0x00\n        /* \"#utility.yul\":5771:6398   */\n    tag_301:\n        /* \"#utility.yul\":5785:5791   */\n      dup4\n        /* \"#utility.yul\":5782:5783   */\n      dup2\n        /* \"#utility.yul\":5779:5792   */\n      lt\n        /* \"#utility.yul\":5771:6398   */\n      iszero\n      tag_303\n      jumpi\n        /* \"#utility.yul\":5878:5880   */\n      0x3f\n        /* \"#utility.yul\":5874:5881   */\n      not\n        /* \"#utility.yul\":5862:5871   */\n      dup10\n        /* \"#utility.yul\":5854:5860   */\n      dup5\n        /* \"#utility.yul\":5850:5872   */\n      sub\n        /* \"#utility.yul\":5846:5882   */\n      add\n        /* \"#utility.yul\":5841:5844   */\n      dup6\n        /* \"#utility.yul\":5834:5883   */\n      mstore\n        /* \"#utility.yul\":5912:5918   */\n      dup2\n        /* \"#utility.yul\":5906:5919   */\n      mload\n        /* \"#utility.yul\":5942:5946   */\n      0x80\n        /* \"#utility.yul\":5980:5982   */\n      dup2\n        /* \"#utility.yul\":5974:5983   */\n      mload\n        /* \"#utility.yul\":5966:5972   */\n      dup6\n        /* \"#utility.yul\":5959:5984   */\n      mstore\n        /* \"#utility.yul\":6031:6033   */\n      dup9\n        /* \"#utility.yul\":6027:6029   */\n      dup3\n        /* \"#utility.yul\":6023:6034   */\n      add\n        /* \"#utility.yul\":6017:6035   */\n      mload\n        /* \"#utility.yul\":6072:6074   */\n      dup2\n        /* \"#utility.yul\":6067:6069   */\n      dup11\n        /* \"#utility.yul\":6059:6065   */\n      dup8\n        /* \"#utility.yul\":6055:6070   */\n      add\n        /* \"#utility.yul\":6048:6075   */\n      mstore\n        /* \"#utility.yul\":6102:6150   */\n      tag_304\n        /* \"#utility.yul\":6146:6148   */\n      dup3\n        /* \"#utility.yul\":6138:6144   */\n      dup8\n        /* \"#utility.yul\":6134:6149   */\n      add\n        /* \"#utility.yul\":6120:6132   */\n      dup3\n        /* \"#utility.yul\":6102:6150   */\n      tag_249\n      jump\t// in\n    tag_304:\n        /* \"#utility.yul\":6193:6204   */\n      dup4\n      dup11\n      add\n        /* \"#utility.yul\":6187:6205   */\n      mload\n        /* \"#utility.yul\":6170:6185   */\n      dup8\n      dup12\n      add\n        /* \"#utility.yul\":6163:6206   */\n      mstore\n        /* \"#utility.yul\":6229:6233   */\n      0x60\n        /* \"#utility.yul\":6276:6287   */\n      swap4\n      dup5\n      add\n        /* \"#utility.yul\":6270:6288   */\n      mload\n        /* \"#utility.yul\":6253:6268   */\n      swap4\n      swap1\n      swap7\n      add\n        /* \"#utility.yul\":6246:6289   */\n      swap3\n      swap1\n      swap3\n      mstore\n      pop\n      pop\n        /* \"#utility.yul\":6376:6388   */\n      swap4\n      dup7\n      add\n      swap4\n        /* \"#utility.yul\":6341:6356   */\n      swap1\n      dup7\n      add\n      swap1\n        /* \"#utility.yul\":5807:5808   */\n      0x01\n        /* \"#utility.yul\":5800:5809   */\n      add\n        /* \"#utility.yul\":5771:6398   */\n      jump(tag_301)\n    tag_303:\n      pop\n        /* \"#utility.yul\":6415:6421   */\n      swap1\n      swap9\n        /* \"#utility.yul\":5211:6427   */\n      swap8\n      pop\n      pop\n      pop\n      pop\n      pop\n      pop\n      pop\n      pop\n      jump\t// out\n        /* \"#utility.yul\":6432:6754   */\n    tag_86:\n        /* \"#utility.yul\":6501:6507   */\n      0x00\n        /* \"#utility.yul\":6554:6556   */\n      0x20\n        /* \"#utility.yul\":6542:6551   */\n      dup3\n        /* \"#utility.yul\":6533:6540   */\n      dup5\n        /* \"#utility.yul\":6529:6552   */\n      sub\n        /* \"#utility.yul\":6525:6557   */\n      slt\n        /* \"#utility.yul\":6522:6574   */\n      iszero\n      tag_306\n      jumpi\n        /* \"#utility.yul\":6570:6571   */\n      0x00\n        /* \"#utility.yul\":6567:6568   */\n      dup1\n        /* \"#utility.yul\":6560:6572   */\n      revert\n        /* \"#utility.yul\":6522:6574   */\n    tag_306:\n        /* \"#utility.yul\":6610:6619   */\n      dup2\n        /* \"#utility.yul\":6597:6620   */\n      calldataload\n        /* \"#utility.yul\":6643:6661   */\n      0xffffffffffffffff\n        /* \"#utility.yul\":6635:6641   */\n      dup2\n        /* \"#utility.yul\":6632:6662   */\n      gt\n        /* \"#utility.yul\":6629:6679   */\n      iszero\n      tag_307\n      jumpi\n        /* \"#utility.yul\":6675:6676   */\n      0x00\n        /* \"#utility.yul\":6672:6673   */\n      dup1\n        /* \"#utility.yul\":6665:6677   */\n      revert\n        /* \"#utility.yul\":6629:6679   */\n    tag_307:\n        /* \"#utility.yul\":6698:6748   */\n      tag_308\n        /* \"#utility.yul\":6740:6747   */\n      dup5\n        /* \"#utility.yul\":6731:6737   */\n      dup3\n        /* \"#utility.yul\":6720:6729   */\n      dup6\n        /* \"#utility.yul\":6716:6738   */\n      add\n        /* \"#utility.yul\":6698:6748   */\n      tag_251\n      jump\t// in\n    tag_308:\n        /* \"#utility.yul\":6688:6748   */\n      swap5\n        /* \"#utility.yul\":6432:6754   */\n      swap4\n      pop\n      pop\n      pop\n      pop\n      jump\t// out\n        /* \"#utility.yul\":7119:7246   */\n    tag_252:\n        /* \"#utility.yul\":7180:7190   */\n      0x4e487b71\n        /* \"#utility.yul\":7175:7178   */\n      0xe0\n        /* \"#utility.yul\":7171:7191   */\n      shl\n        /* \"#utility.yul\":7168:7169   */\n      0x00\n        /* \"#utility.yul\":7161:7192   */\n      mstore\n        /* \"#utility.yul\":7211:7215   */\n      0x11\n        /* \"#utility.yul\":7208:7209   */\n      0x04\n        /* \"#utility.yul\":7201:7216   */\n      mstore\n        /* \"#utility.yul\":7235:7239   */\n      0x24\n        /* \"#utility.yul\":7232:7233   */\n      0x00\n        /* \"#utility.yul\":7225:7240   */\n      revert\n        /* \"#utility.yul\":7251:7387   */\n    tag_100:\n        /* \"#utility.yul\":7290:7293   */\n      0x00\n        /* \"#utility.yul\":7318:7323   */\n      dup2\n        /* \"#utility.yul\":7308:7347   */\n      tag_313\n      jumpi\n        /* \"#utility.yul\":7327:7345   */\n      tag_313\n      tag_252\n      jump\t// in\n    tag_313:\n      pop\n      not(0x00)\n        /* \"#utility.yul\":7363:7381   */\n      add\n      swap1\n        /* \"#utility.yul\":7251:7387   */\n      jump\t// out\n        /* \"#utility.yul\":7392:7519   */\n    tag_107:\n        /* \"#utility.yul\":7453:7463   */\n      0x4e487b71\n        /* \"#utility.yul\":7448:7451   */\n      0xe0\n        /* \"#utility.yul\":7444:7464   */\n      shl\n        /* \"#utility.yul\":7441:7442   */\n      0x00\n        /* \"#utility.yul\":7434:7465   */\n      mstore\n        /* \"#utility.yul\":7484:7488   */\n      0x32\n        /* \"#utility.yul\":7481:7482   */\n      0x04\n        /* \"#utility.yul\":7474:7489   */\n      mstore\n        /* \"#utility.yul\":7508:7512   */\n      0x24\n        /* \"#utility.yul\":7505:7506   */\n      0x00\n        /* \"#utility.yul\":7498:7513   */\n      revert\n        /* \"#utility.yul\":7524:7652   */\n    tag_111:\n        /* \"#utility.yul\":7591:7600   */\n      dup2\n      dup2\n      sub\n        /* \"#utility.yul\":7612:7623   */\n      dup2\n      dup2\n      gt\n        /* \"#utility.yul\":7609:7646   */\n      iszero\n      tag_317\n      jumpi\n        /* \"#utility.yul\":7626:7644   */\n      tag_317\n      tag_252\n      jump\t// in\n    tag_317:\n        /* \"#utility.yul\":7524:7652   */\n      swap3\n      swap2\n      pop\n      pop\n      jump\t// out\n        /* \"#utility.yul\":7657:7784   */\n    tag_120:\n        /* \"#utility.yul\":7718:7728   */\n      0x4e487b71\n        /* \"#utility.yul\":7713:7716   */\n      0xe0\n        /* \"#utility.yul\":7709:7729   */\n      shl\n        /* \"#utility.yul\":7706:7707   */\n      0x00\n        /* \"#utility.yul\":7699:7730   */\n      mstore\n        /* \"#utility.yul\":7749:7753   */\n      0x31\n        /* \"#utility.yul\":7746:7747   */\n      0x04\n        /* \"#utility.yul\":7739:7754   */\n      mstore\n        /* \"#utility.yul\":7773:7777   */\n      0x24\n        /* \"#utility.yul\":7770:7771   */\n      0x00\n        /* \"#utility.yul\":7763:7778   */\n      revert\n        /* \"#utility.yul\":8146:8281   */\n    tag_148:\n        /* \"#utility.yul\":8185:8188   */\n      0x00\n        /* \"#utility.yul\":8206:8223   */\n      0x01\n      dup3\n      add\n        /* \"#utility.yul\":8203:8246   */\n      tag_322\n      jumpi\n        /* \"#utility.yul\":8226:8244   */\n      tag_322\n      tag_252\n      jump\t// in\n    tag_322:\n      pop\n        /* \"#utility.yul\":8273:8274   */\n      0x01\n        /* \"#utility.yul\":8262:8275   */\n      add\n      swap1\n        /* \"#utility.yul\":8146:8281   */\n      jump\t// out\n        /* \"#utility.yul\":8286:8666   */\n    tag_150:\n        /* \"#utility.yul\":8365:8366   */\n      0x01\n        /* \"#utility.yul\":8361:8373   */\n      dup2\n      dup2\n      shr\n      swap1\n        /* \"#utility.yul\":8408:8420   */\n      dup3\n      and\n      dup1\n        /* \"#utility.yul\":8429:8490   */\n      tag_324\n      jumpi\n        /* \"#utility.yul\":8483:8487   */\n      0x7f\n        /* \"#utility.yul\":8475:8481   */\n      dup3\n        /* \"#utility.yul\":8471:8488   */\n      and\n        /* \"#utility.yul\":8461:8488   */\n      swap2\n      pop\n        /* \"#utility.yul\":8429:8490   */\n    tag_324:\n        /* \"#utility.yul\":8536:8538   */\n      0x20\n        /* \"#utility.yul\":8528:8534   */\n      dup3\n        /* \"#utility.yul\":8525:8539   */\n      lt\n        /* \"#utility.yul\":8505:8523   */\n      dup2\n        /* \"#utility.yul\":8502:8540   */\n      sub\n        /* \"#utility.yul\":8499:8660   */\n      tag_325\n      jumpi\n        /* \"#utility.yul\":8582:8592   */\n      0x4e487b71\n        /* \"#utility.yul\":8577:8580   */\n      0xe0\n        /* \"#utility.yul\":8573:8593   */\n      shl\n        /* \"#utility.yul\":8570:8571   */\n      0x00\n        /* \"#utility.yul\":8563:8594   */\n      mstore\n        /* \"#utility.yul\":8617:8621   */\n      0x22\n        /* \"#utility.yul\":8614:8615   */\n      0x04\n        /* \"#utility.yul\":8607:8622   */\n      mstore\n        /* \"#utility.yul\":8645:8649   */\n      0x24\n        /* \"#utility.yul\":8642:8643   */\n      0x00\n        /* \"#utility.yul\":8635:8650   */\n      revert\n        /* \"#utility.yul\":8499:8660   */\n    tag_325:\n      pop\n        /* \"#utility.yul\":8286:8666   */\n      swap2\n      swap1\n      pop\n      jump\t// out\n        /* \"#utility.yul\":9504:10022   */\n    tag_254:\n        /* \"#utility.yul\":9606:9608   */\n      0x1f\n        /* \"#utility.yul\":9601:9604   */\n      dup3\n        /* \"#utility.yul\":9598:9609   */\n      gt\n        /* \"#utility.yul\":9595:10016   */\n      iszero\n      tag_330\n      jumpi\n        /* \"#utility.yul\":9642:9647   */\n      dup1\n        /* \"#utility.yul\":9639:9640   */\n      0x00\n        /* \"#utility.yul\":9632:9648   */\n      mstore\n        /* \"#utility.yul\":9686:9690   */\n      0x20\n        /* \"#utility.yul\":9683:9684   */\n      0x00\n        /* \"#utility.yul\":9673:9691   */\n      keccak256\n        /* \"#utility.yul\":9756:9758   */\n      0x1f\n        /* \"#utility.yul\":9744:9754   */\n      dup5\n        /* \"#utility.yul\":9740:9759   */\n      add\n        /* \"#utility.yul\":9737:9738   */\n      0x05\n        /* \"#utility.yul\":9733:9760   */\n      shr\n        /* \"#utility.yul\":9727:9731   */\n      dup2\n        /* \"#utility.yul\":9723:9761   */\n      add\n        /* \"#utility.yul\":9792:9796   */\n      0x20\n        /* \"#utility.yul\":9780:9790   */\n      dup6\n        /* \"#utility.yul\":9777:9797   */\n      lt\n        /* \"#utility.yul\":9774:9821   */\n      iszero\n      tag_331\n      jumpi\n      pop\n        /* \"#utility.yul\":9815:9819   */\n      dup1\n        /* \"#utility.yul\":9774:9821   */\n    tag_331:\n        /* \"#utility.yul\":9870:9872   */\n      0x1f\n        /* \"#utility.yul\":9865:9868   */\n      dup5\n        /* \"#utility.yul\":9861:9873   */\n      add\n        /* \"#utility.yul\":9858:9859   */\n      0x05\n        /* \"#utility.yul\":9854:9874   */\n      shr\n        /* \"#utility.yul\":9848:9852   */\n      dup3\n        /* \"#utility.yul\":9844:9875   */\n      add\n        /* \"#utility.yul\":9834:9875   */\n      swap2\n      pop\n        /* \"#utility.yul\":9925:10006   */\n    tag_332:\n        /* \"#utility.yul\":9943:9945   */\n      dup2\n        /* \"#utility.yul\":9936:9941   */\n      dup2\n        /* \"#utility.yul\":9933:9946   */\n      lt\n        /* \"#utility.yul\":9925:10006   */\n      iszero\n      tag_334\n      jumpi\n        /* \"#utility.yul\":10002:10003   */\n      0x00\n        /* \"#utility.yul\":9988:10004   */\n      dup2\n      sstore\n        /* \"#utility.yul\":9969:9970   */\n      0x01\n        /* \"#utility.yul\":9958:9971   */\n      add\n        /* \"#utility.yul\":9925:10006   */\n      jump(tag_332)\n    tag_334:\n        /* \"#utility.yul\":9929:9932   */\n      pop\n      pop\n        /* \"#utility.yul\":9595:10016   */\n    tag_330:\n        /* \"#utility.yul\":9504:10022   */\n      pop\n      pop\n      pop\n      jump\t// out\n        /* \"#utility.yul\":10198:11543   */\n    tag_171:\n        /* \"#utility.yul\":10324:10327   */\n      dup2\n        /* \"#utility.yul\":10318:10328   */\n      mload\n        /* \"#utility.yul\":10351:10369   */\n      0xffffffffffffffff\n        /* \"#utility.yul\":10343:10349   */\n      dup2\n        /* \"#utility.yul\":10340:10370   */\n      gt\n        /* \"#utility.yul\":10337:10393   */\n      iszero\n      tag_338\n      jumpi\n        /* \"#utility.yul\":10373:10391   */\n      tag_338\n      tag_250\n      jump\t// in\n    tag_338:\n        /* \"#utility.yul\":10402:10499   */\n      tag_339\n        /* \"#utility.yul\":10492:10498   */\n      dup2\n        /* \"#utility.yul\":10452:10490   */\n      tag_340\n        /* \"#utility.yul\":10484:10488   */\n      dup5\n        /* \"#utility.yul\":10478:10489   */\n      sload\n        /* \"#utility.yul\":10452:10490   */\n      tag_150\n      jump\t// in\n    tag_340:\n        /* \"#utility.yul\":10446:10450   */\n      dup5\n        /* \"#utility.yul\":10402:10499   */\n      tag_254\n      jump\t// in\n    tag_339:\n        /* \"#utility.yul\":10554:10558   */\n      0x20\n      dup1\n        /* \"#utility.yul\":10611:10613   */\n      0x1f\n        /* \"#utility.yul\":10600:10614   */\n      dup4\n      gt\n        /* \"#utility.yul\":10628:10629   */\n      0x01\n        /* \"#utility.yul\":10623:11286   */\n      dup2\n      eq\n      tag_342\n      jumpi\n        /* \"#utility.yul\":11330:11331   */\n      0x00\n        /* \"#utility.yul\":11347:11353   */\n      dup5\n        /* \"#utility.yul\":11344:11433   */\n      iszero\n      tag_343\n      jumpi\n      pop\n        /* \"#utility.yul\":11399:11418   */\n      dup6\n      dup4\n      add\n        /* \"#utility.yul\":11393:11419   */\n      mload\n        /* \"#utility.yul\":11344:11433   */\n    tag_343:\n      not(0x00)\n        /* \"#utility.yul\":10155:10156   */\n      0x03\n        /* \"#utility.yul\":10151:10162   */\n      dup7\n      swap1\n      shl\n        /* \"#utility.yul\":10147:10171   */\n      shr\n        /* \"#utility.yul\":10143:10172   */\n      not\n        /* \"#utility.yul\":10133:10173   */\n      and\n        /* \"#utility.yul\":10179:10180   */\n      0x01\n        /* \"#utility.yul\":10175:10186   */\n      dup6\n      swap1\n      shl\n        /* \"#utility.yul\":10130:10187   */\n      or\n        /* \"#utility.yul\":11446:11527   */\n      dup6\n      sstore\n        /* \"#utility.yul\":10593:11537   */\n      jump(tag_341)\n        /* \"#utility.yul\":10623:11286   */\n    tag_342:\n        /* \"#utility.yul\":9451:9452   */\n      0x00\n        /* \"#utility.yul\":9444:9458   */\n      dup6\n      dup2\n      mstore\n        /* \"#utility.yul\":9488:9492   */\n      0x20\n        /* \"#utility.yul\":9475:9493   */\n      dup2\n      keccak256\n      not(0x1f)\n        /* \"#utility.yul\":10659:10679   */\n      dup7\n      and\n      swap2\n        /* \"#utility.yul\":10777:11013   */\n    tag_346:\n        /* \"#utility.yul\":10791:10798   */\n      dup3\n        /* \"#utility.yul\":10788:10789   */\n      dup2\n        /* \"#utility.yul\":10785:10799   */\n      lt\n        /* \"#utility.yul\":10777:11013   */\n      iszero\n      tag_348\n      jumpi\n        /* \"#utility.yul\":10880:10899   */\n      dup9\n      dup7\n      add\n        /* \"#utility.yul\":10874:10900   */\n      mload\n        /* \"#utility.yul\":10859:10901   */\n      dup3\n      sstore\n        /* \"#utility.yul\":10972:10999   */\n      swap5\n      dup5\n      add\n      swap5\n        /* \"#utility.yul\":10940:10941   */\n      0x01\n        /* \"#utility.yul\":10928:10942   */\n      swap1\n      swap2\n      add\n      swap1\n        /* \"#utility.yul\":10807:10826   */\n      dup5\n      add\n        /* \"#utility.yul\":10777:11013   */\n      jump(tag_346)\n    tag_348:\n        /* \"#utility.yul\":10781:10784   */\n      pop\n        /* \"#utility.yul\":11041:11047   */\n      dup6\n        /* \"#utility.yul\":11032:11039   */\n      dup3\n        /* \"#utility.yul\":11029:11048   */\n      lt\n        /* \"#utility.yul\":11026:11227   */\n      iszero\n      tag_349\n      jumpi\n        /* \"#utility.yul\":11102:11121   */\n      dup8\n      dup6\n      add\n        /* \"#utility.yul\":11096:11122   */\n      mload\n      not(0x00)\n        /* \"#utility.yul\":11185:11186   */\n      0x03\n        /* \"#utility.yul\":11181:11195   */\n      dup9\n      swap1\n      shl\n        /* \"#utility.yul\":11197:11200   */\n      0xf8\n        /* \"#utility.yul\":11177:11201   */\n      and\n        /* \"#utility.yul\":11173:11210   */\n      shr\n        /* \"#utility.yul\":11169:11211   */\n      not\n        /* \"#utility.yul\":11154:11212   */\n      and\n        /* \"#utility.yul\":11139:11213   */\n      dup2\n      sstore\n        /* \"#utility.yul\":11026:11227   */\n    tag_349:\n      pop\n      pop\n        /* \"#utility.yul\":11273:11274   */\n      0x01\n        /* \"#utility.yul\":11264:11270   */\n      dup5\n        /* \"#utility.yul\":11261:11262   */\n      0x01\n        /* \"#utility.yul\":11257:11271   */\n      shl\n        /* \"#utility.yul\":11253:11275   */\n      add\n        /* \"#utility.yul\":11247:11251   */\n      dup6\n        /* \"#utility.yul\":11240:11276   */\n      sstore\n        /* \"#utility.yul\":10593:11537   */\n    tag_341:\n      pop\n      pop\n      pop\n      pop\n        /* \"#utility.yul\":10198:11543   */\n      pop\n      pop\n      jump\t// out\n        /* \"#utility.yul\":11548:11768   */\n    tag_175:\n        /* \"#utility.yul\":11697:11699   */\n      0x20\n        /* \"#utility.yul\":11686:11695   */\n      dup2\n        /* \"#utility.yul\":11679:11700   */\n      mstore\n        /* \"#utility.yul\":11660:11664   */\n      0x00\n        /* \"#utility.yul\":11717:11762   */\n      tag_261\n        /* \"#utility.yul\":11758:11760   */\n      0x20\n        /* \"#utility.yul\":11747:11756   */\n      dup4\n        /* \"#utility.yul\":11743:11761   */\n      add\n        /* \"#utility.yul\":11735:11741   */\n      dup5\n        /* \"#utility.yul\":11717:11762   */\n      tag_249\n      jump\t// in\n        /* \"#utility.yul\":14406:14697   */\n    tag_244:\n        /* \"#utility.yul\":14583:14589   */\n      dup3\n        /* \"#utility.yul\":14572:14581   */\n      dup2\n        /* \"#utility.yul\":14565:14590   */\n      mstore\n        /* \"#utility.yul\":14626:14628   */\n      0x40\n        /* \"#utility.yul\":14621:14623   */\n      0x20\n        /* \"#utility.yul\":14610:14619   */\n      dup3\n        /* \"#utility.yul\":14606:14624   */\n      add\n        /* \"#utility.yul\":14599:14629   */\n      mstore\n        /* \"#utility.yul\":14546:14550   */\n      0x00\n        /* \"#utility.yul\":14646:14691   */\n      tag_308\n        /* \"#utility.yul\":14687:14689   */\n      0x40\n        /* \"#utility.yul\":14676:14685   */\n      dup4\n        /* \"#utility.yul\":14672:14690   */\n      add\n        /* \"#utility.yul\":14664:14670   */\n      dup5\n        /* \"#utility.yul\":14646:14691   */\n      tag_249\n      jump\t// in\n\n    auxdata: 0xa2646970667358221220bef808efae1460b83bd35d9b389adbef541f0afeec228873e05a79c55465bbb364736f6c63430008180033\n}\n",
				"bytecode": {
					"linkReferences": {},
					"object": "608060405234801561000f575f80fd5b50611af08061001d5f395ff3fe608060405234801561000f575f80fd5b50600436106100fb575f3560e01c80636ef9c5e6116100935780639a2194a9116100635780639a2194a914610255578063c2fe202214610275578063c7303c6114610288578063d8236dff1461029b575f80fd5b80636ef9c5e6146101df5780637259e0f8146101f2578063987ee1561461020557806399ec3a4214610218575f80fd5b80633ffbd47f116100ce5780633ffbd47f1461016b5780634dbf27cc1461017e5780635c538df3146101915780635d867b94146101b4575f80fd5b8063015a4ead146100ff57806315bf4006146101145780633640b59c14610127578063397388af14610156575b5f80fd5b61011261010d366004611560565b6102ae565b005b610112610122366004611580565b6106e5565b61013a610135366004611560565b6107b8565b60405161014d97969594939291906115eb565b60405180910390f35b61015e61090c565b60405161014d9190611649565b610112610179366004611732565b61096c565b61011261018c366004611560565b610b60565b6101a461019f366004611580565b610e37565b60405161014d9493929190611792565b6101c76101c2366004611580565b610f03565b6040516001600160a01b03909116815260200161014d565b6101c76101ed366004611580565b610f37565b6101c76102003660046117bd565b610f50565b61013a610213366004611560565b610f78565b6102456102263660046117d4565b600560209081525f928352604080842090915290825290205460ff1681565b604051901515815260200161014d565b610268610263366004611560565b61114e565b60405161014d9190611805565b61015e610283366004611560565b61126d565b610112610296366004611890565b6112e0565b61015e6102a9366004611560565b6114d4565b335f9081526020819052604090206006015460ff166102cb575f80fd5b6001600160a01b0381165f9081526020819052604090206006015460ff16806102fc57506001600160a01b03811615155b610304575f80fd5b335f9081526005602090815260408083206001600160a01b038516845290915290205460ff1615156001146103805760405162461bcd60e51b815260206004820152601f60248201527f796f7520617265206e6f7420666f6c6c6f77696e67207468697320757365720060448201526064015b60405180910390fd5b335f90815260208190526040812060040180549161039d836118de565b90915550506001600160a01b0381165f9081526020819052604081206003018054916103c8836118de565b9091555050335f9081526005602090815260408083206001600160a01b03851684529091528120805460ff191690555b335f9081526002602052604090205481101561052b57335f90815260026020526040902080546001600160a01b03841691908390811061043a5761043a6118f3565b5f918252602090912001546001600160a01b03160361052357335f908152600260205260409020805461046f90600190611907565b8154811061047f5761047f6118f3565b5f9182526020808320909101543383526002909152604090912080546001600160a01b0390921691839081106104b7576104b76118f3565b5f91825260208083209190910180546001600160a01b0319166001600160a01b0394909416939093179092553381526002909152604090208054806104fe576104fe611920565b5f8281526020902081015f1990810180546001600160a01b031916905501905561052b565b6001016103f8565b505f5b6001600160a01b0382165f90815260036020526040902054811015610677576001600160a01b0382165f908152600360205260409020805433919083908110610579576105796118f3565b5f918252602090912001546001600160a01b03160361066f576001600160a01b0382165f90815260036020526040902080546105b790600190611907565b815481106105c7576105c76118f3565b5f9182526020808320909101546001600160a01b03858116845260039092526040909220805491909216919083908110610603576106036118f3565b5f91825260208083209190910180546001600160a01b0319166001600160a01b03949094169390931790925533815260039091526040902080548061064a5761064a611920565b5f8281526020902081015f1990810180546001600160a01b0319169055019055610677565b60010161052e565b506040516001600160a01b0382169033907fc4fcf85d2922021be4b25fb2740aac325249759a5495c3cc208c7b263c0d78e1905f90a360405133906001600160a01b038316907ffeb001297b1ccaccd4da3c424a5e14e436657829595d94fb7e24dd770af35fe3905f90a350565b335f9081526020819052604090206006015460ff16610702575f80fd5b6001600160a01b0382165f908152600460205260409020546107665760405162461bcd60e51b815260206004820152601c60248201527f796f752068617665206e6f7420706f7374656420616e797468696e67000000006044820152606401610377565b6001600160a01b0382165f9081526004602052604090208054819083908110610791576107916118f3565b5f918252602082206002600490920201018054916107ae83611934565b9190505550505050565b5f60208190529081526040902080546001820180546001600160a01b0390921692916107e39061194c565b80601f016020809104026020016040519081016040528092919081815260200182805461080f9061194c565b801561085a5780601f106108315761010080835404028352916020019161085a565b820191905f5260205f20905b81548152906001019060200180831161083d57829003601f168201915b50505050509080600201805461086f9061194c565b80601f016020809104026020016040519081016040528092919081815260200182805461089b9061194c565b80156108e65780601f106108bd576101008083540402835291602001916108e6565b820191905f5260205f20905b8154815290600101906020018083116108c957829003601f168201915b505050506003830154600484015460058501546006909501549394919390925060ff1687565b6060600180548060200260200160405190810160405280929190818152602001828054801561096257602002820191905f5260205f20905b81546001600160a01b03168152600190910190602001808311610944575b5050505050905090565b335f9081526020819052604090206006015460ff16156109ce5760405162461bcd60e51b815260206004820152601860248201527f5573657220697320416c726561647920526567697374657200000000000000006044820152606401610377565b5f815111610a1e5760405162461bcd60e51b815260206004820152601960248201527f757365726e616d652063616e206e6f7420626520656d707479000000000000006044820152606401610377565b6040805160e0810182523380825260208083018581528385018790525f606085018190526080850181905260a08501819052600160c0860181905293815291829052939020825181546001600160a01b0319166001600160a01b03909116178155925191929190820190610a9290826119d0565b5060408201516002820190610aa790826119d0565b50606082015160038201556080820151600482015560a0820151600582015560c0909101516006909101805460ff19169115159190911790556001805480820182555f919091527fb10e2d527612073b26eecdfd717e6a320cf44b4afac2b0732d9fcbe2b7fa0cf6018054336001600160a01b031990911681179091556040517fb9e8b87f353953f556f9fe29e669e0cb209df2b1ad6dbd89eec993e0e60b5dea90610b54908490611a90565b60405180910390a25050565b335f9081526020819052604090206006015460ff16610bba5760405162461bcd60e51b81526020600482015260166024820152753cb7ba9030b932903737ba103932b3b4b9ba32b932b960511b6044820152606401610377565b6001600160a01b0381165f9081526020819052604090206006015460ff1680610beb57506001600160a01b03811615155b610c375760405162461bcd60e51b815260206004820152601f60248201527f596f7520667269656e642061646472657373206973206e6f742076616c6964006044820152606401610377565b336001600160a01b03821603610c8f5760405162461bcd60e51b815260206004820152601860248201527f796f752063616e7420666f6c6c6f7720796f757273656c6600000000000000006044820152606401610377565b335f9081526005602090815260408083206001600160a01b038516845290915290205460ff1615610d0e5760405162461bcd60e51b815260206004820152602360248201527f796f752061726520616c726561647920666f6c6c6f77696e672074686973207560448201526239b2b960e91b6064820152608401610377565b6001600160a01b0381165f908152602081905260408120600301805491610d3483611934565b9091555050335f908152602081905260408120600401805491610d5683611934565b9091555050335f8181526002602090815260408083208054600181810183559185528385200180546001600160a01b0388166001600160a01b0319918216811790925581865260038552838620805480850182559087528587200180549091168717905585855260058452828520818652909352818420805460ff19169091179055519092917fc4fcf85d2922021be4b25fb2740aac325249759a5495c3cc208c7b263c0d78e191a360405133906001600160a01b038316907ffeb001297b1ccaccd4da3c424a5e14e436657829595d94fb7e24dd770af35fe3905f90a350565b6004602052815f5260405f208181548110610e50575f80fd5b905f5260205f2090600402015f9150915050805f015490806001018054610e769061194c565b80601f0160208091040260200160405190810160405280929190818152602001828054610ea29061194c565b8015610eed5780601f10610ec457610100808354040283529160200191610eed565b820191905f5260205f20905b815481529060010190602001808311610ed057829003601f168201915b5050505050908060020154908060030154905084565b6003602052815f5260405f208181548110610f1c575f80fd5b5f918252602090912001546001600160a01b03169150829050565b6002602052815f5260405f208181548110610f1c575f80fd5b60018181548110610f5f575f80fd5b5f918252602090912001546001600160a01b0316905081565b6001600160a01b038082165f90815260208181526040808320815160e0810190925280549094168152600184018054939460609485948794859485948594859491929184019190610fc89061194c565b80601f0160208091040260200160405190810160405280929190818152602001828054610ff49061194c565b801561103f5780601f106110165761010080835404028352916020019161103f565b820191905f5260205f20905b81548152906001019060200180831161102257829003601f168201915b505050505081526020016002820180546110589061194c565b80601f01602080910402602001604051908101604052809291908181526020018280546110849061194c565b80156110cf5780601f106110a6576101008083540402835291602001916110cf565b820191905f5260205f20905b8154815290600101906020018083116110b257829003601f168201915b50505050508152602001600382015481526020016004820154815260200160058201548152602001600682015f9054906101000a900460ff1615151515815250509050805f015181602001518260400151836060015184608001518560a001518660c00151975097509750975097509750975050919395979092949650565b6001600160a01b0381165f908152600460209081526040808320805482518185028101850190935280835260609492939192909184015b82821015611262578382905f5260205f2090600402016040518060800160405290815f82015481526020016001820180546111bf9061194c565b80601f01602080910402602001604051908101604052809291908181526020018280546111eb9061194c565b80156112365780601f1061120d57610100808354040283529160200191611236565b820191905f5260205f20905b81548152906001019060200180831161121957829003601f168201915b505050505081526020016002820154815260200160038201548152505081526020019060010190611185565b505050509050919050565b6001600160a01b0381165f908152600360209081526040918290208054835181840281018401909452808452606093928301828280156112d457602002820191905f5260205f20905b81546001600160a01b031681526001909101906020018083116112b6575b50505050509050919050565b335f9081526020819052604090206006015460ff1661134b5760405162461bcd60e51b815260206004820152602160248201527f596f75206172656e277420646f696e6720616e7920726567697374726174696f6044820152603760f91b6064820152608401610377565b5f8151116113a75760405162461bcd60e51b815260206004820152602360248201527f63616e206e6f742061646420656d70747920737472696e6720696e20636f6e74604482015262195b9d60ea1b6064820152608401610377565b335f90815260046020526040902054600a116114055760405162461bcd60e51b815260206004820152601e60248201527f796f752063616e20616464207570746f20313020706f737473206f6e6c7900006044820152606401610377565b335f9081526004602081815260408084208054825160808101845281815280850188815293810187905260608101879052600180830184559287529390952083519486020193845590519192919082019061146090826119d0565b506040828101516002830155606090920151600390910155335f908152602081905290812060050180549161149483611934565b9190505550336001600160a01b03167f354162fec6ca098a4253de2bce4a416b45366427605190696f216e3db712298c8284604051610b54929190611aa2565b6001600160a01b0381165f908152600260209081526040918290208054835181840281018401909452808452606093928301828280156112d457602002820191905f5260205f209081546001600160a01b031681526001909101906020018083116112b65750505050509050919050565b80356001600160a01b038116811461155b575f80fd5b919050565b5f60208284031215611570575f80fd5b61157982611545565b9392505050565b5f8060408385031215611591575f80fd5b61159a83611545565b946020939093013593505050565b5f81518084525f5b818110156115cc576020818501810151868301820152016115b0565b505f602082860101526020601f19601f83011685010191505092915050565b6001600160a01b038816815260e0602082018190525f9061160e908301896115a8565b828103604084015261162081896115a8565b9150508560608301528460808301528360a083015282151560c083015298975050505050505050565b602080825282518282018190525f9190848201906040850190845b818110156116895783516001600160a01b031683529284019291840191600101611664565b50909695505050505050565b634e487b7160e01b5f52604160045260245ffd5b5f82601f8301126116b8575f80fd5b813567ffffffffffffffff808211156116d3576116d3611695565b604051601f8301601f19908116603f011681019082821181831017156116fb576116fb611695565b81604052838152866020858801011115611713575f80fd5b836020870160208301375f602085830101528094505050505092915050565b5f8060408385031215611743575f80fd5b823567ffffffffffffffff8082111561175a575f80fd5b611766868387016116a9565b9350602085013591508082111561177b575f80fd5b50611788858286016116a9565b9150509250929050565b848152608060208201525f6117aa60808301866115a8565b6040830194909452506060015292915050565b5f602082840312156117cd575f80fd5b5035919050565b5f80604083850312156117e5575f80fd5b6117ee83611545565b91506117fc60208401611545565b90509250929050565b5f60208083018184528085518083526040925060408601915060408160051b8701018488015f5b8381101561188257603f19898403018552815160808151855288820151818a87015261185a828701826115a8565b838a0151878b015260609384015193909601929092525050938601939086019060010161182c565b509098975050505050505050565b5f602082840312156118a0575f80fd5b813567ffffffffffffffff8111156118b6575f80fd5b6118c2848285016116a9565b949350505050565b634e487b7160e01b5f52601160045260245ffd5b5f816118ec576118ec6118ca565b505f190190565b634e487b7160e01b5f52603260045260245ffd5b8181038181111561191a5761191a6118ca565b92915050565b634e487b7160e01b5f52603160045260245ffd5b5f60018201611945576119456118ca565b5060010190565b600181811c9082168061196057607f821691505b60208210810361197e57634e487b7160e01b5f52602260045260245ffd5b50919050565b601f8211156119cb57805f5260205f20601f840160051c810160208510156119a95750805b601f840160051c820191505b818110156119c8575f81556001016119b5565b50505b505050565b815167ffffffffffffffff8111156119ea576119ea611695565b6119fe816119f8845461194c565b84611984565b602080601f831160018114611a31575f8415611a1a5750858301515b5f19600386901b1c1916600185901b178555611a88565b5f85815260208120601f198616915b82811015611a5f57888601518255948401946001909101908401611a40565b5085821015611a7c57878501515f19600388901b60f8161c191681555b505060018460011b0185555b505050505050565b602081525f61157960208301846115a8565b828152604060208201525f6118c260408301846115a856fea2646970667358221220bef808efae1460b83bd35d9b389adbef541f0afeec228873e05a79c55465bbb364736f6c63430008180033",
					"opcodes": "PUSH1 0x80 PUSH1 0x40 MSTORE CALLVALUE DUP1 ISZERO PUSH2 0xF JUMPI PUSH0 DUP1 REVERT JUMPDEST POP PUSH2 0x1AF0 DUP1 PUSH2 0x1D PUSH0 CODECOPY PUSH0 RETURN INVALID PUSH1 0x80 PUSH1 0x40 MSTORE CALLVALUE DUP1 ISZERO PUSH2 0xF JUMPI PUSH0 DUP1 REVERT JUMPDEST POP PUSH1 0x4 CALLDATASIZE LT PUSH2 0xFB JUMPI PUSH0 CALLDATALOAD PUSH1 0xE0 SHR DUP1 PUSH4 0x6EF9C5E6 GT PUSH2 0x93 JUMPI DUP1 PUSH4 0x9A2194A9 GT PUSH2 0x63 JUMPI DUP1 PUSH4 0x9A2194A9 EQ PUSH2 0x255 JUMPI DUP1 PUSH4 0xC2FE2022 EQ PUSH2 0x275 JUMPI DUP1 PUSH4 0xC7303C61 EQ PUSH2 0x288 JUMPI DUP1 PUSH4 0xD8236DFF EQ PUSH2 0x29B JUMPI PUSH0 DUP1 REVERT JUMPDEST DUP1 PUSH4 0x6EF9C5E6 EQ PUSH2 0x1DF JUMPI DUP1 PUSH4 0x7259E0F8 EQ PUSH2 0x1F2 JUMPI DUP1 PUSH4 0x987EE156 EQ PUSH2 0x205 JUMPI DUP1 PUSH4 0x99EC3A42 EQ PUSH2 0x218 JUMPI PUSH0 DUP1 REVERT JUMPDEST DUP1 PUSH4 0x3FFBD47F GT PUSH2 0xCE JUMPI DUP1 PUSH4 0x3FFBD47F EQ PUSH2 0x16B JUMPI DUP1 PUSH4 0x4DBF27CC EQ PUSH2 0x17E JUMPI DUP1 PUSH4 0x5C538DF3 EQ PUSH2 0x191 JUMPI DUP1 PUSH4 0x5D867B94 EQ PUSH2 0x1B4 JUMPI PUSH0 DUP1 REVERT JUMPDEST DUP1 PUSH4 0x15A4EAD EQ PUSH2 0xFF JUMPI DUP1 PUSH4 0x15BF4006 EQ PUSH2 0x114 JUMPI DUP1 PUSH4 0x3640B59C EQ PUSH2 0x127 JUMPI DUP1 PUSH4 0x397388AF EQ PUSH2 0x156 JUMPI JUMPDEST PUSH0 DUP1 REVERT JUMPDEST PUSH2 0x112 PUSH2 0x10D CALLDATASIZE PUSH1 0x4 PUSH2 0x1560 JUMP JUMPDEST PUSH2 0x2AE JUMP JUMPDEST STOP JUMPDEST PUSH2 0x112 PUSH2 0x122 CALLDATASIZE PUSH1 0x4 PUSH2 0x1580 JUMP JUMPDEST PUSH2 0x6E5 JUMP JUMPDEST PUSH2 0x13A PUSH2 0x135 CALLDATASIZE PUSH1 0x4 PUSH2 0x1560 JUMP JUMPDEST PUSH2 0x7B8 JUMP JUMPDEST PUSH1 0x40 MLOAD PUSH2 0x14D SWAP8 SWAP7 SWAP6 SWAP5 SWAP4 SWAP3 SWAP2 SWAP1 PUSH2 0x15EB JUMP JUMPDEST PUSH1 0x40 MLOAD DUP1 SWAP2 SUB SWAP1 RETURN JUMPDEST PUSH2 0x15E PUSH2 0x90C JUMP JUMPDEST PUSH1 0x40 MLOAD PUSH2 0x14D SWAP2 SWAP1 PUSH2 0x1649 JUMP JUMPDEST PUSH2 0x112 PUSH2 0x179 CALLDATASIZE PUSH1 0x4 PUSH2 0x1732 JUMP JUMPDEST PUSH2 0x96C JUMP JUMPDEST PUSH2 0x112 PUSH2 0x18C CALLDATASIZE PUSH1 0x4 PUSH2 0x1560 JUMP JUMPDEST PUSH2 0xB60 JUMP JUMPDEST PUSH2 0x1A4 PUSH2 0x19F CALLDATASIZE PUSH1 0x4 PUSH2 0x1580 JUMP JUMPDEST PUSH2 0xE37 JUMP JUMPDEST PUSH1 0x40 MLOAD PUSH2 0x14D SWAP5 SWAP4 SWAP3 SWAP2 SWAP1 PUSH2 0x1792 JUMP JUMPDEST PUSH2 0x1C7 PUSH2 0x1C2 CALLDATASIZE PUSH1 0x4 PUSH2 0x1580 JUMP JUMPDEST PUSH2 0xF03 JUMP JUMPDEST PUSH1 0x40 MLOAD PUSH1 0x1 PUSH1 0x1 PUSH1 0xA0 SHL SUB SWAP1 SWAP2 AND DUP2 MSTORE PUSH1 0x20 ADD PUSH2 0x14D JUMP JUMPDEST PUSH2 0x1C7 PUSH2 0x1ED CALLDATASIZE PUSH1 0x4 PUSH2 0x1580 JUMP JUMPDEST PUSH2 0xF37 JUMP JUMPDEST PUSH2 0x1C7 PUSH2 0x200 CALLDATASIZE PUSH1 0x4 PUSH2 0x17BD JUMP JUMPDEST PUSH2 0xF50 JUMP JUMPDEST PUSH2 0x13A PUSH2 0x213 CALLDATASIZE PUSH1 0x4 PUSH2 0x1560 JUMP JUMPDEST PUSH2 0xF78 JUMP JUMPDEST PUSH2 0x245 PUSH2 0x226 CALLDATASIZE PUSH1 0x4 PUSH2 0x17D4 JUMP JUMPDEST PUSH1 0x5 PUSH1 0x20 SWAP1 DUP2 MSTORE PUSH0 SWAP3 DUP4 MSTORE PUSH1 0x40 DUP1 DUP5 KECCAK256 SWAP1 SWAP2 MSTORE SWAP1 DUP3 MSTORE SWAP1 KECCAK256 SLOAD PUSH1 0xFF AND DUP2 JUMP JUMPDEST PUSH1 0x40 MLOAD SWAP1 ISZERO ISZERO DUP2 MSTORE PUSH1 0x20 ADD PUSH2 0x14D JUMP JUMPDEST PUSH2 0x268 PUSH2 0x263 CALLDATASIZE PUSH1 0x4 PUSH2 0x1560 JUMP JUMPDEST PUSH2 0x114E JUMP JUMPDEST PUSH1 0x40 MLOAD PUSH2 0x14D SWAP2 SWAP1 PUSH2 0x1805 JUMP JUMPDEST PUSH2 0x15E PUSH2 0x283 CALLDATASIZE PUSH1 0x4 PUSH2 0x1560 JUMP JUMPDEST PUSH2 0x126D JUMP JUMPDEST PUSH2 0x112 PUSH2 0x296 CALLDATASIZE PUSH1 0x4 PUSH2 0x1890 JUMP JUMPDEST PUSH2 0x12E0 JUMP JUMPDEST PUSH2 0x15E PUSH2 0x2A9 CALLDATASIZE PUSH1 0x4 PUSH2 0x1560 JUMP JUMPDEST PUSH2 0x14D4 JUMP JUMPDEST CALLER PUSH0 SWAP1 DUP2 MSTORE PUSH1 0x20 DUP2 SWAP1 MSTORE PUSH1 0x40 SWAP1 KECCAK256 PUSH1 0x6 ADD SLOAD PUSH1 0xFF AND PUSH2 0x2CB JUMPI PUSH0 DUP1 REVERT JUMPDEST PUSH1 0x1 PUSH1 0x1 PUSH1 0xA0 SHL SUB DUP2 AND PUSH0 SWAP1 DUP2 MSTORE PUSH1 0x20 DUP2 SWAP1 MSTORE PUSH1 0x40 SWAP1 KECCAK256 PUSH1 0x6 ADD SLOAD PUSH1 0xFF AND DUP1 PUSH2 0x2FC JUMPI POP PUSH1 0x1 PUSH1 0x1 PUSH1 0xA0 SHL SUB DUP2 AND ISZERO ISZERO JUMPDEST PUSH2 0x304 JUMPI PUSH0 DUP1 REVERT JUMPDEST CALLER PUSH0 SWAP1 DUP2 MSTORE PUSH1 0x5 PUSH1 0x20 SWAP1 DUP2 MSTORE PUSH1 0x40 DUP1 DUP4 KECCAK256 PUSH1 0x1 PUSH1 0x1 PUSH1 0xA0 SHL SUB DUP6 AND DUP5 MSTORE SWAP1 SWAP2 MSTORE SWAP1 KECCAK256 SLOAD PUSH1 0xFF AND ISZERO ISZERO PUSH1 0x1 EQ PUSH2 0x380 JUMPI PUSH1 0x40 MLOAD PUSH3 0x461BCD PUSH1 0xE5 SHL DUP2 MSTORE PUSH1 0x20 PUSH1 0x4 DUP3 ADD MSTORE PUSH1 0x1F PUSH1 0x24 DUP3 ADD MSTORE PUSH32 0x796F7520617265206E6F7420666F6C6C6F77696E672074686973207573657200 PUSH1 0x44 DUP3 ADD MSTORE PUSH1 0x64 ADD JUMPDEST PUSH1 0x40 MLOAD DUP1 SWAP2 SUB SWAP1 REVERT JUMPDEST CALLER PUSH0 SWAP1 DUP2 MSTORE PUSH1 0x20 DUP2 SWAP1 MSTORE PUSH1 0x40 DUP2 KECCAK256 PUSH1 0x4 ADD DUP1 SLOAD SWAP2 PUSH2 0x39D DUP4 PUSH2 0x18DE JUMP JUMPDEST SWAP1 SWAP2 SSTORE POP POP PUSH1 0x1 PUSH1 0x1 PUSH1 0xA0 SHL SUB DUP2 AND PUSH0 SWAP1 DUP2 MSTORE PUSH1 0x20 DUP2 SWAP1 MSTORE PUSH1 0x40 DUP2 KECCAK256 PUSH1 0x3 ADD DUP1 SLOAD SWAP2 PUSH2 0x3C8 DUP4 PUSH2 0x18DE JUMP JUMPDEST SWAP1 SWAP2 SSTORE POP POP CALLER PUSH0 SWAP1 DUP2 MSTORE PUSH1 0x5 PUSH1 0x20 SWAP1 DUP2 MSTORE PUSH1 0x40 DUP1 DUP4 KECCAK256 PUSH1 0x1 PUSH1 0x1 PUSH1 0xA0 SHL SUB DUP6 AND DUP5 MSTORE SWAP1 SWAP2 MSTORE DUP2 KECCAK256 DUP1 SLOAD PUSH1 0xFF NOT AND SWAP1 SSTORE JUMPDEST CALLER PUSH0 SWAP1 DUP2 MSTORE PUSH1 0x2 PUSH1 0x20 MSTORE PUSH1 0x40 SWAP1 KECCAK256 SLOAD DUP2 LT ISZERO PUSH2 0x52B JUMPI CALLER PUSH0 SWAP1 DUP2 MSTORE PUSH1 0x2 PUSH1 0x20 MSTORE PUSH1 0x40 SWAP1 KECCAK256 DUP1 SLOAD PUSH1 0x1 PUSH1 0x1 PUSH1 0xA0 SHL SUB DUP5 AND SWAP2 SWAP1 DUP4 SWAP1 DUP2 LT PUSH2 0x43A JUMPI PUSH2 0x43A PUSH2 0x18F3 JUMP JUMPDEST PUSH0 SWAP2 DUP3 MSTORE PUSH1 0x20 SWAP1 SWAP2 KECCAK256 ADD SLOAD PUSH1 0x1 PUSH1 0x1 PUSH1 0xA0 SHL SUB AND SUB PUSH2 0x523 JUMPI CALLER PUSH0 SWAP1 DUP2 MSTORE PUSH1 0x2 PUSH1 0x20 MSTORE PUSH1 0x40 SWAP1 KECCAK256 DUP1 SLOAD PUSH2 0x46F SWAP1 PUSH1 0x1 SWAP1 PUSH2 0x1907 JUMP JUMPDEST DUP2 SLOAD DUP2 LT PUSH2 0x47F JUMPI PUSH2 0x47F PUSH2 0x18F3 JUMP JUMPDEST PUSH0 SWAP2 DUP3 MSTORE PUSH1 0x20 DUP1 DUP4 KECCAK256 SWAP1 SWAP2 ADD SLOAD CALLER DUP4 MSTORE PUSH1 0x2 SWAP1 SWAP2 MSTORE PUSH1 0x40 SWAP1 SWAP2 KECCAK256 DUP1 SLOAD PUSH1 0x1 PUSH1 0x1 PUSH1 0xA0 SHL SUB SWAP1 SWAP3 AND SWAP2 DUP4 SWAP1 DUP2 LT PUSH2 0x4B7 JUMPI PUSH2 0x4B7 PUSH2 0x18F3 JUMP JUMPDEST PUSH0 SWAP2 DUP3 MSTORE PUSH1 0x20 DUP1 DUP4 KECCAK256 SWAP2 SWAP1 SWAP2 ADD DUP1 SLOAD PUSH1 0x1 PUSH1 0x1 PUSH1 0xA0 SHL SUB NOT AND PUSH1 0x1 PUSH1 0x1 PUSH1 0xA0 SHL SUB SWAP5 SWAP1 SWAP5 AND SWAP4 SWAP1 SWAP4 OR SWAP1 SWAP3 SSTORE CALLER DUP2 MSTORE PUSH1 0x2 SWAP1 SWAP2 MSTORE PUSH1 0x40 SWAP1 KECCAK256 DUP1 SLOAD DUP1 PUSH2 0x4FE JUMPI PUSH2 0x4FE PUSH2 0x1920 JUMP JUMPDEST PUSH0 DUP3 DUP2 MSTORE PUSH1 0x20 SWAP1 KECCAK256 DUP2 ADD PUSH0 NOT SWAP1 DUP2 ADD DUP1 SLOAD PUSH1 0x1 PUSH1 0x1 PUSH1 0xA0 SHL SUB NOT AND SWAP1 SSTORE ADD SWAP1 SSTORE PUSH2 0x52B JUMP JUMPDEST PUSH1 0x1 ADD PUSH2 0x3F8 JUMP JUMPDEST POP PUSH0 JUMPDEST PUSH1 0x1 PUSH1 0x1 PUSH1 0xA0 SHL SUB DUP3 AND PUSH0 SWAP1 DUP2 MSTORE PUSH1 0x3 PUSH1 0x20 MSTORE PUSH1 0x40 SWAP1 KECCAK256 SLOAD DUP2 LT ISZERO PUSH2 0x677 JUMPI PUSH1 0x1 PUSH1 0x1 PUSH1 0xA0 SHL SUB DUP3 AND PUSH0 SWAP1 DUP2 MSTORE PUSH1 0x3 PUSH1 0x20 MSTORE PUSH1 0x40 SWAP1 KECCAK256 DUP1 SLOAD CALLER SWAP2 SWAP1 DUP4 SWAP1 DUP2 LT PUSH2 0x579 JUMPI PUSH2 0x579 PUSH2 0x18F3 JUMP JUMPDEST PUSH0 SWAP2 DUP3 MSTORE PUSH1 0x20 SWAP1 SWAP2 KECCAK256 ADD SLOAD PUSH1 0x1 PUSH1 0x1 PUSH1 0xA0 SHL SUB AND SUB PUSH2 0x66F JUMPI PUSH1 0x1 PUSH1 0x1 PUSH1 0xA0 SHL SUB DUP3 AND PUSH0 SWAP1 DUP2 MSTORE PUSH1 0x3 PUSH1 0x20 MSTORE PUSH1 0x40 SWAP1 KECCAK256 DUP1 SLOAD PUSH2 0x5B7 SWAP1 PUSH1 0x1 SWAP1 PUSH2 0x1907 JUMP JUMPDEST DUP2 SLOAD DUP2 LT PUSH2 0x5C7 JUMPI PUSH2 0x5C7 PUSH2 0x18F3 JUMP JUMPDEST PUSH0 SWAP2 DUP3 MSTORE PUSH1 0x20 DUP1 DUP4 KECCAK256 SWAP1 SWAP2 ADD SLOAD PUSH1 0x1 PUSH1 0x1 PUSH1 0xA0 SHL SUB DUP6 DUP2 AND DUP5 MSTORE PUSH1 0x3 SWAP1 SWAP3 MSTORE PUSH1 0x40 SWAP1 SWAP3 KECCAK256 DUP1 SLOAD SWAP2 SWAP1 SWAP3 AND SWAP2 SWAP1 DUP4 SWAP1 DUP2 LT PUSH2 0x603 JUMPI PUSH2 0x603 PUSH2 0x18F3 JUMP JUMPDEST PUSH0 SWAP2 DUP3 MSTORE PUSH1 0x20 DUP1 DUP4 KECCAK256 SWAP2 SWAP1 SWAP2 ADD DUP1 SLOAD PUSH1 0x1 PUSH1 0x1 PUSH1 0xA0 SHL SUB NOT AND PUSH1 0x1 PUSH1 0x1 PUSH1 0xA0 SHL SUB SWAP5 SWAP1 SWAP5 AND SWAP4 SWAP1 SWAP4 OR SWAP1 SWAP3 SSTORE CALLER DUP2 MSTORE PUSH1 0x3 SWAP1 SWAP2 MSTORE PUSH1 0x40 SWAP1 KECCAK256 DUP1 SLOAD DUP1 PUSH2 0x64A JUMPI PUSH2 0x64A PUSH2 0x1920 JUMP JUMPDEST PUSH0 DUP3 DUP2 MSTORE PUSH1 0x20 SWAP1 KECCAK256 DUP2 ADD PUSH0 NOT SWAP1 DUP2 ADD DUP1 SLOAD PUSH1 0x1 PUSH1 0x1 PUSH1 0xA0 SHL SUB NOT AND SWAP1 SSTORE ADD SWAP1 SSTORE PUSH2 0x677 JUMP JUMPDEST PUSH1 0x1 ADD PUSH2 0x52E JUMP JUMPDEST POP PUSH1 0x40 MLOAD PUSH1 0x1 PUSH1 0x1 PUSH1 0xA0 SHL SUB DUP3 AND SWAP1 CALLER SWAP1 PUSH32 0xC4FCF85D2922021BE4B25FB2740AAC325249759A5495C3CC208C7B263C0D78E1 SWAP1 PUSH0 SWAP1 LOG3 PUSH1 0x40 MLOAD CALLER SWAP1 PUSH1 0x1 PUSH1 0x1 PUSH1 0xA0 SHL SUB DUP4 AND SWAP1 PUSH32 0xFEB001297B1CCACCD4DA3C424A5E14E436657829595D94FB7E24DD770AF35FE3 SWAP1 PUSH0 SWAP1 LOG3 POP JUMP JUMPDEST CALLER PUSH0 SWAP1 DUP2 MSTORE PUSH1 0x20 DUP2 SWAP1 MSTORE PUSH1 0x40 SWAP1 KECCAK256 PUSH1 0x6 ADD SLOAD PUSH1 0xFF AND PUSH2 0x702 JUMPI PUSH0 DUP1 REVERT JUMPDEST PUSH1 0x1 PUSH1 0x1 PUSH1 0xA0 SHL SUB DUP3 AND PUSH0 SWAP1 DUP2 MSTORE PUSH1 0x4 PUSH1 0x20 MSTORE PUSH1 0x40 SWAP1 KECCAK256 SLOAD PUSH2 0x766 JUMPI PUSH1 0x40 MLOAD PUSH3 0x461BCD PUSH1 0xE5 SHL DUP2 MSTORE PUSH1 0x20 PUSH1 0x4 DUP3 ADD MSTORE PUSH1 0x1C PUSH1 0x24 DUP3 ADD MSTORE PUSH32 0x796F752068617665206E6F7420706F7374656420616E797468696E6700000000 PUSH1 0x44 DUP3 ADD MSTORE PUSH1 0x64 ADD PUSH2 0x377 JUMP JUMPDEST PUSH1 0x1 PUSH1 0x1 PUSH1 0xA0 SHL SUB DUP3 AND PUSH0 SWAP1 DUP2 MSTORE PUSH1 0x4 PUSH1 0x20 MSTORE PUSH1 0x40 SWAP1 KECCAK256 DUP1 SLOAD DUP2 SWAP1 DUP4 SWAP1 DUP2 LT PUSH2 0x791 JUMPI PUSH2 0x791 PUSH2 0x18F3 JUMP JUMPDEST PUSH0 SWAP2 DUP3 MSTORE PUSH1 0x20 DUP3 KECCAK256 PUSH1 0x2 PUSH1 0x4 SWAP1 SWAP3 MUL ADD ADD DUP1 SLOAD SWAP2 PUSH2 0x7AE DUP4 PUSH2 0x1934 JUMP JUMPDEST SWAP2 SWAP1 POP SSTORE POP POP POP POP JUMP JUMPDEST PUSH0 PUSH1 0x20 DUP2 SWAP1 MSTORE SWAP1 DUP2 MSTORE PUSH1 0x40 SWAP1 KECCAK256 DUP1 SLOAD PUSH1 0x1 DUP3 ADD DUP1 SLOAD PUSH1 0x1 PUSH1 0x1 PUSH1 0xA0 SHL SUB SWAP1 SWAP3 AND SWAP3 SWAP2 PUSH2 0x7E3 SWAP1 PUSH2 0x194C JUMP JUMPDEST DUP1 PUSH1 0x1F ADD PUSH1 0x20 DUP1 SWAP2 DIV MUL PUSH1 0x20 ADD PUSH1 0x40 MLOAD SWAP1 DUP2 ADD PUSH1 0x40 MSTORE DUP1 SWAP3 SWAP2 SWAP1 DUP2 DUP2 MSTORE PUSH1 0x20 ADD DUP3 DUP1 SLOAD PUSH2 0x80F SWAP1 PUSH2 0x194C JUMP JUMPDEST DUP1 ISZERO PUSH2 0x85A JUMPI DUP1 PUSH1 0x1F LT PUSH2 0x831 JUMPI PUSH2 0x100 DUP1 DUP4 SLOAD DIV MUL DUP4 MSTORE SWAP2 PUSH1 0x20 ADD SWAP2 PUSH2 0x85A JUMP JUMPDEST DUP3 ADD SWAP2 SWAP1 PUSH0 MSTORE PUSH1 0x20 PUSH0 KECCAK256 SWAP1 JUMPDEST DUP2 SLOAD DUP2 MSTORE SWAP1 PUSH1 0x1 ADD SWAP1 PUSH1 0x20 ADD DUP1 DUP4 GT PUSH2 0x83D JUMPI DUP3 SWAP1 SUB PUSH1 0x1F AND DUP3 ADD SWAP2 JUMPDEST POP POP POP POP POP SWAP1 DUP1 PUSH1 0x2 ADD DUP1 SLOAD PUSH2 0x86F SWAP1 PUSH2 0x194C JUMP JUMPDEST DUP1 PUSH1 0x1F ADD PUSH1 0x20 DUP1 SWAP2 DIV MUL PUSH1 0x20 ADD PUSH1 0x40 MLOAD SWAP1 DUP2 ADD PUSH1 0x40 MSTORE DUP1 SWAP3 SWAP2 SWAP1 DUP2 DUP2 MSTORE PUSH1 0x20 ADD DUP3 DUP1 SLOAD PUSH2 0x89B SWAP1 PUSH2 0x194C JUMP JUMPDEST DUP1 ISZERO PUSH2 0x8E6 JUMPI DUP1 PUSH1 0x1F LT PUSH2 0x8BD JUMPI PUSH2 0x100 DUP1 DUP4 SLOAD DIV MUL DUP4 MSTORE SWAP2 PUSH1 0x20 ADD SWAP2 PUSH2 0x8E6 JUMP JUMPDEST DUP3 ADD SWAP2 SWAP1 PUSH0 MSTORE PUSH1 0x20 PUSH0 KECCAK256 SWAP1 JUMPDEST DUP2 SLOAD DUP2 MSTORE SWAP1 PUSH1 0x1 ADD SWAP1 PUSH1 0x20 ADD DUP1 DUP4 GT PUSH2 0x8C9 JUMPI DUP3 SWAP1 SUB PUSH1 0x1F AND DUP3 ADD SWAP2 JUMPDEST POP POP POP POP PUSH1 0x3 DUP4 ADD SLOAD PUSH1 0x4 DUP5 ADD SLOAD PUSH1 0x5 DUP6 ADD SLOAD PUSH1 0x6 SWAP1 SWAP6 ADD SLOAD SWAP4 SWAP5 SWAP2 SWAP4 SWAP1 SWAP3 POP PUSH1 0xFF AND DUP8 JUMP JUMPDEST PUSH1 0x60 PUSH1 0x1 DUP1 SLOAD DUP1 PUSH1 0x20 MUL PUSH1 0x20 ADD PUSH1 0x40 MLOAD SWAP1 DUP2 ADD PUSH1 0x40 MSTORE DUP1 SWAP3 SWAP2 SWAP1 DUP2 DUP2 MSTORE PUSH1 0x20 ADD DUP3 DUP1 SLOAD DUP1 ISZERO PUSH2 0x962 JUMPI PUSH1 0x20 MUL DUP3 ADD SWAP2 SWAP1 PUSH0 MSTORE PUSH1 0x20 PUSH0 KECCAK256 SWAP1 JUMPDEST DUP2 SLOAD PUSH1 0x1 PUSH1 0x1 PUSH1 0xA0 SHL SUB AND DUP2 MSTORE PUSH1 0x1 SWAP1 SWAP2 ADD SWAP1 PUSH1 0x20 ADD DUP1 DUP4 GT PUSH2 0x944 JUMPI JUMPDEST POP POP POP POP POP SWAP1 POP SWAP1 JUMP JUMPDEST CALLER PUSH0 SWAP1 DUP2 MSTORE PUSH1 0x20 DUP2 SWAP1 MSTORE PUSH1 0x40 SWAP1 KECCAK256 PUSH1 0x6 ADD SLOAD PUSH1 0xFF AND ISZERO PUSH2 0x9CE JUMPI PUSH1 0x40 MLOAD PUSH3 0x461BCD PUSH1 0xE5 SHL DUP2 MSTORE PUSH1 0x20 PUSH1 0x4 DUP3 ADD MSTORE PUSH1 0x18 PUSH1 0x24 DUP3 ADD MSTORE PUSH32 0x5573657220697320416C72656164792052656769737465720000000000000000 PUSH1 0x44 DUP3 ADD MSTORE PUSH1 0x64 ADD PUSH2 0x377 JUMP JUMPDEST PUSH0 DUP2 MLOAD GT PUSH2 0xA1E JUMPI PUSH1 0x40 MLOAD PUSH3 0x461BCD PUSH1 0xE5 SHL DUP2 MSTORE PUSH1 0x20 PUSH1 0x4 DUP3 ADD MSTORE PUSH1 0x19 PUSH1 0x24 DUP3 ADD MSTORE PUSH32 0x757365726E616D652063616E206E6F7420626520656D70747900000000000000 PUSH1 0x44 DUP3 ADD MSTORE PUSH1 0x64 ADD PUSH2 0x377 JUMP JUMPDEST PUSH1 0x40 DUP1 MLOAD PUSH1 0xE0 DUP2 ADD DUP3 MSTORE CALLER DUP1 DUP3 MSTORE PUSH1 0x20 DUP1 DUP4 ADD DUP6 DUP2 MSTORE DUP4 DUP6 ADD DUP8 SWAP1 MSTORE PUSH0 PUSH1 0x60 DUP6 ADD DUP2 SWAP1 MSTORE PUSH1 0x80 DUP6 ADD DUP2 SWAP1 MSTORE PUSH1 0xA0 DUP6 ADD DUP2 SWAP1 MSTORE PUSH1 0x1 PUSH1 0xC0 DUP7 ADD DUP2 SWAP1 MSTORE SWAP4 DUP2 MSTORE SWAP2 DUP3 SWAP1 MSTORE SWAP4 SWAP1 KECCAK256 DUP3 MLOAD DUP2 SLOAD PUSH1 0x1 PUSH1 0x1 PUSH1 0xA0 SHL SUB NOT AND PUSH1 0x1 PUSH1 0x1 PUSH1 0xA0 SHL SUB SWAP1 SWAP2 AND OR DUP2 SSTORE SWAP3 MLOAD SWAP2 SWAP3 SWAP2 SWAP1 DUP3 ADD SWAP1 PUSH2 0xA92 SWAP1 DUP3 PUSH2 0x19D0 JUMP JUMPDEST POP PUSH1 0x40 DUP3 ADD MLOAD PUSH1 0x2 DUP3 ADD SWAP1 PUSH2 0xAA7 SWAP1 DUP3 PUSH2 0x19D0 JUMP JUMPDEST POP PUSH1 0x60 DUP3 ADD MLOAD PUSH1 0x3 DUP3 ADD SSTORE PUSH1 0x80 DUP3 ADD MLOAD PUSH1 0x4 DUP3 ADD SSTORE PUSH1 0xA0 DUP3 ADD MLOAD PUSH1 0x5 DUP3 ADD SSTORE PUSH1 0xC0 SWAP1 SWAP2 ADD MLOAD PUSH1 0x6 SWAP1 SWAP2 ADD DUP1 SLOAD PUSH1 0xFF NOT AND SWAP2 ISZERO ISZERO SWAP2 SWAP1 SWAP2 OR SWAP1 SSTORE PUSH1 0x1 DUP1 SLOAD DUP1 DUP3 ADD DUP3 SSTORE PUSH0 SWAP2 SWAP1 SWAP2 MSTORE PUSH32 0xB10E2D527612073B26EECDFD717E6A320CF44B4AFAC2B0732D9FCBE2B7FA0CF6 ADD DUP1 SLOAD CALLER PUSH1 0x1 PUSH1 0x1 PUSH1 0xA0 SHL SUB NOT SWAP1 SWAP2 AND DUP2 OR SWAP1 SWAP2 SSTORE PUSH1 0x40 MLOAD PUSH32 0xB9E8B87F353953F556F9FE29E669E0CB209DF2B1AD6DBD89EEC993E0E60B5DEA SWAP1 PUSH2 0xB54 SWAP1 DUP5 SWAP1 PUSH2 0x1A90 JUMP JUMPDEST PUSH1 0x40 MLOAD DUP1 SWAP2 SUB SWAP1 LOG2 POP POP JUMP JUMPDEST CALLER PUSH0 SWAP1 DUP2 MSTORE PUSH1 0x20 DUP2 SWAP1 MSTORE PUSH1 0x40 SWAP1 KECCAK256 PUSH1 0x6 ADD SLOAD PUSH1 0xFF AND PUSH2 0xBBA JUMPI PUSH1 0x40 MLOAD PUSH3 0x461BCD PUSH1 0xE5 SHL DUP2 MSTORE PUSH1 0x20 PUSH1 0x4 DUP3 ADD MSTORE PUSH1 0x16 PUSH1 0x24 DUP3 ADD MSTORE PUSH22 0x3CB7BA9030B932903737BA103932B3B4B9BA32B932B9 PUSH1 0x51 SHL PUSH1 0x44 DUP3 ADD MSTORE PUSH1 0x64 ADD PUSH2 0x377 JUMP JUMPDEST PUSH1 0x1 PUSH1 0x1 PUSH1 0xA0 SHL SUB DUP2 AND PUSH0 SWAP1 DUP2 MSTORE PUSH1 0x20 DUP2 SWAP1 MSTORE PUSH1 0x40 SWAP1 KECCAK256 PUSH1 0x6 ADD SLOAD PUSH1 0xFF AND DUP1 PUSH2 0xBEB JUMPI POP PUSH1 0x1 PUSH1 0x1 PUSH1 0xA0 SHL SUB DUP2 AND ISZERO ISZERO JUMPDEST PUSH2 0xC37 JUMPI PUSH1 0x40 MLOAD PUSH3 0x461BCD PUSH1 0xE5 SHL DUP2 MSTORE PUSH1 0x20 PUSH1 0x4 DUP3 ADD MSTORE PUSH1 0x1F PUSH1 0x24 DUP3 ADD MSTORE PUSH32 0x596F7520667269656E642061646472657373206973206E6F742076616C696400 PUSH1 0x44 DUP3 ADD MSTORE PUSH1 0x64 ADD PUSH2 0x377 JUMP JUMPDEST CALLER PUSH1 0x1 PUSH1 0x1 PUSH1 0xA0 SHL SUB DUP3 AND SUB PUSH2 0xC8F JUMPI PUSH1 0x40 MLOAD PUSH3 0x461BCD PUSH1 0xE5 SHL DUP2 MSTORE PUSH1 0x20 PUSH1 0x4 DUP3 ADD MSTORE PUSH1 0x18 PUSH1 0x24 DUP3 ADD MSTORE PUSH32 0x796F752063616E7420666F6C6C6F7720796F757273656C660000000000000000 PUSH1 0x44 DUP3 ADD MSTORE PUSH1 0x64 ADD PUSH2 0x377 JUMP JUMPDEST CALLER PUSH0 SWAP1 DUP2 MSTORE PUSH1 0x5 PUSH1 0x20 SWAP1 DUP2 MSTORE PUSH1 0x40 DUP1 DUP4 KECCAK256 PUSH1 0x1 PUSH1 0x1 PUSH1 0xA0 SHL SUB DUP6 AND DUP5 MSTORE SWAP1 SWAP2 MSTORE SWAP1 KECCAK256 SLOAD PUSH1 0xFF AND ISZERO PUSH2 0xD0E JUMPI PUSH1 0x40 MLOAD PUSH3 0x461BCD PUSH1 0xE5 SHL DUP2 MSTORE PUSH1 0x20 PUSH1 0x4 DUP3 ADD MSTORE PUSH1 0x23 PUSH1 0x24 DUP3 ADD MSTORE PUSH32 0x796F752061726520616C726561647920666F6C6C6F77696E6720746869732075 PUSH1 0x44 DUP3 ADD MSTORE PUSH3 0x39B2B9 PUSH1 0xE9 SHL PUSH1 0x64 DUP3 ADD MSTORE PUSH1 0x84 ADD PUSH2 0x377 JUMP JUMPDEST PUSH1 0x1 PUSH1 0x1 PUSH1 0xA0 SHL SUB DUP2 AND PUSH0 SWAP1 DUP2 MSTORE PUSH1 0x20 DUP2 SWAP1 MSTORE PUSH1 0x40 DUP2 KECCAK256 PUSH1 0x3 ADD DUP1 SLOAD SWAP2 PUSH2 0xD34 DUP4 PUSH2 0x1934 JUMP JUMPDEST SWAP1 SWAP2 SSTORE POP POP CALLER PUSH0 SWAP1 DUP2 MSTORE PUSH1 0x20 DUP2 SWAP1 MSTORE PUSH1 0x40 DUP2 KECCAK256 PUSH1 0x4 ADD DUP1 SLOAD SWAP2 PUSH2 0xD56 DUP4 PUSH2 0x1934 JUMP JUMPDEST SWAP1 SWAP2 SSTORE POP POP CALLER PUSH0 DUP2 DUP2 MSTORE PUSH1 0x2 PUSH1 0x20 SWAP1 DUP2 MSTORE PUSH1 0x40 DUP1 DUP4 KECCAK256 DUP1 SLOAD PUSH1 0x1 DUP2 DUP2 ADD DUP4 SSTORE SWAP2 DUP6 MSTORE DUP4 DUP6 KECCAK256 ADD DUP1 SLOAD PUSH1 0x1 PUSH1 0x1 PUSH1 0xA0 SHL SUB DUP9 AND PUSH1 0x1 PUSH1 0x1 PUSH1 0xA0 SHL SUB NOT SWAP2 DUP3 AND DUP2 OR SWAP1 SWAP3 SSTORE DUP2 DUP7 MSTORE PUSH1 0x3 DUP6 MSTORE DUP4 DUP7 KECCAK256 DUP1 SLOAD DUP1 DUP6 ADD DUP3 SSTORE SWAP1 DUP8 MSTORE DUP6 DUP8 KECCAK256 ADD DUP1 SLOAD SWAP1 SWAP2 AND DUP8 OR SWAP1 SSTORE DUP6 DUP6 MSTORE PUSH1 0x5 DUP5 MSTORE DUP3 DUP6 KECCAK256 DUP2 DUP7 MSTORE SWAP1 SWAP4 MSTORE DUP2 DUP5 KECCAK256 DUP1 SLOAD PUSH1 0xFF NOT AND SWAP1 SWAP2 OR SWAP1 SSTORE MLOAD SWAP1 SWAP3 SWAP2 PUSH32 0xC4FCF85D2922021BE4B25FB2740AAC325249759A5495C3CC208C7B263C0D78E1 SWAP2 LOG3 PUSH1 0x40 MLOAD CALLER SWAP1 PUSH1 0x1 PUSH1 0x1 PUSH1 0xA0 SHL SUB DUP4 AND SWAP1 PUSH32 0xFEB001297B1CCACCD4DA3C424A5E14E436657829595D94FB7E24DD770AF35FE3 SWAP1 PUSH0 SWAP1 LOG3 POP JUMP JUMPDEST PUSH1 0x4 PUSH1 0x20 MSTORE DUP2 PUSH0 MSTORE PUSH1 0x40 PUSH0 KECCAK256 DUP2 DUP2 SLOAD DUP2 LT PUSH2 0xE50 JUMPI PUSH0 DUP1 REVERT JUMPDEST SWAP1 PUSH0 MSTORE PUSH1 0x20 PUSH0 KECCAK256 SWAP1 PUSH1 0x4 MUL ADD PUSH0 SWAP2 POP SWAP2 POP POP DUP1 PUSH0 ADD SLOAD SWAP1 DUP1 PUSH1 0x1 ADD DUP1 SLOAD PUSH2 0xE76 SWAP1 PUSH2 0x194C JUMP JUMPDEST DUP1 PUSH1 0x1F ADD PUSH1 0x20 DUP1 SWAP2 DIV MUL PUSH1 0x20 ADD PUSH1 0x40 MLOAD SWAP1 DUP2 ADD PUSH1 0x40 MSTORE DUP1 SWAP3 SWAP2 SWAP1 DUP2 DUP2 MSTORE PUSH1 0x20 ADD DUP3 DUP1 SLOAD PUSH2 0xEA2 SWAP1 PUSH2 0x194C JUMP JUMPDEST DUP1 ISZERO PUSH2 0xEED JUMPI DUP1 PUSH1 0x1F LT PUSH2 0xEC4 JUMPI PUSH2 0x100 DUP1 DUP4 SLOAD DIV MUL DUP4 MSTORE SWAP2 PUSH1 0x20 ADD SWAP2 PUSH2 0xEED JUMP JUMPDEST DUP3 ADD SWAP2 SWAP1 PUSH0 MSTORE PUSH1 0x20 PUSH0 KECCAK256 SWAP1 JUMPDEST DUP2 SLOAD DUP2 MSTORE SWAP1 PUSH1 0x1 ADD SWAP1 PUSH1 0x20 ADD DUP1 DUP4 GT PUSH2 0xED0 JUMPI DUP3 SWAP1 SUB PUSH1 0x1F AND DUP3 ADD SWAP2 JUMPDEST POP POP POP POP POP SWAP1 DUP1 PUSH1 0x2 ADD SLOAD SWAP1 DUP1 PUSH1 0x3 ADD SLOAD SWAP1 POP DUP5 JUMP JUMPDEST PUSH1 0x3 PUSH1 0x20 MSTORE DUP2 PUSH0 MSTORE PUSH1 0x40 PUSH0 KECCAK256 DUP2 DUP2 SLOAD DUP2 LT PUSH2 0xF1C JUMPI PUSH0 DUP1 REVERT JUMPDEST PUSH0 SWAP2 DUP3 MSTORE PUSH1 0x20 SWAP1 SWAP2 KECCAK256 ADD SLOAD PUSH1 0x1 PUSH1 0x1 PUSH1 0xA0 SHL SUB AND SWAP2 POP DUP3 SWAP1 POP JUMP JUMPDEST PUSH1 0x2 PUSH1 0x20 MSTORE DUP2 PUSH0 MSTORE PUSH1 0x40 PUSH0 KECCAK256 DUP2 DUP2 SLOAD DUP2 LT PUSH2 0xF1C JUMPI PUSH0 DUP1 REVERT JUMPDEST PUSH1 0x1 DUP2 DUP2 SLOAD DUP2 LT PUSH2 0xF5F JUMPI PUSH0 DUP1 REVERT JUMPDEST PUSH0 SWAP2 DUP3 MSTORE PUSH1 0x20 SWAP1 SWAP2 KECCAK256 ADD SLOAD PUSH1 0x1 PUSH1 0x1 PUSH1 0xA0 SHL SUB AND SWAP1 POP DUP2 JUMP JUMPDEST PUSH1 0x1 PUSH1 0x1 PUSH1 0xA0 SHL SUB DUP1 DUP3 AND PUSH0 SWAP1 DUP2 MSTORE PUSH1 0x20 DUP2 DUP2 MSTORE PUSH1 0x40 DUP1 DUP4 KECCAK256 DUP2 MLOAD PUSH1 0xE0 DUP2 ADD SWAP1 SWAP3 MSTORE DUP1 SLOAD SWAP1 SWAP5 AND DUP2 MSTORE PUSH1 0x1 DUP5 ADD DUP1 SLOAD SWAP4 SWAP5 PUSH1 0x60 SWAP5 DUP6 SWAP5 DUP8 SWAP5 DUP6 SWAP5 DUP6 SWAP5 DUP6 SWAP5 DUP6 SWAP5 SWAP2 SWAP3 SWAP2 DUP5 ADD SWAP2 SWAP1 PUSH2 0xFC8 SWAP1 PUSH2 0x194C JUMP JUMPDEST DUP1 PUSH1 0x1F ADD PUSH1 0x20 DUP1 SWAP2 DIV MUL PUSH1 0x20 ADD PUSH1 0x40 MLOAD SWAP1 DUP2 ADD PUSH1 0x40 MSTORE DUP1 SWAP3 SWAP2 SWAP1 DUP2 DUP2 MSTORE PUSH1 0x20 ADD DUP3 DUP1 SLOAD PUSH2 0xFF4 SWAP1 PUSH2 0x194C JUMP JUMPDEST DUP1 ISZERO PUSH2 0x103F JUMPI DUP1 PUSH1 0x1F LT PUSH2 0x1016 JUMPI PUSH2 0x100 DUP1 DUP4 SLOAD DIV MUL DUP4 MSTORE SWAP2 PUSH1 0x20 ADD SWAP2 PUSH2 0x103F JUMP JUMPDEST DUP3 ADD SWAP2 SWAP1 PUSH0 MSTORE PUSH1 0x20 PUSH0 KECCAK256 SWAP1 JUMPDEST DUP2 SLOAD DUP2 MSTORE SWAP1 PUSH1 0x1 ADD SWAP1 PUSH1 0x20 ADD DUP1 DUP4 GT PUSH2 0x1022 JUMPI DUP3 SWAP1 SUB PUSH1 0x1F AND DUP3 ADD SWAP2 JUMPDEST POP POP POP POP POP DUP2 MSTORE PUSH1 0x20 ADD PUSH1 0x2 DUP3 ADD DUP1 SLOAD PUSH2 0x1058 SWAP1 PUSH2 0x194C JUMP JUMPDEST DUP1 PUSH1 0x1F ADD PUSH1 0x20 DUP1 SWAP2 DIV MUL PUSH1 0x20 ADD PUSH1 0x40 MLOAD SWAP1 DUP2 ADD PUSH1 0x40 MSTORE DUP1 SWAP3 SWAP2 SWAP1 DUP2 DUP2 MSTORE PUSH1 0x20 ADD DUP3 DUP1 SLOAD PUSH2 0x1084 SWAP1 PUSH2 0x194C JUMP JUMPDEST DUP1 ISZERO PUSH2 0x10CF JUMPI DUP1 PUSH1 0x1F LT PUSH2 0x10A6 JUMPI PUSH2 0x100 DUP1 DUP4 SLOAD DIV MUL DUP4 MSTORE SWAP2 PUSH1 0x20 ADD SWAP2 PUSH2 0x10CF JUMP JUMPDEST DUP3 ADD SWAP2 SWAP1 PUSH0 MSTORE PUSH1 0x20 PUSH0 KECCAK256 SWAP1 JUMPDEST DUP2 SLOAD DUP2 MSTORE SWAP1 PUSH1 0x1 ADD SWAP1 PUSH1 0x20 ADD DUP1 DUP4 GT PUSH2 0x10B2 JUMPI DUP3 SWAP1 SUB PUSH1 0x1F AND DUP3 ADD SWAP2 JUMPDEST POP POP POP POP POP DUP2 MSTORE PUSH1 0x20 ADD PUSH1 0x3 DUP3 ADD SLOAD DUP2 MSTORE PUSH1 0x20 ADD PUSH1 0x4 DUP3 ADD SLOAD DUP2 MSTORE PUSH1 0x20 ADD PUSH1 0x5 DUP3 ADD SLOAD DUP2 MSTORE PUSH1 0x20 ADD PUSH1 0x6 DUP3 ADD PUSH0 SWAP1 SLOAD SWAP1 PUSH2 0x100 EXP SWAP1 DIV PUSH1 0xFF AND ISZERO ISZERO ISZERO ISZERO DUP2 MSTORE POP POP SWAP1 POP DUP1 PUSH0 ADD MLOAD DUP2 PUSH1 0x20 ADD MLOAD DUP3 PUSH1 0x40 ADD MLOAD DUP4 PUSH1 0x60 ADD MLOAD DUP5 PUSH1 0x80 ADD MLOAD DUP6 PUSH1 0xA0 ADD MLOAD DUP7 PUSH1 0xC0 ADD MLOAD SWAP8 POP SWAP8 POP SWAP8 POP SWAP8 POP SWAP8 POP SWAP8 POP SWAP8 POP POP SWAP2 SWAP4 SWAP6 SWAP8 SWAP1 SWAP3 SWAP5 SWAP7 POP JUMP JUMPDEST PUSH1 0x1 PUSH1 0x1 PUSH1 0xA0 SHL SUB DUP2 AND PUSH0 SWAP1 DUP2 MSTORE PUSH1 0x4 PUSH1 0x20 SWAP1 DUP2 MSTORE PUSH1 0x40 DUP1 DUP4 KECCAK256 DUP1 SLOAD DUP3 MLOAD DUP2 DUP6 MUL DUP2 ADD DUP6 ADD SWAP1 SWAP4 MSTORE DUP1 DUP4 MSTORE PUSH1 0x60 SWAP5 SWAP3 SWAP4 SWAP2 SWAP3 SWAP1 SWAP2 DUP5 ADD JUMPDEST DUP3 DUP3 LT ISZERO PUSH2 0x1262 JUMPI DUP4 DUP3 SWAP1 PUSH0 MSTORE PUSH1 0x20 PUSH0 KECCAK256 SWAP1 PUSH1 0x4 MUL ADD PUSH1 0x40 MLOAD DUP1 PUSH1 0x80 ADD PUSH1 0x40 MSTORE SWAP1 DUP2 PUSH0 DUP3 ADD SLOAD DUP2 MSTORE PUSH1 0x20 ADD PUSH1 0x1 DUP3 ADD DUP1 SLOAD PUSH2 0x11BF SWAP1 PUSH2 0x194C JUMP JUMPDEST DUP1 PUSH1 0x1F ADD PUSH1 0x20 DUP1 SWAP2 DIV MUL PUSH1 0x20 ADD PUSH1 0x40 MLOAD SWAP1 DUP2 ADD PUSH1 0x40 MSTORE DUP1 SWAP3 SWAP2 SWAP1 DUP2 DUP2 MSTORE PUSH1 0x20 ADD DUP3 DUP1 SLOAD PUSH2 0x11EB SWAP1 PUSH2 0x194C JUMP JUMPDEST DUP1 ISZERO PUSH2 0x1236 JUMPI DUP1 PUSH1 0x1F LT PUSH2 0x120D JUMPI PUSH2 0x100 DUP1 DUP4 SLOAD DIV MUL DUP4 MSTORE SWAP2 PUSH1 0x20 ADD SWAP2 PUSH2 0x1236 JUMP JUMPDEST DUP3 ADD SWAP2 SWAP1 PUSH0 MSTORE PUSH1 0x20 PUSH0 KECCAK256 SWAP1 JUMPDEST DUP2 SLOAD DUP2 MSTORE SWAP1 PUSH1 0x1 ADD SWAP1 PUSH1 0x20 ADD DUP1 DUP4 GT PUSH2 0x1219 JUMPI DUP3 SWAP1 SUB PUSH1 0x1F AND DUP3 ADD SWAP2 JUMPDEST POP POP POP POP POP DUP2 MSTORE PUSH1 0x20 ADD PUSH1 0x2 DUP3 ADD SLOAD DUP2 MSTORE PUSH1 0x20 ADD PUSH1 0x3 DUP3 ADD SLOAD DUP2 MSTORE POP POP DUP2 MSTORE PUSH1 0x20 ADD SWAP1 PUSH1 0x1 ADD SWAP1 PUSH2 0x1185 JUMP JUMPDEST POP POP POP POP SWAP1 POP SWAP2 SWAP1 POP JUMP JUMPDEST PUSH1 0x1 PUSH1 0x1 PUSH1 0xA0 SHL SUB DUP2 AND PUSH0 SWAP1 DUP2 MSTORE PUSH1 0x3 PUSH1 0x20 SWAP1 DUP2 MSTORE PUSH1 0x40 SWAP2 DUP3 SWAP1 KECCAK256 DUP1 SLOAD DUP4 MLOAD DUP2 DUP5 MUL DUP2 ADD DUP5 ADD SWAP1 SWAP5 MSTORE DUP1 DUP5 MSTORE PUSH1 0x60 SWAP4 SWAP3 DUP4 ADD DUP3 DUP3 DUP1 ISZERO PUSH2 0x12D4 JUMPI PUSH1 0x20 MUL DUP3 ADD SWAP2 SWAP1 PUSH0 MSTORE PUSH1 0x20 PUSH0 KECCAK256 SWAP1 JUMPDEST DUP2 SLOAD PUSH1 0x1 PUSH1 0x1 PUSH1 0xA0 SHL SUB AND DUP2 MSTORE PUSH1 0x1 SWAP1 SWAP2 ADD SWAP1 PUSH1 0x20 ADD DUP1 DUP4 GT PUSH2 0x12B6 JUMPI JUMPDEST POP POP POP POP POP SWAP1 POP SWAP2 SWAP1 POP JUMP JUMPDEST CALLER PUSH0 SWAP1 DUP2 MSTORE PUSH1 0x20 DUP2 SWAP1 MSTORE PUSH1 0x40 SWAP1 KECCAK256 PUSH1 0x6 ADD SLOAD PUSH1 0xFF AND PUSH2 0x134B JUMPI PUSH1 0x40 MLOAD PUSH3 0x461BCD PUSH1 0xE5 SHL DUP2 MSTORE PUSH1 0x20 PUSH1 0x4 DUP3 ADD MSTORE PUSH1 0x21 PUSH1 0x24 DUP3 ADD MSTORE PUSH32 0x596F75206172656E277420646F696E6720616E7920726567697374726174696F PUSH1 0x44 DUP3 ADD MSTORE PUSH1 0x37 PUSH1 0xF9 SHL PUSH1 0x64 DUP3 ADD MSTORE PUSH1 0x84 ADD PUSH2 0x377 JUMP JUMPDEST PUSH0 DUP2 MLOAD GT PUSH2 0x13A7 JUMPI PUSH1 0x40 MLOAD PUSH3 0x461BCD PUSH1 0xE5 SHL DUP2 MSTORE PUSH1 0x20 PUSH1 0x4 DUP3 ADD MSTORE PUSH1 0x23 PUSH1 0x24 DUP3 ADD MSTORE PUSH32 0x63616E206E6F742061646420656D70747920737472696E6720696E20636F6E74 PUSH1 0x44 DUP3 ADD MSTORE PUSH3 0x195B9D PUSH1 0xEA SHL PUSH1 0x64 DUP3 ADD MSTORE PUSH1 0x84 ADD PUSH2 0x377 JUMP JUMPDEST CALLER PUSH0 SWAP1 DUP2 MSTORE PUSH1 0x4 PUSH1 0x20 MSTORE PUSH1 0x40 SWAP1 KECCAK256 SLOAD PUSH1 0xA GT PUSH2 0x1405 JUMPI PUSH1 0x40 MLOAD PUSH3 0x461BCD PUSH1 0xE5 SHL DUP2 MSTORE PUSH1 0x20 PUSH1 0x4 DUP3 ADD MSTORE PUSH1 0x1E PUSH1 0x24 DUP3 ADD MSTORE PUSH32 0x796F752063616E20616464207570746F20313020706F737473206F6E6C790000 PUSH1 0x44 DUP3 ADD MSTORE PUSH1 0x64 ADD PUSH2 0x377 JUMP JUMPDEST CALLER PUSH0 SWAP1 DUP2 MSTORE PUSH1 0x4 PUSH1 0x20 DUP2 DUP2 MSTORE PUSH1 0x40 DUP1 DUP5 KECCAK256 DUP1 SLOAD DUP3 MLOAD PUSH1 0x80 DUP2 ADD DUP5 MSTORE DUP2 DUP2 MSTORE DUP1 DUP6 ADD DUP9 DUP2 MSTORE SWAP4 DUP2 ADD DUP8 SWAP1 MSTORE PUSH1 0x60 DUP2 ADD DUP8 SWAP1 MSTORE PUSH1 0x1 DUP1 DUP4 ADD DUP5 SSTORE SWAP3 DUP8 MSTORE SWAP4 SWAP1 SWAP6 KECCAK256 DUP4 MLOAD SWAP5 DUP7 MUL ADD SWAP4 DUP5 SSTORE SWAP1 MLOAD SWAP2 SWAP3 SWAP2 SWAP1 DUP3 ADD SWAP1 PUSH2 0x1460 SWAP1 DUP3 PUSH2 0x19D0 JUMP JUMPDEST POP PUSH1 0x40 DUP3 DUP2 ADD MLOAD PUSH1 0x2 DUP4 ADD SSTORE PUSH1 0x60 SWAP1 SWAP3 ADD MLOAD PUSH1 0x3 SWAP1 SWAP2 ADD SSTORE CALLER PUSH0 SWAP1 DUP2 MSTORE PUSH1 0x20 DUP2 SWAP1 MSTORE SWAP1 DUP2 KECCAK256 PUSH1 0x5 ADD DUP1 SLOAD SWAP2 PUSH2 0x1494 DUP4 PUSH2 0x1934 JUMP JUMPDEST SWAP2 SWAP1 POP SSTORE POP CALLER PUSH1 0x1 PUSH1 0x1 PUSH1 0xA0 SHL SUB AND PUSH32 0x354162FEC6CA098A4253DE2BCE4A416B45366427605190696F216E3DB712298C DUP3 DUP5 PUSH1 0x40 MLOAD PUSH2 0xB54 SWAP3 SWAP2 SWAP1 PUSH2 0x1AA2 JUMP JUMPDEST PUSH1 0x1 PUSH1 0x1 PUSH1 0xA0 SHL SUB DUP2 AND PUSH0 SWAP1 DUP2 MSTORE PUSH1 0x2 PUSH1 0x20 SWAP1 DUP2 MSTORE PUSH1 0x40 SWAP2 DUP3 SWAP1 KECCAK256 DUP1 SLOAD DUP4 MLOAD DUP2 DUP5 MUL DUP2 ADD DUP5 ADD SWAP1 SWAP5 MSTORE DUP1 DUP5 MSTORE PUSH1 0x60 SWAP4 SWAP3 DUP4 ADD DUP3 DUP3 DUP1 ISZERO PUSH2 0x12D4 JUMPI PUSH1 0x20 MUL DUP3 ADD SWAP2 SWAP1 PUSH0 MSTORE PUSH1 0x20 PUSH0 KECCAK256 SWAP1 DUP2 SLOAD PUSH1 0x1 PUSH1 0x1 PUSH1 0xA0 SHL SUB AND DUP2 MSTORE PUSH1 0x1 SWAP1 SWAP2 ADD SWAP1 PUSH1 0x20 ADD DUP1 DUP4 GT PUSH2 0x12B6 JUMPI POP POP POP POP POP SWAP1 POP SWAP2 SWAP1 POP JUMP JUMPDEST DUP1 CALLDATALOAD PUSH1 0x1 PUSH1 0x1 PUSH1 0xA0 SHL SUB DUP2 AND DUP2 EQ PUSH2 0x155B JUMPI PUSH0 DUP1 REVERT JUMPDEST SWAP2 SWAP1 POP JUMP JUMPDEST PUSH0 PUSH1 0x20 DUP3 DUP5 SUB SLT ISZERO PUSH2 0x1570 JUMPI PUSH0 DUP1 REVERT JUMPDEST PUSH2 0x1579 DUP3 PUSH2 0x1545 JUMP JUMPDEST SWAP4 SWAP3 POP POP POP JUMP JUMPDEST PUSH0 DUP1 PUSH1 0x40 DUP4 DUP6 SUB SLT ISZERO PUSH2 0x1591 JUMPI PUSH0 DUP1 REVERT JUMPDEST PUSH2 0x159A DUP4 PUSH2 0x1545 JUMP JUMPDEST SWAP5 PUSH1 0x20 SWAP4 SWAP1 SWAP4 ADD CALLDATALOAD SWAP4 POP POP POP JUMP JUMPDEST PUSH0 DUP2 MLOAD DUP1 DUP5 MSTORE PUSH0 JUMPDEST DUP2 DUP2 LT ISZERO PUSH2 0x15CC JUMPI PUSH1 0x20 DUP2 DUP6 ADD DUP2 ADD MLOAD DUP7 DUP4 ADD DUP3 ADD MSTORE ADD PUSH2 0x15B0 JUMP JUMPDEST POP PUSH0 PUSH1 0x20 DUP3 DUP7 ADD ADD MSTORE PUSH1 0x20 PUSH1 0x1F NOT PUSH1 0x1F DUP4 ADD AND DUP6 ADD ADD SWAP2 POP POP SWAP3 SWAP2 POP POP JUMP JUMPDEST PUSH1 0x1 PUSH1 0x1 PUSH1 0xA0 SHL SUB DUP9 AND DUP2 MSTORE PUSH1 0xE0 PUSH1 0x20 DUP3 ADD DUP2 SWAP1 MSTORE PUSH0 SWAP1 PUSH2 0x160E SWAP1 DUP4 ADD DUP10 PUSH2 0x15A8 JUMP JUMPDEST DUP3 DUP2 SUB PUSH1 0x40 DUP5 ADD MSTORE PUSH2 0x1620 DUP2 DUP10 PUSH2 0x15A8 JUMP JUMPDEST SWAP2 POP POP DUP6 PUSH1 0x60 DUP4 ADD MSTORE DUP5 PUSH1 0x80 DUP4 ADD MSTORE DUP4 PUSH1 0xA0 DUP4 ADD MSTORE DUP3 ISZERO ISZERO PUSH1 0xC0 DUP4 ADD MSTORE SWAP9 SWAP8 POP POP POP POP POP POP POP POP JUMP JUMPDEST PUSH1 0x20 DUP1 DUP3 MSTORE DUP3 MLOAD DUP3 DUP3 ADD DUP2 SWAP1 MSTORE PUSH0 SWAP2 SWAP1 DUP5 DUP3 ADD SWAP1 PUSH1 0x40 DUP6 ADD SWAP1 DUP5 JUMPDEST DUP2 DUP2 LT ISZERO PUSH2 0x1689 JUMPI DUP4 MLOAD PUSH1 0x1 PUSH1 0x1 PUSH1 0xA0 SHL SUB AND DUP4 MSTORE SWAP3 DUP5 ADD SWAP3 SWAP2 DUP5 ADD SWAP2 PUSH1 0x1 ADD PUSH2 0x1664 JUMP JUMPDEST POP SWAP1 SWAP7 SWAP6 POP POP POP POP POP POP JUMP JUMPDEST PUSH4 0x4E487B71 PUSH1 0xE0 SHL PUSH0 MSTORE PUSH1 0x41 PUSH1 0x4 MSTORE PUSH1 0x24 PUSH0 REVERT JUMPDEST PUSH0 DUP3 PUSH1 0x1F DUP4 ADD SLT PUSH2 0x16B8 JUMPI PUSH0 DUP1 REVERT JUMPDEST DUP2 CALLDATALOAD PUSH8 0xFFFFFFFFFFFFFFFF DUP1 DUP3 GT ISZERO PUSH2 0x16D3 JUMPI PUSH2 0x16D3 PUSH2 0x1695 JUMP JUMPDEST PUSH1 0x40 MLOAD PUSH1 0x1F DUP4 ADD PUSH1 0x1F NOT SWAP1 DUP2 AND PUSH1 0x3F ADD AND DUP2 ADD SWAP1 DUP3 DUP3 GT DUP2 DUP4 LT OR ISZERO PUSH2 0x16FB JUMPI PUSH2 0x16FB PUSH2 0x1695 JUMP JUMPDEST DUP2 PUSH1 0x40 MSTORE DUP4 DUP2 MSTORE DUP7 PUSH1 0x20 DUP6 DUP9 ADD ADD GT ISZERO PUSH2 0x1713 JUMPI PUSH0 DUP1 REVERT JUMPDEST DUP4 PUSH1 0x20 DUP8 ADD PUSH1 0x20 DUP4 ADD CALLDATACOPY PUSH0 PUSH1 0x20 DUP6 DUP4 ADD ADD MSTORE DUP1 SWAP5 POP POP POP POP POP SWAP3 SWAP2 POP POP JUMP JUMPDEST PUSH0 DUP1 PUSH1 0x40 DUP4 DUP6 SUB SLT ISZERO PUSH2 0x1743 JUMPI PUSH0 DUP1 REVERT JUMPDEST DUP3 CALLDATALOAD PUSH8 0xFFFFFFFFFFFFFFFF DUP1 DUP3 GT ISZERO PUSH2 0x175A JUMPI PUSH0 DUP1 REVERT JUMPDEST PUSH2 0x1766 DUP7 DUP4 DUP8 ADD PUSH2 0x16A9 JUMP JUMPDEST SWAP4 POP PUSH1 0x20 DUP6 ADD CALLDATALOAD SWAP2 POP DUP1 DUP3 GT ISZERO PUSH2 0x177B JUMPI PUSH0 DUP1 REVERT JUMPDEST POP PUSH2 0x1788 DUP6 DUP3 DUP7 ADD PUSH2 0x16A9 JUMP JUMPDEST SWAP2 POP POP SWAP3 POP SWAP3 SWAP1 POP JUMP JUMPDEST DUP5 DUP2 MSTORE PUSH1 0x80 PUSH1 0x20 DUP3 ADD MSTORE PUSH0 PUSH2 0x17AA PUSH1 0x80 DUP4 ADD DUP7 PUSH2 0x15A8 JUMP JUMPDEST PUSH1 0x40 DUP4 ADD SWAP5 SWAP1 SWAP5 MSTORE POP PUSH1 0x60 ADD MSTORE SWAP3 SWAP2 POP POP JUMP JUMPDEST PUSH0 PUSH1 0x20 DUP3 DUP5 SUB SLT ISZERO PUSH2 0x17CD JUMPI PUSH0 DUP1 REVERT JUMPDEST POP CALLDATALOAD SWAP2 SWAP1 POP JUMP JUMPDEST PUSH0 DUP1 PUSH1 0x40 DUP4 DUP6 SUB SLT ISZERO PUSH2 0x17E5 JUMPI PUSH0 DUP1 REVERT JUMPDEST PUSH2 0x17EE DUP4 PUSH2 0x1545 JUMP JUMPDEST SWAP2 POP PUSH2 0x17FC PUSH1 0x20 DUP5 ADD PUSH2 0x1545 JUMP JUMPDEST SWAP1 POP SWAP3 POP SWAP3 SWAP1 POP JUMP JUMPDEST PUSH0 PUSH1 0x20 DUP1 DUP4 ADD DUP2 DUP5 MSTORE DUP1 DUP6 MLOAD DUP1 DUP4 MSTORE PUSH1 0x40 SWAP3 POP PUSH1 0x40 DUP7 ADD SWAP2 POP PUSH1 0x40 DUP2 PUSH1 0x5 SHL DUP8 ADD ADD DUP5 DUP9 ADD PUSH0 JUMPDEST DUP4 DUP2 LT ISZERO PUSH2 0x1882 JUMPI PUSH1 0x3F NOT DUP10 DUP5 SUB ADD DUP6 MSTORE DUP2 MLOAD PUSH1 0x80 DUP2 MLOAD DUP6 MSTORE DUP9 DUP3 ADD MLOAD DUP2 DUP11 DUP8 ADD MSTORE PUSH2 0x185A DUP3 DUP8 ADD DUP3 PUSH2 0x15A8 JUMP JUMPDEST DUP4 DUP11 ADD MLOAD DUP8 DUP12 ADD MSTORE PUSH1 0x60 SWAP4 DUP5 ADD MLOAD SWAP4 SWAP1 SWAP7 ADD SWAP3 SWAP1 SWAP3 MSTORE POP POP SWAP4 DUP7 ADD SWAP4 SWAP1 DUP7 ADD SWAP1 PUSH1 0x1 ADD PUSH2 0x182C JUMP JUMPDEST POP SWAP1 SWAP9 SWAP8 POP POP POP POP POP POP POP POP JUMP JUMPDEST PUSH0 PUSH1 0x20 DUP3 DUP5 SUB SLT ISZERO PUSH2 0x18A0 JUMPI PUSH0 DUP1 REVERT JUMPDEST DUP2 CALLDATALOAD PUSH8 0xFFFFFFFFFFFFFFFF DUP2 GT ISZERO PUSH2 0x18B6 JUMPI PUSH0 DUP1 REVERT JUMPDEST PUSH2 0x18C2 DUP5 DUP3 DUP6 ADD PUSH2 0x16A9 JUMP JUMPDEST SWAP5 SWAP4 POP POP POP POP JUMP JUMPDEST PUSH4 0x4E487B71 PUSH1 0xE0 SHL PUSH0 MSTORE PUSH1 0x11 PUSH1 0x4 MSTORE PUSH1 0x24 PUSH0 REVERT JUMPDEST PUSH0 DUP2 PUSH2 0x18EC JUMPI PUSH2 0x18EC PUSH2 0x18CA JUMP JUMPDEST POP PUSH0 NOT ADD SWAP1 JUMP JUMPDEST PUSH4 0x4E487B71 PUSH1 0xE0 SHL PUSH0 MSTORE PUSH1 0x32 PUSH1 0x4 MSTORE PUSH1 0x24 PUSH0 REVERT JUMPDEST DUP2 DUP2 SUB DUP2 DUP2 GT ISZERO PUSH2 0x191A JUMPI PUSH2 0x191A PUSH2 0x18CA JUMP JUMPDEST SWAP3 SWAP2 POP POP JUMP JUMPDEST PUSH4 0x4E487B71 PUSH1 0xE0 SHL PUSH0 MSTORE PUSH1 0x31 PUSH1 0x4 MSTORE PUSH1 0x24 PUSH0 REVERT JUMPDEST PUSH0 PUSH1 0x1 DUP3 ADD PUSH2 0x1945 JUMPI PUSH2 0x1945 PUSH2 0x18CA JUMP JUMPDEST POP PUSH1 0x1 ADD SWAP1 JUMP JUMPDEST PUSH1 0x1 DUP2 DUP2 SHR SWAP1 DUP3 AND DUP1 PUSH2 0x1960 JUMPI PUSH1 0x7F DUP3 AND SWAP2 POP JUMPDEST PUSH1 0x20 DUP3 LT DUP2 SUB PUSH2 0x197E JUMPI PUSH4 0x4E487B71 PUSH1 0xE0 SHL PUSH0 MSTORE PUSH1 0x22 PUSH1 0x4 MSTORE PUSH1 0x24 PUSH0 REVERT JUMPDEST POP SWAP2 SWAP1 POP JUMP JUMPDEST PUSH1 0x1F DUP3 GT ISZERO PUSH2 0x19CB JUMPI DUP1 PUSH0 MSTORE PUSH1 0x20 PUSH0 KECCAK256 PUSH1 0x1F DUP5 ADD PUSH1 0x5 SHR DUP2 ADD PUSH1 0x20 DUP6 LT ISZERO PUSH2 0x19A9 JUMPI POP DUP1 JUMPDEST PUSH1 0x1F DUP5 ADD PUSH1 0x5 SHR DUP3 ADD SWAP2 POP JUMPDEST DUP2 DUP2 LT ISZERO PUSH2 0x19C8 JUMPI PUSH0 DUP2 SSTORE PUSH1 0x1 ADD PUSH2 0x19B5 JUMP JUMPDEST POP POP JUMPDEST POP POP POP JUMP JUMPDEST DUP2 MLOAD PUSH8 0xFFFFFFFFFFFFFFFF DUP2 GT ISZERO PUSH2 0x19EA JUMPI PUSH2 0x19EA PUSH2 0x1695 JUMP JUMPDEST PUSH2 0x19FE DUP2 PUSH2 0x19F8 DUP5 SLOAD PUSH2 0x194C JUMP JUMPDEST DUP5 PUSH2 0x1984 JUMP JUMPDEST PUSH1 0x20 DUP1 PUSH1 0x1F DUP4 GT PUSH1 0x1 DUP2 EQ PUSH2 0x1A31 JUMPI PUSH0 DUP5 ISZERO PUSH2 0x1A1A JUMPI POP DUP6 DUP4 ADD MLOAD JUMPDEST PUSH0 NOT PUSH1 0x3 DUP7 SWAP1 SHL SHR NOT AND PUSH1 0x1 DUP6 SWAP1 SHL OR DUP6 SSTORE PUSH2 0x1A88 JUMP JUMPDEST PUSH0 DUP6 DUP2 MSTORE PUSH1 0x20 DUP2 KECCAK256 PUSH1 0x1F NOT DUP7 AND SWAP2 JUMPDEST DUP3 DUP2 LT ISZERO PUSH2 0x1A5F JUMPI DUP9 DUP7 ADD MLOAD DUP3 SSTORE SWAP5 DUP5 ADD SWAP5 PUSH1 0x1 SWAP1 SWAP2 ADD SWAP1 DUP5 ADD PUSH2 0x1A40 JUMP JUMPDEST POP DUP6 DUP3 LT ISZERO PUSH2 0x1A7C JUMPI DUP8 DUP6 ADD MLOAD PUSH0 NOT PUSH1 0x3 DUP9 SWAP1 SHL PUSH1 0xF8 AND SHR NOT AND DUP2 SSTORE JUMPDEST POP POP PUSH1 0x1 DUP5 PUSH1 0x1 SHL ADD DUP6 SSTORE JUMPDEST POP POP POP POP POP POP JUMP JUMPDEST PUSH1 0x20 DUP2 MSTORE PUSH0 PUSH2 0x1579 PUSH1 0x20 DUP4 ADD DUP5 PUSH2 0x15A8 JUMP JUMPDEST DUP3 DUP2 MSTORE PUSH1 0x40 PUSH1 0x20 DUP3 ADD MSTORE PUSH0 PUSH2 0x18C2 PUSH1 0x40 DUP4 ADD DUP5 PUSH2 0x15A8 JUMP INVALID LOG2 PUSH5 0x6970667358 0x22 SLT KECCAK256 0xBE 0xF8 ADDMOD 0xEF 0xAE EQ PUSH1 0xB8 EXTCODESIZE 0xD3 TSTORE SWAP12 CODESIZE SWAP11 0xDB 0xEF SLOAD 0x1F EXP INVALID 0xEC 0x22 DUP9 PUSH20 0xE05A79C55465BBB364736F6C6343000818003300 "
				},
				"gasEstimates": {
					"creation": {
						"codeDepositCost": "1379200",
						"executionCost": "1436",
						"totalCost": "1380636"
					},
					"external": {
						"addLikes(address,uint256)": "31354",
						"allFollowers(address,uint256)": "4868",
						"allFollowing(address,uint256)": "4802",
						"createPost(string)": "infinite",
						"follow(address)": "infinite",
						"getAllRegisteredUsers()": "infinite",
						"getFollowers(address)": "infinite",
						"getFollowing(address)": "infinite",
						"getUserPosts(address)": "infinite",
						"getUserProfile(address)": "infinite",
						"isFollowing(address,address)": "infinite",
						"posts(address,uint256)": "infinite",
						"register(string,string)": "infinite",
						"registeredUsers(uint256)": "4656",
						"unfollow(address)": "infinite",
						"user_profile(address)": "infinite"
					}
				},
				"methodIdentifiers": {
					"addLikes(address,uint256)": "15bf4006",
					"allFollowers(address,uint256)": "5d867b94",
					"allFollowing(address,uint256)": "6ef9c5e6",
					"createPost(string)": "c7303c61",
					"follow(address)": "4dbf27cc",
					"getAllRegisteredUsers()": "397388af",
					"getFollowers(address)": "c2fe2022",
					"getFollowing(address)": "d8236dff",
					"getUserPosts(address)": "9a2194a9",
					"getUserProfile(address)": "987ee156",
					"isFollowing(address,address)": "99ec3a42",
					"posts(address,uint256)": "5c538df3",
					"register(string,string)": "3ffbd47f",
					"registeredUsers(uint256)": "7259e0f8",
					"unfollow(address)": "015a4ead",
					"user_profile(address)": "3640b59c"
				}
			},
			"storageLayout": {
				"storage": [
					{
						"astId": 56,
						"contract": "SocialMedia.sol:SocialMedia",
						"label": "user_profile",
						"offset": 0,
						"slot": "0",
						"type": "t_mapping(t_address,t_struct(User)42_storage)"
					},
					{
						"astId": 59,
						"contract": "SocialMedia.sol:SocialMedia",
						"label": "registeredUsers",
						"offset": 0,
						"slot": "1",
						"type": "t_array(t_address)dyn_storage"
					},
					{
						"astId": 64,
						"contract": "SocialMedia.sol:SocialMedia",
						"label": "allFollowing",
						"offset": 0,
						"slot": "2",
						"type": "t_mapping(t_address,t_array(t_address)dyn_storage)"
					},
					{
						"astId": 69,
						"contract": "SocialMedia.sol:SocialMedia",
						"label": "allFollowers",
						"offset": 0,
						"slot": "3",
						"type": "t_mapping(t_address,t_array(t_address)dyn_storage)"
					},
					{
						"astId": 75,
						"contract": "SocialMedia.sol:SocialMedia",
						"label": "posts",
						"offset": 0,
						"slot": "4",
						"type": "t_mapping(t_address,t_array(t_struct(Post)51_storage)dyn_storage)"
					},
					{
						"astId": 81,
						"contract": "SocialMedia.sol:SocialMedia",
						"label": "isFollowing",
						"offset": 0,
						"slot": "5",
						"type": "t_mapping(t_address,t_mapping(t_address,t_bool))"
					}
				],
				"types": {
					"t_address": {
						"encoding": "inplace",
						"label": "address",
						"numberOfBytes": "20"
					},
					"t_array(t_address)dyn_storage": {
						"base": "t_address",
						"encoding": "dynamic_array",
						"label": "address[]",
						"numberOfBytes": "32"
					},
					"t_array(t_struct(Post)51_storage)dyn_storage": {
						"base": "t_struct(Post)51_storage",
						"encoding": "dynamic_array",
						"label": "struct SocialMedia.Post[]",
						"numberOfBytes": "32"
					},
					"t_bool": {
						"encoding": "inplace",
						"label": "bool",
						"numberOfBytes": "1"
					},
					"t_mapping(t_address,t_array(t_address)dyn_storage)": {
						"encoding": "mapping",
						"key": "t_address",
						"label": "mapping(address => address[])",
						"numberOfBytes": "32",
						"value": "t_array(t_address)dyn_storage"
					},
					"t_mapping(t_address,t_array(t_struct(Post)51_storage)dyn_storage)": {
						"encoding": "mapping",
						"key": "t_address",
						"label": "mapping(address => struct SocialMedia.Post[])",
						"numberOfBytes": "32",
						"value": "t_array(t_struct(Post)51_storage)dyn_storage"
					},
					"t_mapping(t_address,t_bool)": {
						"encoding": "mapping",
						"key": "t_address",
						"label": "mapping(address => bool)",
						"numberOfBytes": "32",
						"value": "t_bool"
					},
					"t_mapping(t_address,t_mapping(t_address,t_bool))": {
						"encoding": "mapping",
						"key": "t_address",
						"label": "mapping(address => mapping(address => bool))",
						"numberOfBytes": "32",
						"value": "t_mapping(t_address,t_bool)"
					},
					"t_mapping(t_address,t_struct(User)42_storage)": {
						"encoding": "mapping",
						"key": "t_address",
						"label": "mapping(address => struct SocialMedia.User)",
						"numberOfBytes": "32",
						"value": "t_struct(User)42_storage"
					},
					"t_string_storage": {
						"encoding": "bytes",
						"label": "string",
						"numberOfBytes": "32"
					},
					"t_struct(Post)51_storage": {
						"encoding": "inplace",
						"label": "struct SocialMedia.Post",
						"members": [
							{
								"astId": 44,
								"contract": "SocialMedia.sol:SocialMedia",
								"label": "postId",
								"offset": 0,
								"slot": "0",
								"type": "t_uint256"
							},
							{
								"astId": 46,
								"contract": "SocialMedia.sol:SocialMedia",
								"label": "content",
								"offset": 0,
								"slot": "1",
								"type": "t_string_storage"
							},
							{
								"astId": 48,
								"contract": "SocialMedia.sol:SocialMedia",
								"label": "likesCount",
								"offset": 0,
								"slot": "2",
								"type": "t_uint256"
							},
							{
								"astId": 50,
								"contract": "SocialMedia.sol:SocialMedia",
								"label": "commentsCount",
								"offset": 0,
								"slot": "3",
								"type": "t_uint256"
							}
						],
						"numberOfBytes": "128"
					},
					"t_struct(User)42_storage": {
						"encoding": "inplace",
						"label": "struct SocialMedia.User",
						"members": [
							{
								"astId": 29,
								"contract": "SocialMedia.sol:SocialMedia",
								"label": "UserAddress",
								"offset": 0,
								"slot": "0",
								"type": "t_address"
							},
							{
								"astId": 31,
								"contract": "SocialMedia.sol:SocialMedia",
								"label": "UserName",
								"offset": 0,
								"slot": "1",
								"type": "t_string_storage"
							},
							{
								"astId": 33,
								"contract": "SocialMedia.sol:SocialMedia",
								"label": "bio",
								"offset": 0,
								"slot": "2",
								"type": "t_string_storage"
							},
							{
								"astId": 35,
								"contract": "SocialMedia.sol:SocialMedia",
								"label": "follower",
								"offset": 0,
								"slot": "3",
								"type": "t_uint256"
							},
							{
								"astId": 37,
								"contract": "SocialMedia.sol:SocialMedia",
								"label": "following",
								"offset": 0,
								"slot": "4",
								"type": "t_uint256"
							},
							{
								"astId": 39,
								"contract": "SocialMedia.sol:SocialMedia",
								"label": "totalPost",
								"offset": 0,
								"slot": "5",
								"type": "t_uint256"
							},
							{
								"astId": 41,
								"contract": "SocialMedia.sol:SocialMedia",
								"label": "isRegister",
								"offset": 0,
								"slot": "6",
								"type": "t_bool"
							}
						],
						"numberOfBytes": "224"
					},
					"t_uint256": {
						"encoding": "inplace",
						"label": "uint256",
						"numberOfBytes": "32"
					}
				}
			},
			"userdoc": {
				"kind": "user",
				"methods": {},
				"version": 1
			}
		}
	}
}